{
	"data": {
		"bytecode": {
			"linkReferences": {},
			"object": "60806040526000805534801561001457600080fd5b50610393806100246000396000f3fe608060405234801561001057600080fd5b506004361061004c5760003560e01c80635b1a540a14610051578063aa90493a1461006f578063b0e134b11461008d578063ecb6021c146100ab575b600080fd5b6100596100c9565b604051610066919061024e565b60405180910390f35b610077610132565b604051610084919061024e565b60405180910390f35b610095610154565b6040516100a2919061024e565b60405180910390f35b6100b361019a565b6040516100c09190610269565b60405180910390f35b60006100d3610132565b1561012a57600042905080600260008054815260200190815260200160002060000154108015610119575080600260008054815260200190815260200160002060020154115b1561012857600191505061012f565b505b600090505b90565b6000806002600080548152602001908152602001600020600001541415905090565b600061015e610132565b61016757600080fd5b600060026000805481526020019081526020016000206001015414610190576001905080610196565b60009050805b5090565b6000600260008054815260200190815260200160002060040160029054906101000a90047dffffffffffffffffffffffffffffffffffffffffffffffffffffffffffff167dffffffffffffffffffffffffffffffffffffffffffffffffffffffffffff166002600080548152602001908152602001600020600001544261022191906102b5565b61022b9190610284565b905090565b610239816102e9565b82525050565b610248816102f5565b82525050565b60006020820190506102636000830184610230565b92915050565b600060208201905061027e600083018461023f565b92915050565b600061028f826102f5565b915061029a836102f5565b9250826102aa576102a961032e565b5b828204905092915050565b60006102c0826102f5565b91506102cb836102f5565b9250828210156102de576102dd6102ff565b5b828203905092915050565b60008115159050919050565b6000819050919050565b7f4e487b7100000000000000000000000000000000000000000000000000000000600052601160045260246000fd5b7f4e487b7100000000000000000000000000000000000000000000000000000000600052601260045260246000fdfea2646970667358221220cf1d43c63d0bd4d2415c47f999a83361b47f9a316cf2ae7084b88bc49476b7c664736f6c63430008070033",
			"opcodes": "PUSH1 0x80 PUSH1 0x40 MSTORE PUSH1 0x0 DUP1 SSTORE CALLVALUE DUP1 ISZERO PUSH2 0x14 JUMPI PUSH1 0x0 DUP1 REVERT JUMPDEST POP PUSH2 0x393 DUP1 PUSH2 0x24 PUSH1 0x0 CODECOPY PUSH1 0x0 RETURN INVALID PUSH1 0x80 PUSH1 0x40 MSTORE CALLVALUE DUP1 ISZERO PUSH2 0x10 JUMPI PUSH1 0x0 DUP1 REVERT JUMPDEST POP PUSH1 0x4 CALLDATASIZE LT PUSH2 0x4C JUMPI PUSH1 0x0 CALLDATALOAD PUSH1 0xE0 SHR DUP1 PUSH4 0x5B1A540A EQ PUSH2 0x51 JUMPI DUP1 PUSH4 0xAA90493A EQ PUSH2 0x6F JUMPI DUP1 PUSH4 0xB0E134B1 EQ PUSH2 0x8D JUMPI DUP1 PUSH4 0xECB6021C EQ PUSH2 0xAB JUMPI JUMPDEST PUSH1 0x0 DUP1 REVERT JUMPDEST PUSH2 0x59 PUSH2 0xC9 JUMP JUMPDEST PUSH1 0x40 MLOAD PUSH2 0x66 SWAP2 SWAP1 PUSH2 0x24E JUMP JUMPDEST PUSH1 0x40 MLOAD DUP1 SWAP2 SUB SWAP1 RETURN JUMPDEST PUSH2 0x77 PUSH2 0x132 JUMP JUMPDEST PUSH1 0x40 MLOAD PUSH2 0x84 SWAP2 SWAP1 PUSH2 0x24E JUMP JUMPDEST PUSH1 0x40 MLOAD DUP1 SWAP2 SUB SWAP1 RETURN JUMPDEST PUSH2 0x95 PUSH2 0x154 JUMP JUMPDEST PUSH1 0x40 MLOAD PUSH2 0xA2 SWAP2 SWAP1 PUSH2 0x24E JUMP JUMPDEST PUSH1 0x40 MLOAD DUP1 SWAP2 SUB SWAP1 RETURN JUMPDEST PUSH2 0xB3 PUSH2 0x19A JUMP JUMPDEST PUSH1 0x40 MLOAD PUSH2 0xC0 SWAP2 SWAP1 PUSH2 0x269 JUMP JUMPDEST PUSH1 0x40 MLOAD DUP1 SWAP2 SUB SWAP1 RETURN JUMPDEST PUSH1 0x0 PUSH2 0xD3 PUSH2 0x132 JUMP JUMPDEST ISZERO PUSH2 0x12A JUMPI PUSH1 0x0 TIMESTAMP SWAP1 POP DUP1 PUSH1 0x2 PUSH1 0x0 DUP1 SLOAD DUP2 MSTORE PUSH1 0x20 ADD SWAP1 DUP2 MSTORE PUSH1 0x20 ADD PUSH1 0x0 KECCAK256 PUSH1 0x0 ADD SLOAD LT DUP1 ISZERO PUSH2 0x119 JUMPI POP DUP1 PUSH1 0x2 PUSH1 0x0 DUP1 SLOAD DUP2 MSTORE PUSH1 0x20 ADD SWAP1 DUP2 MSTORE PUSH1 0x20 ADD PUSH1 0x0 KECCAK256 PUSH1 0x2 ADD SLOAD GT JUMPDEST ISZERO PUSH2 0x128 JUMPI PUSH1 0x1 SWAP2 POP POP PUSH2 0x12F JUMP JUMPDEST POP JUMPDEST PUSH1 0x0 SWAP1 POP JUMPDEST SWAP1 JUMP JUMPDEST PUSH1 0x0 DUP1 PUSH1 0x2 PUSH1 0x0 DUP1 SLOAD DUP2 MSTORE PUSH1 0x20 ADD SWAP1 DUP2 MSTORE PUSH1 0x20 ADD PUSH1 0x0 KECCAK256 PUSH1 0x0 ADD SLOAD EQ ISZERO SWAP1 POP SWAP1 JUMP JUMPDEST PUSH1 0x0 PUSH2 0x15E PUSH2 0x132 JUMP JUMPDEST PUSH2 0x167 JUMPI PUSH1 0x0 DUP1 REVERT JUMPDEST PUSH1 0x0 PUSH1 0x2 PUSH1 0x0 DUP1 SLOAD DUP2 MSTORE PUSH1 0x20 ADD SWAP1 DUP2 MSTORE PUSH1 0x20 ADD PUSH1 0x0 KECCAK256 PUSH1 0x1 ADD SLOAD EQ PUSH2 0x190 JUMPI PUSH1 0x1 SWAP1 POP DUP1 PUSH2 0x196 JUMP JUMPDEST PUSH1 0x0 SWAP1 POP DUP1 JUMPDEST POP SWAP1 JUMP JUMPDEST PUSH1 0x0 PUSH1 0x2 PUSH1 0x0 DUP1 SLOAD DUP2 MSTORE PUSH1 0x20 ADD SWAP1 DUP2 MSTORE PUSH1 0x20 ADD PUSH1 0x0 KECCAK256 PUSH1 0x4 ADD PUSH1 0x2 SWAP1 SLOAD SWAP1 PUSH2 0x100 EXP SWAP1 DIV PUSH30 0xFFFFFFFFFFFFFFFFFFFFFFFFFFFFFFFFFFFFFFFFFFFFFFFFFFFFFFFFFFFF AND PUSH30 0xFFFFFFFFFFFFFFFFFFFFFFFFFFFFFFFFFFFFFFFFFFFFFFFFFFFFFFFFFFFF AND PUSH1 0x2 PUSH1 0x0 DUP1 SLOAD DUP2 MSTORE PUSH1 0x20 ADD SWAP1 DUP2 MSTORE PUSH1 0x20 ADD PUSH1 0x0 KECCAK256 PUSH1 0x0 ADD SLOAD TIMESTAMP PUSH2 0x221 SWAP2 SWAP1 PUSH2 0x2B5 JUMP JUMPDEST PUSH2 0x22B SWAP2 SWAP1 PUSH2 0x284 JUMP JUMPDEST SWAP1 POP SWAP1 JUMP JUMPDEST PUSH2 0x239 DUP2 PUSH2 0x2E9 JUMP JUMPDEST DUP3 MSTORE POP POP JUMP JUMPDEST PUSH2 0x248 DUP2 PUSH2 0x2F5 JUMP JUMPDEST DUP3 MSTORE POP POP JUMP JUMPDEST PUSH1 0x0 PUSH1 0x20 DUP3 ADD SWAP1 POP PUSH2 0x263 PUSH1 0x0 DUP4 ADD DUP5 PUSH2 0x230 JUMP JUMPDEST SWAP3 SWAP2 POP POP JUMP JUMPDEST PUSH1 0x0 PUSH1 0x20 DUP3 ADD SWAP1 POP PUSH2 0x27E PUSH1 0x0 DUP4 ADD DUP5 PUSH2 0x23F JUMP JUMPDEST SWAP3 SWAP2 POP POP JUMP JUMPDEST PUSH1 0x0 PUSH2 0x28F DUP3 PUSH2 0x2F5 JUMP JUMPDEST SWAP2 POP PUSH2 0x29A DUP4 PUSH2 0x2F5 JUMP JUMPDEST SWAP3 POP DUP3 PUSH2 0x2AA JUMPI PUSH2 0x2A9 PUSH2 0x32E JUMP JUMPDEST JUMPDEST DUP3 DUP3 DIV SWAP1 POP SWAP3 SWAP2 POP POP JUMP JUMPDEST PUSH1 0x0 PUSH2 0x2C0 DUP3 PUSH2 0x2F5 JUMP JUMPDEST SWAP2 POP PUSH2 0x2CB DUP4 PUSH2 0x2F5 JUMP JUMPDEST SWAP3 POP DUP3 DUP3 LT ISZERO PUSH2 0x2DE JUMPI PUSH2 0x2DD PUSH2 0x2FF JUMP JUMPDEST JUMPDEST DUP3 DUP3 SUB SWAP1 POP SWAP3 SWAP2 POP POP JUMP JUMPDEST PUSH1 0x0 DUP2 ISZERO ISZERO SWAP1 POP SWAP2 SWAP1 POP JUMP JUMPDEST PUSH1 0x0 DUP2 SWAP1 POP SWAP2 SWAP1 POP JUMP JUMPDEST PUSH32 0x4E487B7100000000000000000000000000000000000000000000000000000000 PUSH1 0x0 MSTORE PUSH1 0x11 PUSH1 0x4 MSTORE PUSH1 0x24 PUSH1 0x0 REVERT JUMPDEST PUSH32 0x4E487B7100000000000000000000000000000000000000000000000000000000 PUSH1 0x0 MSTORE PUSH1 0x12 PUSH1 0x4 MSTORE PUSH1 0x24 PUSH1 0x0 REVERT INVALID LOG2 PUSH5 0x6970667358 0x22 SLT KECCAK256 0xCF SAR NUMBER 0xC6 RETURNDATASIZE SIGNEXTEND 0xD4 0xD2 COINBASE 0x5C SELFBALANCE 0xF9 SWAP10 0xA8 CALLER PUSH2 0xB47F SWAP11 BALANCE PUSH13 0xF2AE7084B88BC49476B7C66473 PUSH16 0x6C634300080700330000000000000000 "
		},
		"gasEstimates": {
			"creation": {
				"codeDepositCost": "183000",
				"executionCost": "5232",
				"totalCost": "188232"
			},
			"external": {
				"getDiscountUpdateFactor()": "infinite",
				"isDiscountActive()": "13316",
				"isDiscountPlanned()": "4636",
				"isDiscountWhitelisted()": "9033"
			},
			"internal": {
				"_deactivateDiscount()": "infinite",
				"_startDiscount(uint256,uint256,uint16,uint240,uint256[] memory,bytes4[] memory)": "infinite",
				"_startWhitelistedDiscount(uint256,uint256,uint256,bytes32,uint16,uint240,uint256[] memory,bytes4[] memory)": "infinite"
			}
		},
		"methodIdentifiers": {
			"getDiscountUpdateFactor()": "ecb6021c",
			"isDiscountActive()": "5b1a540a",
			"isDiscountPlanned()": "aa90493a",
			"isDiscountWhitelisted()": "b0e134b1"
		}
	},
	"abi": [
		{
			"inputs": [],
			"name": "getDiscountUpdateFactor",
			"outputs": [
				{
					"internalType": "uint256",
					"name": "updateFactor",
					"type": "uint256"
				}
			],
			"stateMutability": "view",
			"type": "function"
		},
		{
			"inputs": [],
			"name": "isDiscountActive",
			"outputs": [
				{
					"internalType": "bool",
					"name": "",
					"type": "bool"
				}
			],
			"stateMutability": "view",
			"type": "function"
		},
		{
			"inputs": [],
			"name": "isDiscountPlanned",
			"outputs": [
				{
					"internalType": "bool",
					"name": "",
					"type": "bool"
				}
			],
			"stateMutability": "view",
			"type": "function"
		},
		{
			"inputs": [],
			"name": "isDiscountWhitelisted",
			"outputs": [
				{
					"internalType": "bool",
					"name": "whitelisted",
					"type": "bool"
				}
			],
			"stateMutability": "view",
			"type": "function"
		}
	]
}