{
	"data": {
		"bytecode": {
			"linkReferences": {},
			"object": "6080604052600060015560006008556000600955670de0b6b3a7640000600a556064600b556001600c60006101000a81548160ff0219169083151502179055506005601155670de0b6b3a76400006012553480156200005d57600080fd5b5060405162007eac38038062007eac8339818101604052810190620000839190620009fb565b600062000095620003e060201b60201c565b9050806000806101000a81548173ffffffffffffffffffffffffffffffffffffffff021916908373ffffffffffffffffffffffffffffffffffffffff1602179055508073ffffffffffffffffffffffffffffffffffffffff16600073ffffffffffffffffffffffffffffffffffffffff167f8be0079c531659141344cd1fd0a4f28419497f9722a3daafe3b4186f6b6457e060405160405180910390a350600073ffffffffffffffffffffffffffffffffffffffff168273ffffffffffffffffffffffffffffffffffffffff1614156200016e57600080fd5b600073ffffffffffffffffffffffffffffffffffffffff168173ffffffffffffffffffffffffffffffffffffffff161415620001a957600080fd5b81600460006101000a81548173ffffffffffffffffffffffffffffffffffffffff021916908373ffffffffffffffffffffffffffffffffffffffff16021790555080600560006101000a81548173ffffffffffffffffffffffffffffffffffffffff021916908373ffffffffffffffffffffffffffffffffffffffff160217905550620002946040518060400160405280600781526020017f4c6576656c20490000000000000000000000000000000000000000000000000081525060646000600d8054905062000288600a8054620003e860201b62003c1f1760201c565b6200046c60201b60201c565b50620002ff6040518060400160405280600881526020017f4c6576656c20494900000000000000000000000000000000000000000000000081525060696000600d80549050620002f36064600a54620003e860201b62003c1f1760201c565b6200046c60201b60201c565b506200036b6040518060400160405280600981526020017f4c6576656c204949490000000000000000000000000000000000000000000000815250606e6000600d805490506200035f6103e8600a54620003e860201b62003c1f1760201c565b6200046c60201b60201c565b50620003d76040518060400160405280600881526020017f4c6576656c20495600000000000000000000000000000000000000000000000081525060736000600d80549050620003cb611388600a54620003e860201b62003c1f1760201c565b6200046c60201b60201c565b5050506200114e565b600033905090565b600080831415620003fd576000905062000466565b600082846200040d919062000d58565b90508284826200041e919062000d20565b1462000461576040517f08c379a0000000000000000000000000000000000000000000000000000000008152600401620004589062000c93565b60405180910390fd5b809150505b92915050565b60006200047e620003e060201b60201c565b73ffffffffffffffffffffffffffffffffffffffff1660008054906101000a900473ffffffffffffffffffffffffffffffffffffffff1673ffffffffffffffffffffffffffffffffffffffff16146200050e576040517f08c379a0000000000000000000000000000000000000000000000000000000008152600401620005059062000cd7565b60405180910390fd5b6200051e6200091160201b60201c565b1562000561576040517f08c379a0000000000000000000000000000000000000000000000000000000008152600401620005589062000c71565b60405180910390fd5b600d80549050600a11620005ac576040517f08c379a0000000000000000000000000000000000000000000000000000000008152600401620005a39062000c4f565b60405180910390fd5b600d80549050831115620005f7576040517f08c379a0000000000000000000000000000000000000000000000000000000008152600401620005ee9062000cb5565b60405180910390fd5b60008686428560405160200162000612949392919062000ba9565b60405160208183030381529060405280519060200120905060006040518060c00160405280837bffffffffffffffffffffffffffffffffffffffffffffffffffffffff19168152602001600115158152602001888152602001878152602001898152602001858152509050600d6001816001815401808255809150500390600052602060002090600891828204019190066004029054906101000a90505060006001600d80549050620006c6919062000db9565b90505b858110620007cd5785811415620007285782600d8281548110620006f257620006f162000f64565b5b90600052602060002090600891828204019190066004026101000a81548163ffffffff021916908360e01c0217905550620007cd565b600d60018262000739919062000db9565b815481106200074d576200074c62000f64565b5b90600052602060002090600891828204019190066004029054906101000a900460e01b600d828154811062000787576200078662000f64565b5b90600052602060002090600891828204019190066004026101000a81548163ffffffff021916908360e01c02179055508080620007c49062000e68565b915050620006c9565b5080600e6000847bffffffffffffffffffffffffffffffffffffffffffffffffffffffff19167bffffffffffffffffffffffffffffffffffffffffffffffffffffffff1916815260200190815260200160002060008201518160000160006101000a81548163ffffffff021916908360e01c021790555060208201518160000160046101000a81548160ff021916908315150217905550604082015181600101556060820151816002015560808201518160030190805190602001906200089692919062000934565b5060a08201518160040155905050817bffffffffffffffffffffffffffffffffffffffffffffffffffffffff19167fdaea932dcfec6084b0770111acda33cc55aa7d7f428c94a4d3ef6af4786a4f6989898988604051620008fb949392919062000bfb565b60405180910390a2819250505095945050505050565b600080600360006001548152602001908152602001600020600001541415905090565b828054620009429062000e97565b90600052602060002090601f016020900481019282620009665760008555620009b2565b82601f106200098157805160ff1916838001178555620009b2565b82800160010185558215620009b2579182015b82811115620009b157825182559160200191906001019062000994565b5b509050620009c19190620009c5565b5090565b5b80821115620009e0576000816000905550600101620009c6565b5090565b600081519050620009f58162001134565b92915050565b6000806040838503121562000a155762000a1462000f93565b5b600062000a2585828601620009e4565b925050602062000a3885828601620009e4565b9150509250929050565b600062000a4f8262000cf9565b62000a5b818562000d04565b935062000a6d81856020860162000e32565b62000a788162000f98565b840191505092915050565b600062000a908262000cf9565b62000a9c818562000d15565b935062000aae81856020860162000e32565b80840191505092915050565b600062000ac9605a8362000d04565b915062000ad68262000fa9565b606082019050919050565b600062000af060358362000d04565b915062000afd826200101e565b604082019050919050565b600062000b1760218362000d04565b915062000b24826200106d565b604082019050919050565b600062000b3e60228362000d04565b915062000b4b82620010bc565b604082019050919050565b600062000b6560208362000d04565b915062000b72826200110b565b602082019050919050565b62000b888162000e28565b82525050565b62000ba362000b9d8262000e28565b62000ecd565b82525050565b600062000bb7828762000a83565b915062000bc5828662000b8e565b60208201915062000bd7828562000b8e565b60208201915062000be9828462000b8e565b60208201915081905095945050505050565b6000608082019050818103600083015262000c17818762000a42565b905062000c28602083018662000b7d565b62000c37604083018562000b7d565b62000c46606083018462000b7d565b95945050505050565b6000602082019050818103600083015262000c6a8162000aba565b9050919050565b6000602082019050818103600083015262000c8c8162000ae1565b9050919050565b6000602082019050818103600083015262000cae8162000b08565b9050919050565b6000602082019050818103600083015262000cd08162000b2f565b9050919050565b6000602082019050818103600083015262000cf28162000b56565b9050919050565b600081519050919050565b600082825260208201905092915050565b600081905092915050565b600062000d2d8262000e28565b915062000d3a8362000e28565b92508262000d4d5762000d4c62000f06565b5b828204905092915050565b600062000d658262000e28565b915062000d728362000e28565b9250817fffffffffffffffffffffffffffffffffffffffffffffffffffffffffffffffff048311821515161562000dae5762000dad62000ed7565b5b828202905092915050565b600062000dc68262000e28565b915062000dd38362000e28565b92508282101562000de95762000de862000ed7565b5b828203905092915050565b600062000e018262000e08565b9050919050565b600073ffffffffffffffffffffffffffffffffffffffff82169050919050565b6000819050919050565b60005b8381101562000e5257808201518184015260208101905062000e35565b8381111562000e62576000848401525b50505050565b600062000e758262000e28565b9150600082141562000e8c5762000e8b62000ed7565b5b600182039050919050565b6000600282049050600182168062000eb057607f821691505b6020821081141562000ec75762000ec662000f35565b5b50919050565b6000819050919050565b7f4e487b7100000000000000000000000000000000000000000000000000000000600052601160045260246000fd5b7f4e487b7100000000000000000000000000000000000000000000000000000000600052601260045260246000fd5b7f4e487b7100000000000000000000000000000000000000000000000000000000600052602260045260246000fd5b7f4e487b7100000000000000000000000000000000000000000000000000000000600052603260045260246000fd5b600080fd5b6000601f19601f8301169050919050565b7f426f6e64204d616e616765723a20457863656564696e6720746865206d61786960008201527f6d756d20616d6f756e74206f6620426f6e64206c6576656c732e20547279206460208201527f6561637469766174696e672061206c6576656c2066697273742e000000000000604082015250565b7f426f6e64204d616e616765723a2043616e27742061646420626f6e64206c657660008201527f656c20647572696e67206120646973636f756e742e0000000000000000000000602082015250565b7f536166654d6174683a206d756c7469706c69636174696f6e206f766572666c6f60008201527f7700000000000000000000000000000000000000000000000000000000000000602082015250565b7f426f6e64204d616e616765723a20496e646578206f7574206f6620626f756e6460008201527f732e000000000000000000000000000000000000000000000000000000000000602082015250565b7f4f776e61626c653a2063616c6c6572206973206e6f7420746865206f776e6572600082015250565b6200113f8162000df4565b81146200114b57600080fd5b50565b616d4e806200115e6000396000f3fe608060405234801561001057600080fd5b50600436106102535760003560e01c80638d07d93611610146578063c0f96004116100c3578063db9d28d511610087578063db9d28d51461067c578063dc68a424146106ac578063ddd5e1b2146106dc578063e9e7eb35146106f8578063ecb6021c14610728578063f2fde38b1461074657610253565b8063c0f96004146105c2578063c55dae63146105de578063c66f4c0a146105fc578063d62a853a1461062d578063dabbcf071461065e57610253565b8063a98e5f3c1161010a578063a98e5f3c14610532578063aa90493a1461054e578063b0e134b11461056c578063bdd071fb1461058a578063bf5a62f0146105a657610253565b80638d07d936146104b05780638da5cb5b146104ba5780638f7ee417146104d857806397e881b4146104f4578063a87430ba146104fe57610253565b8063564566a8116101d45780636a28d6fd116101985780636a28d6fd14610432578063715018a6146104625780637d8966e41461046c578063818800611461047657806382048ce41461049457610253565b8063564566a8146103a05780635b1a540a146103be5780635f8f6235146103dc57806364c9ec6f146103f85780636a156fb11461041657610253565b80632986c0e51161021b5780632986c0e51461031057806330b2c5041461032e5780634becadb91461034a5780635404f2021461036657806355f804b31461038457610253565b80630266f812146102585780630714fe871461027657806320375ba61461029457806320c319ed146102c457806322e230f3146102e0575b600080fd5b610260610762565b60405161026d9190615a54565b60405180910390f35b61027e610768565b60405161028b9190615a54565b60405180910390f35b6102ae60048036038101906102a991906148b3565b61076e565b6040516102bb9190615a32565b60405180910390f35b6102de60048036038101906102d991906149b7565b6108f9565b005b6102fa60048036038101906102f59190614c28565b6113c8565b6040516103079190615a54565b60405180910390f35b610318611484565b6040516103259190615a54565b60405180910390f35b61034860048036038101906103439190614be8565b61148a565b005b610364600480360381019061035f9190614c68565b611533565b005b61036e611625565b60405161037b9190615a54565b60405180910390f35b61039e60048036038101906103999190614a2b565b61162b565b005b6103a8611750565b6040516103b591906155b8565b60405180910390f35b6103c6611763565b6040516103d391906155b8565b60405180910390f35b6103f660048036038101906103f19190614c68565b6117ce565b005b6104006118f2565b60405161040d9190615609565b60405180910390f35b610430600480360381019061042b9190614cff565b611918565b005b61044c60048036038101906104479190614af7565b611a0e565b60405161045991906155d3565b60405180910390f35b61046a611e7e565b005b610474611fd1565b005b61047e6120d8565b60405161048b9190615596565b60405180910390f35b6104ae60048036038101906104a991906148b3565b612172565b005b6104b861257a565b005b6104c261269e565b6040516104cf91906154d6565b60405180910390f35b6104f260048036038101906104ed9190614977565b6126c7565b005b6104fc612773565b005b61051860048036038101906105139190614859565b612812565b604051610529959493929190615b06565b60405180910390f35b61054c60048036038101906105479190614977565b612848565b005b610556612c64565b60405161056391906155b8565b60405180910390f35b610574612c87565b60405161058191906155b8565b60405180910390f35b6105a4600480360381019061059f9190614c28565b612cce565b005b6105c060048036038101906105bb91906148e0565b612e7b565b005b6105dc60048036038101906105d79190614cff565b613096565b005b6105e66131c9565b6040516105f391906155ee565b60405180910390f35b610616600480360381019061061191906148b3565b6131ef565b604051610624929190615a6f565b60405180910390f35b61064760048036038101906106429190614859565b613364565b604051610655929190615a98565b60405180910390f35b6106666134d8565b6040516106739190615a54565b60405180910390f35b61069660048036038101906106919190614b8e565b6134de565b6040516106a39190615b59565b60405180910390f35b6106c660048036038101906106c19190614a74565b613519565b6040516106d391906155d3565b60405180910390f35b6106f660048036038101906106f19190614be8565b6135cc565b005b610712600480360381019061070d9190614859565b61397c565b60405161071f9190615a54565b60405180910390f35b6107306139c5565b60405161073d9190615a54565b60405180910390f35b610760600480360381019061075b9190614859565b613a5d565b005b60085481565b60095481565b610776614553565b600e6000837bffffffffffffffffffffffffffffffffffffffffffffffffffffffff19167bffffffffffffffffffffffffffffffffffffffffffffffffffffffff191681526020019081526020016000206040518060c00160405290816000820160009054906101000a900460e01b7bffffffffffffffffffffffffffffffffffffffffffffffffffffffff19167bffffffffffffffffffffffffffffffffffffffffffffffffffffffff191681526020016000820160049054906101000a900460ff1615151515815260200160018201548152602001600282015481526020016003820180546108669061607a565b80601f01602080910402602001604051908101604052809291908181526020018280546108929061607a565b80156108df5780601f106108b4576101008083540402835291602001916108df565b820191906000526020600020905b8154815290600101906020018083116108c257829003601f168201915b505050505081526020016004820154815250509050919050565b600c60009054906101000a900460ff16610948576040517f08c379a000000000000000000000000000000000000000000000000000000000815260040161093f90615812565b60405180910390fd5b600083118015610959575060148311155b610998576040517f08c379a000000000000000000000000000000000000000000000000000000000815260040161098f90615752565b60405180910390fd5b6109a18461076e565b602001516109e4576040517f08c379a00000000000000000000000000000000000000000000000000000000081526004016109db906158f2565b60405180910390fd5b60006109ee613c9a565b9050600073ffffffffffffffffffffffffffffffffffffffff168173ffffffffffffffffffffffffffffffffffffffff161415610a60576040517f08c379a0000000000000000000000000000000000000000000000000000000008152600401610a5790615692565b60405180910390fd5b6000600e6000877bffffffffffffffffffffffffffffffffffffffffffffffffffffffff19167bffffffffffffffffffffffffffffffffffffffffffffffffffffffff191681526020019081526020016000206002015414610c185783600f6000877bffffffffffffffffffffffffffffffffffffffffffffffffffffffff19167bffffffffffffffffffffffffffffffffffffffffffffffffffffffff1916815260200190815260200160002054610b199190615c7d565b600e6000877bffffffffffffffffffffffffffffffffffffffffffffffffffffffff19167bffffffffffffffffffffffffffffffffffffffffffffffffffffffff19168152602001908152602001600020600201541015610baf576040517f08c379a0000000000000000000000000000000000000000000000000000000008152600401610ba6906156f2565b60405180910390fd5b83600f6000877bffffffffffffffffffffffffffffffffffffffffffffffffffffffff19167bffffffffffffffffffffffffffffffffffffffffffffffffffffffff191681526020019081526020016000206000828254610c109190615c7d565b925050819055505b600080610c24876131ef565b915091508015610efd5760006003600060015481526020019081526020016000206001015414158015610c6e57504260036000600154815260200190815260200160002060010154115b15610d4357600083604051602001610c86919061545a565b604051602081830303815290604052805190602001209050610d02868680806020026020016040519081016040528093929190818152602001838360200280828437600081840152601f19601f820116905080830192505050505050506003600060015481526020019081526020016000206003015483613ca2565b610d41576040517f08c379a0000000000000000000000000000000000000000000000000000000008152600401610d3890615912565b60405180910390fd5b505b6000610d4d6139c5565b90506000610dd0600260006001548152602001908152602001600020600084815260200190815260200160002060008b7bffffffffffffffffffffffffffffffffffffffffffffffffffffffff19167bffffffffffffffffffffffffffffffffffffffffffffffffffffffff191681526020019081526020016000205489613cb9565b61ffff16905060036000600154815260200190815260200160002060050160008a7bffffffffffffffffffffffffffffffffffffffffffffffffffffffff19167bffffffffffffffffffffffffffffffffffffffffffffffffffffffff1916815260200190815260200160002054811115610e80576040517f08c379a0000000000000000000000000000000000000000000000000000000008152600401610e77906159d2565b60405180910390fd5b80600260006001548152602001908152602001600020600084815260200190815260200160002060008b7bffffffffffffffffffffffffffffffffffffffffffffffffffffffff19167bffffffffffffffffffffffffffffffffffffffffffffffffffffffff191681526020019081526020016000208190555050505b8582610f099190615e75565b600560009054906101000a900473ffffffffffffffffffffffffffffffffffffffff1673ffffffffffffffffffffffffffffffffffffffff166370a08231856040518263ffffffff1660e01b8152600401610f6491906154d6565b60206040518083038186803b158015610f7c57600080fd5b505afa158015610f90573d6000803e3d6000fd5b505050506040513d601f19601f82011682018060405250810190610fb49190614bbb565b1015610ff5576040517f08c379a0000000000000000000000000000000000000000000000000000000008152600401610fec90615732565b60405180910390fd5b600086836110039190615e75565b9050600087600b54600e60008c7bffffffffffffffffffffffffffffffffffffffffffffffffffffffff19167bffffffffffffffffffffffffffffffffffffffffffffffffffffffff1916815260200190815260200160002060010154600e60008d7bffffffffffffffffffffffffffffffffffffffffffffffffffffffff19167bffffffffffffffffffffffffffffffffffffffffffffffffffffffff19168152602001908152602001600020600401546110bf9190615e75565b6110c99190615cd3565b6110d39190615e75565b905081600660008282546110e79190615c7d565b9250508190555080600760008282546111009190615c7d565b9250508190555081601360008773ffffffffffffffffffffffffffffffffffffffff1673ffffffffffffffffffffffffffffffffffffffff16815260200190815260200160002060000160008282546111599190615c7d565b9250508190555080601360008773ffffffffffffffffffffffffffffffffffffffff1673ffffffffffffffffffffffffffffffffffffffff16815260200190815260200160002060010160008282546111b29190615c7d565b92505081905550600a54600954836111ca9190615e75565b6111d49190615cd3565b601360008773ffffffffffffffffffffffffffffffffffffffff1673ffffffffffffffffffffffffffffffffffffffff16815260200190815260200160002060020181905550600a546008548261122b9190615e75565b6112359190615cd3565b601360008773ffffffffffffffffffffffffffffffffffffffff1673ffffffffffffffffffffffffffffffffffffffff16815260200190815260200160002060030181905550600e60008a7bffffffffffffffffffffffffffffffffffffffffffffffffffffffff19167bffffffffffffffffffffffffffffffffffffffffffffffffffffffff1916815260200190815260200160002060040154601360008773ffffffffffffffffffffffffffffffffffffffff1673ffffffffffffffffffffffffffffffffffffffff16815260200190815260200160002060040160008282546113219190615c7d565b92505081905550600460009054906101000a900473ffffffffffffffffffffffffffffffffffffffff1673ffffffffffffffffffffffffffffffffffffffff16639287e17c868b6012548c6040518563ffffffff1660e01b815260040161138b9493929190615528565b600060405180830381600087803b1580156113a557600080fd5b505af11580156113b9573d6000803e3d6000fd5b50505050505050505050505050565b6000808314156113db576000905061147e565b60006012905060006113ec856134de565b60ff1690506000828210156114245781836114079190615ecf565b856114129190615ecf565b8261141d9190615ecf565b9050611449565b8483836114319190615ecf565b61143b9190615c7d565b826114469190615ecf565b90505b80600a6114569190615d57565b81600a6114639190615d57565b8761146e9190615cd3565b6114789190615e75565b93505050505b92915050565b60125481565b600460009054906101000a900473ffffffffffffffffffffffffffffffffffffffff1673ffffffffffffffffffffffffffffffffffffffff166114cb613c9a565b73ffffffffffffffffffffffffffffffffffffffff16146114eb57600080fd5b81601060008373ffffffffffffffffffffffffffffffffffffffff1673ffffffffffffffffffffffffffffffffffffffff168152602001908152602001600020819055505050565b61153b613c9a565b73ffffffffffffffffffffffffffffffffffffffff1660008054906101000a900473ffffffffffffffffffffffffffffffffffffffff1673ffffffffffffffffffffffffffffffffffffffff16146115c8576040517f08c379a00000000000000000000000000000000000000000000000000000000081526004016115bf906158d2565b60405180910390fd5b6115dd85858585856115d86120d8565b613d17565b6001547fa9a6591c1360580311f20fb817026bb2390a593f2d4a39bc084dab4e93b4bd0886868660006040516116169493929190615ac1565b60405180910390a25050505050565b60065481565b611633613c9a565b73ffffffffffffffffffffffffffffffffffffffff1660008054906101000a900473ffffffffffffffffffffffffffffffffffffffff1673ffffffffffffffffffffffffffffffffffffffff16146116c0576040517f08c379a00000000000000000000000000000000000000000000000000000000081526004016116b7906158d2565b60405180910390fd5b600460009054906101000a900473ffffffffffffffffffffffffffffffffffffffff1673ffffffffffffffffffffffffffffffffffffffff166355f804b3826040518263ffffffff1660e01b815260040161171b9190615624565b600060405180830381600087803b15801561173557600080fd5b505af1158015611749573d6000803e3d6000fd5b5050505050565b600c60009054906101000a900460ff1681565b600061176d612c64565b156117c657600042905080600360006001548152602001908152602001600020600001541080156117b557508060036000600154815260200190815260200160002060020154115b156117c45760019150506117cb565b505b600090505b90565b6117d6613c9a565b73ffffffffffffffffffffffffffffffffffffffff1660008054906101000a900473ffffffffffffffffffffffffffffffffffffffff1673ffffffffffffffffffffffffffffffffffffffff1614611863576040517f08c379a000000000000000000000000000000000000000000000000000000000815260040161185a906158d2565b60405180910390fd5b600042905061189386826118779190615c7d565b86836118839190615c7d565b86868661188e6120d8565b613d17565b6001547fa9a6591c1360580311f20fb817026bb2390a593f2d4a39bc084dab4e93b4bd0887836118c39190615c7d565b87846118cf9190615c7d565b8760006040516118e29493929190615ac1565b60405180910390a2505050505050565b600460009054906101000a900473ffffffffffffffffffffffffffffffffffffffff1681565b611920613c9a565b73ffffffffffffffffffffffffffffffffffffffff1660008054906101000a900473ffffffffffffffffffffffffffffffffffffffff1673ffffffffffffffffffffffffffffffffffffffff16146119ad576040517f08c379a00000000000000000000000000000000000000000000000000000000081526004016119a4906158d2565b60405180910390fd5b6119c4878787878787876119bf6120d8565b61410c565b6001547fa9a6591c1360580311f20fb817026bb2390a593f2d4a39bc084dab4e93b4bd0888878660016040516119fd9493929190615ac1565b60405180910390a250505050505050565b6000611a18613c9a565b73ffffffffffffffffffffffffffffffffffffffff1660008054906101000a900473ffffffffffffffffffffffffffffffffffffffff1673ffffffffffffffffffffffffffffffffffffffff1614611aa5576040517f08c379a0000000000000000000000000000000000000000000000000000000008152600401611a9c906158d2565b60405180910390fd5b611aad612c64565b15611aed576040517f08c379a0000000000000000000000000000000000000000000000000000000008152600401611ae4906157d2565b60405180910390fd5b600d80549050600a11611b35576040517f08c379a0000000000000000000000000000000000000000000000000000000008152600401611b2c906156b2565b60405180910390fd5b600d80549050831115611b7d576040517f08c379a0000000000000000000000000000000000000000000000000000000008152600401611b74906158b2565b60405180910390fd5b600086864285604051602001611b96949392919061548c565b60405160208183030381529060405280519060200120905060006040518060c00160405280837bffffffffffffffffffffffffffffffffffffffffffffffffffffffff19168152602001600115158152602001888152602001878152602001898152602001858152509050600d6001816001815401808255809150500390600052602060002090600891828204019190066004029054906101000a90505060006001600d80549050611c489190615ecf565b90505b858110611d3e5785811415611ca45782600d8281548110611c6f57611c6e61626b565b5b90600052602060002090600891828204019190066004026101000a81548163ffffffff021916908360e01c0217905550611d3e565b600d600182611cb39190615ecf565b81548110611cc457611cc361626b565b5b90600052602060002090600891828204019190066004029054906101000a900460e01b600d8281548110611cfb57611cfa61626b565b5b90600052602060002090600891828204019190066004026101000a81548163ffffffff021916908360e01c02179055508080611d3690616050565b915050611c4b565b5080600e6000847bffffffffffffffffffffffffffffffffffffffffffffffffffffffff19167bffffffffffffffffffffffffffffffffffffffffffffffffffffffff1916815260200190815260200160002060008201518160000160006101000a81548163ffffffff021916908360e01c021790555060208201518160000160046101000a81548160ff02191690831515021790555060408201518160010155606082015181600201556080820151816003019080519060200190611e059291906145aa565b5060a08201518160040155905050817bffffffffffffffffffffffffffffffffffffffffffffffffffffffff19167fdaea932dcfec6084b0770111acda33cc55aa7d7f428c94a4d3ef6af4786a4f6989898988604051611e689493929190615646565b60405180910390a2819250505095945050505050565b611e86613c9a565b73ffffffffffffffffffffffffffffffffffffffff1660008054906101000a900473ffffffffffffffffffffffffffffffffffffffff1673ffffffffffffffffffffffffffffffffffffffff1614611f13576040517f08c379a0000000000000000000000000000000000000000000000000000000008152600401611f0a906158d2565b60405180910390fd5b600073ffffffffffffffffffffffffffffffffffffffff1660008054906101000a900473ffffffffffffffffffffffffffffffffffffffff1673ffffffffffffffffffffffffffffffffffffffff167f8be0079c531659141344cd1fd0a4f28419497f9722a3daafe3b4186f6b6457e060405160405180910390a360008060006101000a81548173ffffffffffffffffffffffffffffffffffffffff021916908373ffffffffffffffffffffffffffffffffffffffff160217905550565b611fd9613c9a565b73ffffffffffffffffffffffffffffffffffffffff1660008054906101000a900473ffffffffffffffffffffffffffffffffffffffff1673ffffffffffffffffffffffffffffffffffffffff1614612066576040517f08c379a000000000000000000000000000000000000000000000000000000000815260040161205d906158d2565b60405180910390fd5b600c60009054906101000a900460ff1615600c60006101000a81548160ff0219169083151502179055507f3a7704becd2600e61cc14e64588e9a21e4e8b78f5a2e230f016b830c2e764580600c60009054906101000a900460ff166040516120ce91906155b8565b60405180910390a1565b6060600d80548060200260200160405190810160405280929190818152602001828054801561216857602002820191906000526020600020906000905b82829054906101000a900460e01b7bffffffffffffffffffffffffffffffffffffffffffffffffffffffff1916815260200190600401906020826003010492830192600103820291508084116121155790505b5050505050905090565b61217a613c9a565b73ffffffffffffffffffffffffffffffffffffffff1660008054906101000a900473ffffffffffffffffffffffffffffffffffffffff1673ffffffffffffffffffffffffffffffffffffffff1614612207576040517f08c379a00000000000000000000000000000000000000000000000000000000081526004016121fe906158d2565b60405180910390fd5b61220f612c64565b1561224f576040517f08c379a0000000000000000000000000000000000000000000000000000000008152600401612246906159b2565b60405180910390fd5b60011515600e6000837bffffffffffffffffffffffffffffffffffffffffffffffffffffffff19167bffffffffffffffffffffffffffffffffffffffffffffffffffffffff1916815260200190815260200160002060000160049054906101000a900460ff161515146122f7576040517f08c379a00000000000000000000000000000000000000000000000000000000081526004016122ee906157f2565b60405180910390fd5b6000806000905060005b600d805490508110156123a957837bffffffffffffffffffffffffffffffffffffffffffffffffffffffff1916600d82815481106123425761234161626b565b5b90600052602060002090600891828204019190066004029054906101000a900460e01b7bffffffffffffffffffffffffffffffffffffffffffffffffffffffff1916141561239657809250600191506123a9565b80806123a1906160dd565b915050612301565b50806123b457600080fd5b60008290505b6001600d805490506123cc9190615ecf565b81101561246d57600d6001826123e29190615c7d565b815481106123f3576123f261626b565b5b90600052602060002090600891828204019190066004029054906101000a900460e01b600d828154811061242a5761242961626b565b5b90600052602060002090600891828204019190066004026101000a81548163ffffffff021916908360e01c02179055508080612465906160dd565b9150506123ba565b50600d8054806124805761247f61623c565b5b60019003818190600052602060002090600891828204019190066004026101000a81549063ffffffff021916905590556000600e6000857bffffffffffffffffffffffffffffffffffffffffffffffffffffffff19167bffffffffffffffffffffffffffffffffffffffffffffffffffffffff1916815260200190815260200160002060000160046101000a81548160ff021916908315150217905550827bffffffffffffffffffffffffffffffffffffffffffffffffffffffff19167fc20eaf21413e3e58f46c8b4d63a1a0371ee4eab16f070518b3f50c629008a226600060405161256d91906155b8565b60405180910390a2505050565b612582613c9a565b73ffffffffffffffffffffffffffffffffffffffff1660008054906101000a900473ffffffffffffffffffffffffffffffffffffffff1673ffffffffffffffffffffffffffffffffffffffff161461260f576040517f08c379a0000000000000000000000000000000000000000000000000000000008152600401612606906158d2565b60405180910390fd5b600460009054906101000a900473ffffffffffffffffffffffffffffffffffffffff1673ffffffffffffffffffffffffffffffffffffffff166308c5cf30306040518263ffffffff1660e01b815260040161266a91906154d6565b600060405180830381600087803b15801561268457600080fd5b505af1158015612698573d6000803e3d6000fd5b50505050565b60008060009054906101000a900473ffffffffffffffffffffffffffffffffffffffff16905090565b6126cf613c9a565b73ffffffffffffffffffffffffffffffffffffffff1660008054906101000a900473ffffffffffffffffffffffffffffffffffffffff1673ffffffffffffffffffffffffffffffffffffffff161461275c576040517f08c379a0000000000000000000000000000000000000000000000000000000008152600401612753906158d2565b60405180910390fd5b61276582612172565b61276f8282612848565b5050565b61277b613c9a565b73ffffffffffffffffffffffffffffffffffffffff1660008054906101000a900473ffffffffffffffffffffffffffffffffffffffff1673ffffffffffffffffffffffffffffffffffffffff1614612808576040517f08c379a00000000000000000000000000000000000000000000000000000000081526004016127ff906158d2565b60405180910390fd5b6128106141ba565b565b60136020528060005260406000206000915090508060000154908060010154908060020154908060030154908060040154905085565b612850613c9a565b73ffffffffffffffffffffffffffffffffffffffff1660008054906101000a900473ffffffffffffffffffffffffffffffffffffffff1673ffffffffffffffffffffffffffffffffffffffff16146128dd576040517f08c379a00000000000000000000000000000000000000000000000000000000081526004016128d4906158d2565b60405180910390fd5b6128e5612c64565b15612925576040517f08c379a000000000000000000000000000000000000000000000000000000000815260040161291c90615a12565b60405180910390fd5b600a600d805490501061296d576040517f08c379a0000000000000000000000000000000000000000000000000000000008152600401612964906156b2565b60405180910390fd5b600d805490508111156129b5576040517f08c379a00000000000000000000000000000000000000000000000000000000081526004016129ac906158b2565b60405180910390fd5b60001515600e6000847bffffffffffffffffffffffffffffffffffffffffffffffffffffffff19167bffffffffffffffffffffffffffffffffffffffffffffffffffffffff1916815260200190815260200160002060000160049054906101000a900460ff16151514612a5d576040517f08c379a0000000000000000000000000000000000000000000000000000000008152600401612a5490615932565b60405180910390fd5b600d6001816001815401808255809150500390600052602060002090600891828204019190066004029054906101000a90505060006001600d80549050612aa49190615ecf565b90505b818110612b9a5781811415612b005782600d8281548110612acb57612aca61626b565b5b90600052602060002090600891828204019190066004026101000a81548163ffffffff021916908360e01c0217905550612b9a565b600d600182612b0f9190615ecf565b81548110612b2057612b1f61626b565b5b90600052602060002090600891828204019190066004029054906101000a900460e01b600d8281548110612b5757612b5661626b565b5b90600052602060002090600891828204019190066004026101000a81548163ffffffff021916908360e01c02179055508080612b9290616050565b915050612aa7565b506001600e6000847bffffffffffffffffffffffffffffffffffffffffffffffffffffffff19167bffffffffffffffffffffffffffffffffffffffffffffffffffffffff1916815260200190815260200160002060000160046101000a81548160ff021916908315150217905550817bffffffffffffffffffffffffffffffffffffffffffffffffffffffff19167fc20eaf21413e3e58f46c8b4d63a1a0371ee4eab16f070518b3f50c629008a2266001604051612c5891906155b8565b60405180910390a25050565b600080600360006001548152602001908152602001600020600001541415905090565b6000612c91612c64565b612c9a57600080fd5b60006003600060015481526020019081526020016000206001015414612cc4576001905080612cca565b60009050805b5090565b600560009054906101000a900473ffffffffffffffffffffffffffffffffffffffff1673ffffffffffffffffffffffffffffffffffffffff166323b872dd612d14613c9a565b30856040518463ffffffff1660e01b8152600401612d34939291906154f1565b602060405180830381600087803b158015612d4e57600080fd5b505af1158015612d62573d6000803e3d6000fd5b505050506040513d601f19601f82011682018060405250810190612d869190614886565b50612dac600654600a5483612d9b9190615e75565b612da59190615cd3565b60056113c8565b60096000828254612dbd9190615c7d565b92505081905550612de9600754600a5484612dd89190615e75565b612de29190615cd3565b60056113c8565b60086000828254612dfa9190615c7d565b92505081905550612e26600654600a5483612e159190615e75565b612e1f9190615cd3565b60056113c8565b60126000828254612e379190615c7d565b925050819055507f84dce78a3b937f71cf704a18fc9037bebf11379d6abe88fa57dc5bc4d3912a8b8282604051612e6f929190615a98565b60405180910390a15050565b612e83613c9a565b73ffffffffffffffffffffffffffffffffffffffff1660008054906101000a900473ffffffffffffffffffffffffffffffffffffffff1673ffffffffffffffffffffffffffffffffffffffff1614612f10576040517f08c379a0000000000000000000000000000000000000000000000000000000008152600401612f07906158d2565b60405180910390fd5b6040518060c00160405280867bffffffffffffffffffffffffffffffffffffffffffffffffffffffff1916815260200160011515815260200184815260200183815260200185815260200182815250600e6000877bffffffffffffffffffffffffffffffffffffffffffffffffffffffff19167bffffffffffffffffffffffffffffffffffffffffffffffffffffffff1916815260200190815260200160002060008201518160000160006101000a81548163ffffffff021916908360e01c021790555060208201518160000160046101000a81548160ff021916908315150217905550604082015181600101556060820151816002015560808201518160030190805190602001906130249291906145aa565b5060a08201518160040155905050847bffffffffffffffffffffffffffffffffffffffffffffffffffffffff19167f0e0d9746306dd588e306d4abf4fff82ebc3629b10210a6826ffe468b4e6f1b3e858585856040516130879493929190615646565b60405180910390a25050505050565b61309e613c9a565b73ffffffffffffffffffffffffffffffffffffffff1660008054906101000a900473ffffffffffffffffffffffffffffffffffffffff1673ffffffffffffffffffffffffffffffffffffffff161461312b576040517f08c379a0000000000000000000000000000000000000000000000000000000008152600401613122906158d2565b60405180910390fd5b6000429050613168888261313f9190615c7d565b888361314b9190615c7d565b88846131579190615c7d565b888888886131636120d8565b61410c565b6001547fa9a6591c1360580311f20fb817026bb2390a593f2d4a39bc084dab4e93b4bd0889836131989190615c7d565b88846131a49190615c7d565b8760016040516131b79493929190615ac1565b60405180910390a25050505050505050565b600560009054906101000a900473ffffffffffffffffffffffffffffffffffffffff1681565b60008060006131fd8461076e565b60a00151905061320b611763565b1561335657600060036000600154815260200190815260200160002060040160029054906101000a90047dffffffffffffffffffffffffffffffffffffffffffffffffffffffffffff167dffffffffffffffffffffffffffffffffffffffffffffffffffffffffffff1660036000600154815260200190815260200160002060000154600360006001548152602001908152602001600020600201546132b19190615ecf565b6132bb9190615cd3565b90506000606460036000600154815260200190815260200160002060040160009054906101000a900461ffff1661ffff16846132f79190615e75565b6133019190615cd3565b8361330c9190615ecf565b9050600082828561331d9190615ecf565b6133279190615cd3565b90506133316139c5565b8161333c9190615e75565b826133479190615c7d565b6001955095505050505061335f565b80600092509250505b915091565b60008061341b601360008573ffffffffffffffffffffffffffffffffffffffff1673ffffffffffffffffffffffffffffffffffffffff16815260200190815260200160002060020154600a54600954601360008873ffffffffffffffffffffffffffffffffffffffff1673ffffffffffffffffffffffffffffffffffffffff168152602001908152602001600020600001546134009190615e75565b61340a9190615cd3565b6134149190615ecf565b60056113c8565b91506134d1601360008573ffffffffffffffffffffffffffffffffffffffff1673ffffffffffffffffffffffffffffffffffffffff16815260200190815260200160002060030154600a54600854601360008873ffffffffffffffffffffffffffffffffffffffff1673ffffffffffffffffffffffffffffffffffffffff168152602001908152602001600020600101546134b69190615e75565b6134c09190615cd3565b6134ca9190615ecf565b60056113c8565b9050915091565b60075481565b600080600090505b6000831461351057600a836134fb9190615cd3565b9250808061350890616126565b9150506134e6565b80915050919050565b6000613523613c9a565b73ffffffffffffffffffffffffffffffffffffffff1660008054906101000a900473ffffffffffffffffffffffffffffffffffffffff1673ffffffffffffffffffffffffffffffffffffffff16146135b0576040517f08c379a00000000000000000000000000000000000000000000000000000000081526004016135a7906158d2565b60405180910390fd5b6135c2858585600d8054905086611a0e565b9050949350505050565b6000806135d883613364565b915091506000821415806135ed575060008114155b6135f657600080fd5b60006136a0601360008673ffffffffffffffffffffffffffffffffffffffff1673ffffffffffffffffffffffffffffffffffffffff16815260200190815260200160002060000154600a54601360008873ffffffffffffffffffffffffffffffffffffffff1673ffffffffffffffffffffffffffffffffffffffff1681526020019081526020016000206001015461368e9190615e75565b6136989190615cd3565b6011546113c8565b905082601360008673ffffffffffffffffffffffffffffffffffffffff1673ffffffffffffffffffffffffffffffffffffffff16815260200190815260200160002060000160008282546136f49190615c7d565b9250508190555061371f600a54828561370d9190615e75565b6137179190615cd3565b6011546113c8565b601360008673ffffffffffffffffffffffffffffffffffffffff1673ffffffffffffffffffffffffffffffffffffffff16815260200190815260200160002060010160008282546137709190615c7d565b925050819055506137df600a54600954601360008873ffffffffffffffffffffffffffffffffffffffff1673ffffffffffffffffffffffffffffffffffffffff168152602001908152602001600020600001546137cd9190615e75565b6137d79190615cd3565b6011546113c8565b601360008673ffffffffffffffffffffffffffffffffffffffff1673ffffffffffffffffffffffffffffffffffffffff1681526020019081526020016000206002018190555061388d600a54600854601360008873ffffffffffffffffffffffffffffffffffffffff1673ffffffffffffffffffffffffffffffffffffffff1681526020019081526020016000206001015461387b9190615e75565b6138859190615cd3565b6011546113c8565b601360008673ffffffffffffffffffffffffffffffffffffffff1673ffffffffffffffffffffffffffffffffffffffff1681526020019081526020016000206003018190555082600660008282546138e59190615c7d565b92505081905550613910600a5482856138fe9190615e75565b6139089190615cd3565b6011546113c8565b600760008282546139219190615c7d565b925050819055506139758483600560009054906101000a900473ffffffffffffffffffffffffffffffffffffffff1673ffffffffffffffffffffffffffffffffffffffff166141d49092919063ffffffff16565b5050505050565b6000601060008373ffffffffffffffffffffffffffffffffffffffff1673ffffffffffffffffffffffffffffffffffffffff168152602001908152602001600020549050919050565b600060036000600154815260200190815260200160002060040160029054906101000a90047dffffffffffffffffffffffffffffffffffffffffffffffffffffffffffff167dffffffffffffffffffffffffffffffffffffffffffffffffffffffffffff166003600060015481526020019081526020016000206000015442613a4e9190615ecf565b613a589190615cd3565b905090565b613a65613c9a565b73ffffffffffffffffffffffffffffffffffffffff1660008054906101000a900473ffffffffffffffffffffffffffffffffffffffff1673ffffffffffffffffffffffffffffffffffffffff1614613af2576040517f08c379a0000000000000000000000000000000000000000000000000000000008152600401613ae9906158d2565b60405180910390fd5b600073ffffffffffffffffffffffffffffffffffffffff168173ffffffffffffffffffffffffffffffffffffffff161415613b62576040517f08c379a0000000000000000000000000000000000000000000000000000000008152600401613b5990615712565b60405180910390fd5b8073ffffffffffffffffffffffffffffffffffffffff1660008054906101000a900473ffffffffffffffffffffffffffffffffffffffff1673ffffffffffffffffffffffffffffffffffffffff167f8be0079c531659141344cd1fd0a4f28419497f9722a3daafe3b4186f6b6457e060405160405180910390a3806000806101000a81548173ffffffffffffffffffffffffffffffffffffffff021916908373ffffffffffffffffffffffffffffffffffffffff16021790555050565b600080831415613c325760009050613c94565b60008284613c409190615e75565b9050828482613c4f9190615cd3565b14613c8f576040517f08c379a0000000000000000000000000000000000000000000000000000000008152600401613c8690615892565b60405180910390fd5b809150505b92915050565b600033905090565b600082613caf858461425a565b1490509392505050565b6000808284613cc89190615c7d565b905083811015613d0d576040517f08c379a0000000000000000000000000000000000000000000000000000000008152600401613d0490615772565b60405180910390fd5b8091505092915050565b600042905080871015613d5f576040517f08c379a0000000000000000000000000000000000000000000000000000000008152600401613d5690615832565b60405180910390fd5b868611613da1576040517f08c379a0000000000000000000000000000000000000000000000000000000008152600401613d9890615852565b60405180910390fd5b8686613dad9190615ecf565b847dffffffffffffffffffffffffffffffffffffffffffffffffffffffffffff1610613e0e576040517f08c379a0000000000000000000000000000000000000000000000000000000008152600401613e05906156d2565b60405180910390fd5b6000847dffffffffffffffffffffffffffffffffffffffffffffffffffffffffffff168888613e3d9190615ecf565b613e47919061617e565b14613e87576040517f08c379a0000000000000000000000000000000000000000000000000000000008152600401613e7e90615792565b60405180910390fd5b60648561ffff1611158015613ea0575060008561ffff16115b613edf576040517f08c379a0000000000000000000000000000000000000000000000000000000008152600401613ed690615952565b60405180910390fd5b613ee7612c64565b15613f27576040517f08c379a0000000000000000000000000000000000000000000000000000000008152600401613f1e90615872565b60405180910390fd5b8251825114613f6b576040517f08c379a0000000000000000000000000000000000000000000000000000000008152600401613f6290615972565b60405180910390fd5b866003600060015481526020019081526020016000206000018190555085600360006001548152602001908152602001600020600201819055508460036000600154815260200190815260200160002060040160006101000a81548161ffff021916908361ffff1602179055508360036000600154815260200190815260200160002060040160026101000a8154817dffffffffffffffffffffffffffffffffffffffffffffffffffffffffffff02191690837dffffffffffffffffffffffffffffffffffffffffffffffffffffffffffff16021790555060005b8251811015614102578381815181106140625761406161626b565b5b602002602001015160036000600154815260200190815260200160002060050160008584815181106140975761409661626b565b5b60200260200101517bffffffffffffffffffffffffffffffffffffffffffffffffffffffff19167bffffffffffffffffffffffffffffffffffffffffffffffffffffffff191681526020019081526020016000208190555080806140fa906160dd565b915050614046565b5050505050505050565b87871161411857600080fd5b8587111561412557600080fd5b6000837dffffffffffffffffffffffffffffffffffffffffffffffffffffffffffff1689896141549190615ecf565b61415e919061617e565b1461416857600080fd5b614176888786868686613d17565b866003600060015481526020019081526020016000206001018190555084600360006001548152602001908152602001600020600301819055505050505050505050565b600160008154809291906141cd906160dd565b9190505550565b6142558363a9059cbb60e01b84846040516024016141f392919061556d565b604051602081830303815290604052907bffffffffffffffffffffffffffffffffffffffffffffffffffffffff19166020820180517bffffffffffffffffffffffffffffffffffffffffffffffffffffffff83818316178352505050506142cf565b505050565b60008082905060005b84518110156142c45760008582815181106142815761428061626b565b5b602002602001015190508083116142a35761429c8382614396565b92506142b0565b6142ad8184614396565b92505b5080806142bc906160dd565b915050614263565b508091505092915050565b6000614331826040518060400160405280602081526020017f5361666545524332303a206c6f772d6c6576656c2063616c6c206661696c65648152508573ffffffffffffffffffffffffffffffffffffffff166143ad9092919063ffffffff16565b905060008151111561439157808060200190518101906143519190614886565b614390576040517f08c379a0000000000000000000000000000000000000000000000000000000008152600401614387906159f2565b60405180910390fd5b5b505050565b600082600052816020526040600020905092915050565b60606143bc84846000856143c5565b90509392505050565b60608247101561440a576040517f08c379a0000000000000000000000000000000000000000000000000000000008152600401614401906157b2565b60405180910390fd5b614413856144d9565b614452576040517f08c379a000000000000000000000000000000000000000000000000000000000815260040161444990615992565b60405180910390fd5b6000808673ffffffffffffffffffffffffffffffffffffffff16858760405161447b9190615475565b60006040518083038185875af1925050503d80600081146144b8576040519150601f19603f3d011682016040523d82523d6000602084013e6144bd565b606091505b50915091506144cd8282866144ec565b92505050949350505050565b600080823b905060008111915050919050565b606083156144fc5782905061454c565b60008351111561450f5782518084602001fd5b816040517f08c379a00000000000000000000000000000000000000000000000000000000081526004016145439190615624565b60405180910390fd5b9392505050565b6040518060c0016040528060007bffffffffffffffffffffffffffffffffffffffffffffffffffffffff19168152602001600015158152602001600081526020016000815260200160608152602001600081525090565b8280546145b69061607a565b90600052602060002090601f0160209004810192826145d8576000855561461f565b82601f106145f157805160ff191683800117855561461f565b8280016001018555821561461f579182015b8281111561461e578251825591602001919060010190614603565b5b50905061462c9190614630565b5090565b5b80821115614649576000816000905550600101614631565b5090565b600061466061465b84615b99565b615b74565b90508083825260208201905082856020860282011115614683576146826162d3565b5b60005b858110156146b35781614699888261482f565b845260208401935060208301925050600181019050614686565b5050509392505050565b60006146d06146cb84615bc5565b615b74565b9050828152602081018484840111156146ec576146eb6162d8565b5b6146f784828561600e565b509392505050565b60008135905061470e81616c77565b92915050565b60008083601f84011261472a576147296162ce565b5b8235905067ffffffffffffffff811115614747576147466162c9565b5b602083019150836020820283011115614763576147626162d3565b5b9250929050565b600082601f83011261477f5761477e6162ce565b5b813561478f84826020860161464d565b91505092915050565b6000815190506147a781616c8e565b92915050565b6000813590506147bc81616ca5565b92915050565b6000813590506147d181616cbc565b92915050565b600082601f8301126147ec576147eb6162ce565b5b81356147fc8482602086016146bd565b91505092915050565b60008135905061481481616cd3565b92915050565b60008135905061482981616cea565b92915050565b60008135905061483e81616d01565b92915050565b60008151905061485381616d01565b92915050565b60006020828403121561486f5761486e6162e2565b5b600061487d848285016146ff565b91505092915050565b60006020828403121561489c5761489b6162e2565b5b60006148aa84828501614798565b91505092915050565b6000602082840312156148c9576148c86162e2565b5b60006148d7848285016147c2565b91505092915050565b600080600080600060a086880312156148fc576148fb6162e2565b5b600061490a888289016147c2565b955050602086013567ffffffffffffffff81111561492b5761492a6162dd565b5b614937888289016147d7565b94505060406149488882890161482f565b93505060606149598882890161482f565b925050608061496a8882890161482f565b9150509295509295909350565b6000806040838503121561498e5761498d6162e2565b5b600061499c858286016147c2565b92505060206149ad8582860161482f565b9150509250929050565b600080600080606085870312156149d1576149d06162e2565b5b60006149df878288016147c2565b94505060206149f08782880161482f565b935050604085013567ffffffffffffffff811115614a1157614a106162dd565b5b614a1d87828801614714565b925092505092959194509250565b600060208284031215614a4157614a406162e2565b5b600082013567ffffffffffffffff811115614a5f57614a5e6162dd565b5b614a6b848285016147d7565b91505092915050565b60008060008060808587031215614a8e57614a8d6162e2565b5b600085013567ffffffffffffffff811115614aac57614aab6162dd565b5b614ab8878288016147d7565b9450506020614ac98782880161482f565b9350506040614ada8782880161482f565b9250506060614aeb8782880161482f565b91505092959194509250565b600080600080600060a08688031215614b1357614b126162e2565b5b600086013567ffffffffffffffff811115614b3157614b306162dd565b5b614b3d888289016147d7565b9550506020614b4e8882890161482f565b9450506040614b5f8882890161482f565b9350506060614b708882890161482f565b9250506080614b818882890161482f565b9150509295509295909350565b600060208284031215614ba457614ba36162e2565b5b6000614bb28482850161482f565b91505092915050565b600060208284031215614bd157614bd06162e2565b5b6000614bdf84828501614844565b91505092915050565b60008060408385031215614bff57614bfe6162e2565b5b6000614c0d8582860161482f565b9250506020614c1e858286016146ff565b9150509250929050565b60008060408385031215614c3f57614c3e6162e2565b5b6000614c4d8582860161482f565b9250506020614c5e8582860161482f565b9150509250929050565b600080600080600060a08688031215614c8457614c836162e2565b5b6000614c928882890161482f565b9550506020614ca38882890161482f565b9450506040614cb488828901614805565b9350506060614cc58882890161481a565b925050608086013567ffffffffffffffff811115614ce657614ce56162dd565b5b614cf28882890161476a565b9150509295509295909350565b600080600080600080600060e0888a031215614d1e57614d1d6162e2565b5b6000614d2c8a828b0161482f565b9750506020614d3d8a828b0161482f565b9650506040614d4e8a828b0161482f565b9550506060614d5f8a828b016147ad565b9450506080614d708a828b01614805565b93505060a0614d818a828b0161481a565b92505060c088013567ffffffffffffffff811115614da257614da16162dd565b5b614dae8a828b0161476a565b91505092959891949750929550565b6000614dc98383614e77565b60208301905092915050565b614dde81615f03565b82525050565b614df5614df082615f03565b616150565b82525050565b6000614e0682615c06565b614e108185615c34565b9350614e1b83615bf6565b8060005b83811015614e4c578151614e338882614dbd565b9750614e3e83615c27565b925050600181019050614e1f565b5085935050505092915050565b614e6281615f15565b82525050565b614e7181615f15565b82525050565b614e8081615f2b565b82525050565b614e8f81615f2b565b82525050565b6000614ea082615c11565b614eaa8185615c45565b9350614eba81856020860161601d565b80840191505092915050565b614ecf81615fc6565b82525050565b614ede81615fd8565b82525050565b6000614eef82615c1c565b614ef98185615c50565b9350614f0981856020860161601d565b614f12816162e7565b840191505092915050565b6000614f2882615c1c565b614f328185615c61565b9350614f4281856020860161601d565b614f4b816162e7565b840191505092915050565b6000614f6182615c1c565b614f6b8185615c72565b9350614f7b81856020860161601d565b80840191505092915050565b6000614f94603983615c61565b9150614f9f82616312565b604082019050919050565b6000614fb7605a83615c61565b9150614fc282616361565b606082019050919050565b6000614fda604583615c61565b9150614fe5826163d6565b606082019050919050565b6000614ffd603283615c61565b91506150088261644b565b604082019050919050565b6000615020602683615c61565b915061502b8261649a565b604082019050919050565b6000615043603583615c61565b915061504e826164e9565b604082019050919050565b6000615066602583615c61565b915061507182616538565b604082019050919050565b6000615089601b83615c61565b915061509482616587565b602082019050919050565b60006150ac604f83615c61565b91506150b7826165b0565b606082019050919050565b60006150cf602683615c61565b91506150da82616625565b604082019050919050565b60006150f2603583615c61565b91506150fd82616674565b604082019050919050565b6000615115602883615c61565b9150615120826166c3565b604082019050919050565b6000615138602483615c61565b915061514382616712565b604082019050919050565b600061515b604483615c61565b915061516682616761565b606082019050919050565b600061517e604283615c61565b9150615189826167d6565b606082019050919050565b60006151a1603783615c61565b91506151ac8261684b565b604082019050919050565b60006151c4602183615c61565b91506151cf8261689a565b604082019050919050565b60006151e7602283615c61565b91506151f2826168e9565b604082019050919050565b600061520a602083615c61565b915061521582616938565b602082019050919050565b600061522d602583615c61565b915061523882616961565b604082019050919050565b6000615250602683615c61565b915061525b826169b0565b604082019050919050565b6000615273602683615c61565b915061527e826169ff565b604082019050919050565b6000615296603683615c61565b91506152a182616a4e565b604082019050919050565b60006152b9603a83615c61565b91506152c482616a9d565b604082019050919050565b60006152dc601d83615c61565b91506152e782616aec565b602082019050919050565b60006152ff603c83615c61565b915061530a82616b15565b604082019050919050565b6000615322604483615c61565b915061532d82616b64565b606082019050919050565b6000615345602a83615c61565b915061535082616bd9565b604082019050919050565b6000615368603a83615c61565b915061537382616c28565b604082019050919050565b600060c0830160008301516153966000860182614e77565b5060208301516153a96020860182614e59565b5060408301516153bc6040860182615416565b5060608301516153cf6060860182615416565b50608083015184820360808601526153e78282614ee4565b91505060a08301516153fc60a0860182615416565b508091505092915050565b61541081615f57565b82525050565b61541f81615faf565b82525050565b61542e81615faf565b82525050565b61544561544082615faf565b616174565b82525050565b61545481615fb9565b82525050565b60006154668284614de4565b60148201915081905092915050565b60006154818284614e95565b915081905092915050565b60006154988287614f56565b91506154a48286615434565b6020820191506154b48285615434565b6020820191506154c48284615434565b60208201915081905095945050505050565b60006020820190506154eb6000830184614dd5565b92915050565b60006060820190506155066000830186614dd5565b6155136020830185614dd5565b6155206040830184615425565b949350505050565b600060808201905061553d6000830187614dd5565b61554a6020830186614e86565b6155576040830185615425565b6155646060830184615425565b95945050505050565b60006040820190506155826000830185614dd5565b61558f6020830184615425565b9392505050565b600060208201905081810360008301526155b08184614dfb565b905092915050565b60006020820190506155cd6000830184614e68565b92915050565b60006020820190506155e86000830184614e86565b92915050565b60006020820190506156036000830184614ec6565b92915050565b600060208201905061561e6000830184614ed5565b92915050565b6000602082019050818103600083015261563e8184614f1d565b905092915050565b600060808201905081810360008301526156608187614f1d565b905061566f6020830186615425565b61567c6040830185615425565b6156896060830184615425565b95945050505050565b600060208201905081810360008301526156ab81614f87565b9050919050565b600060208201905081810360008301526156cb81614faa565b9050919050565b600060208201905081810360008301526156eb81614fcd565b9050919050565b6000602082019050818103600083015261570b81614ff0565b9050919050565b6000602082019050818103600083015261572b81615013565b9050919050565b6000602082019050818103600083015261574b81615036565b9050919050565b6000602082019050818103600083015261576b81615059565b9050919050565b6000602082019050818103600083015261578b8161507c565b9050919050565b600060208201905081810360008301526157ab8161509f565b9050919050565b600060208201905081810360008301526157cb816150c2565b9050919050565b600060208201905081810360008301526157eb816150e5565b9050919050565b6000602082019050818103600083015261580b81615108565b9050919050565b6000602082019050818103600083015261582b8161512b565b9050919050565b6000602082019050818103600083015261584b8161514e565b9050919050565b6000602082019050818103600083015261586b81615171565b9050919050565b6000602082019050818103600083015261588b81615194565b9050919050565b600060208201905081810360008301526158ab816151b7565b9050919050565b600060208201905081810360008301526158cb816151da565b9050919050565b600060208201905081810360008301526158eb816151fd565b9050919050565b6000602082019050818103600083015261590b81615220565b9050919050565b6000602082019050818103600083015261592b81615243565b9050919050565b6000602082019050818103600083015261594b81615266565b9050919050565b6000602082019050818103600083015261596b81615289565b9050919050565b6000602082019050818103600083015261598b816152ac565b9050919050565b600060208201905081810360008301526159ab816152cf565b9050919050565b600060208201905081810360008301526159cb816152f2565b9050919050565b600060208201905081810360008301526159eb81615315565b9050919050565b60006020820190508181036000830152615a0b81615338565b9050919050565b60006020820190508181036000830152615a2b8161535b565b9050919050565b60006020820190508181036000830152615a4c818461537e565b905092915050565b6000602082019050615a696000830184615425565b92915050565b6000604082019050615a846000830185615425565b615a916020830184614e68565b9392505050565b6000604082019050615aad6000830185615425565b615aba6020830184615425565b9392505050565b6000608082019050615ad66000830187615425565b615ae36020830186615425565b615af06040830185615407565b615afd6060830184614e68565b95945050505050565b600060a082019050615b1b6000830188615425565b615b286020830187615425565b615b356040830186615425565b615b426060830185615425565b615b4f6080830184615425565b9695505050505050565b6000602082019050615b6e600083018461544b565b92915050565b6000615b7e615b8f565b9050615b8a82826160ac565b919050565b6000604051905090565b600067ffffffffffffffff821115615bb457615bb361629a565b5b602082029050602081019050919050565b600067ffffffffffffffff821115615be057615bdf61629a565b5b615be9826162e7565b9050602081019050919050565b6000819050602082019050919050565b600081519050919050565b600081519050919050565b600081519050919050565b6000602082019050919050565b600082825260208201905092915050565b600081905092915050565b600082825260208201905092915050565b600082825260208201905092915050565b600081905092915050565b6000615c8882615faf565b9150615c9383615faf565b9250827fffffffffffffffffffffffffffffffffffffffffffffffffffffffffffffffff03821115615cc857615cc76161af565b5b828201905092915050565b6000615cde82615faf565b9150615ce983615faf565b925082615cf957615cf86161de565b5b828204905092915050565b6000808291508390505b6001851115615d4e57808604811115615d2a57615d296161af565b5b6001851615615d395780820291505b8081029050615d4785616305565b9450615d0e565b94509492505050565b6000615d6282615faf565b9150615d6d83615faf565b9250615d9a7fffffffffffffffffffffffffffffffffffffffffffffffffffffffffffffffff8484615da2565b905092915050565b600082615db25760019050615e6e565b81615dc05760009050615e6e565b8160018114615dd65760028114615de057615e0f565b6001915050615e6e565b60ff841115615df257615df16161af565b5b8360020a915084821115615e0957615e086161af565b5b50615e6e565b5060208310610133831016604e8410600b8410161715615e445782820a905083811115615e3f57615e3e6161af565b5b615e6e565b615e518484846001615d04565b92509050818404811115615e6857615e676161af565b5b81810290505b9392505050565b6000615e8082615faf565b9150615e8b83615faf565b9250817fffffffffffffffffffffffffffffffffffffffffffffffffffffffffffffffff0483118215151615615ec457615ec36161af565b5b828202905092915050565b6000615eda82615faf565b9150615ee583615faf565b925082821015615ef857615ef76161af565b5b828203905092915050565b6000615f0e82615f65565b9050919050565b60008115159050919050565b6000819050919050565b60007fffffffff0000000000000000000000000000000000000000000000000000000082169050919050565b600061ffff82169050919050565b600073ffffffffffffffffffffffffffffffffffffffff82169050919050565b60007dffffffffffffffffffffffffffffffffffffffffffffffffffffffffffff82169050919050565b6000819050919050565b600060ff82169050919050565b6000615fd182615fea565b9050919050565b6000615fe382615fea565b9050919050565b6000615ff582615ffc565b9050919050565b600061600782615f65565b9050919050565b82818337600083830152505050565b60005b8381101561603b578082015181840152602081019050616020565b8381111561604a576000848401525b50505050565b600061605b82615faf565b9150600082141561606f5761606e6161af565b5b600182039050919050565b6000600282049050600182168061609257607f821691505b602082108114156160a6576160a561620d565b5b50919050565b6160b5826162e7565b810181811067ffffffffffffffff821117156160d4576160d361629a565b5b80604052505050565b60006160e882615faf565b91507fffffffffffffffffffffffffffffffffffffffffffffffffffffffffffffffff82141561611b5761611a6161af565b5b600182019050919050565b600061613182615fb9565b915060ff821415616145576161446161af565b5b600182019050919050565b600061615b82616162565b9050919050565b600061616d826162f8565b9050919050565b6000819050919050565b600061618982615faf565b915061619483615faf565b9250826161a4576161a36161de565b5b828206905092915050565b7f4e487b7100000000000000000000000000000000000000000000000000000000600052601160045260246000fd5b7f4e487b7100000000000000000000000000000000000000000000000000000000600052601260045260246000fd5b7f4e487b7100000000000000000000000000000000000000000000000000000000600052602260045260246000fd5b7f4e487b7100000000000000000000000000000000000000000000000000000000600052603160045260246000fd5b7f4e487b7100000000000000000000000000000000000000000000000000000000600052603260045260246000fd5b7f4e487b7100000000000000000000000000000000000000000000000000000000600052604160045260246000fd5b600080fd5b600080fd5b600080fd5b600080fd5b600080fd5b600080fd5b6000601f19601f8301169050919050565b60008160601b9050919050565b60008160011c9050919050565b7f426f6e64204d616e616765723a204372656174696f6e20746f20746865207a6560008201527f726f20616464726573732069732070726f686962697465642e00000000000000602082015250565b7f426f6e64204d616e616765723a20457863656564696e6720746865206d61786960008201527f6d756d20616d6f756e74206f6620426f6e64206c6576656c732e20547279206460208201527f6561637469766174696e672061206c6576656c2066697273742e000000000000604082015250565b7f426f6e6420446973636f756e7461626c653a205570646174652066726571756560008201527f6e6379206d757374206265203c207468616e20646973636f756e74206475726160208201527f74696f6e2e000000000000000000000000000000000000000000000000000000604082015250565b7f426f6e64204d616e616765723a20457863656564696e6720426f6e64206c657660008201527f656c206d6178696d756d20737570706c792e0000000000000000000000000000602082015250565b7f4f776e61626c653a206e6577206f776e657220697320746865207a65726f206160008201527f6464726573730000000000000000000000000000000000000000000000000000602082015250565b7f426f6e64204d616e616765723a20596f75722062616c616e63652063616e277460008201527f20636f76657220746865206d696e7420636f73742e0000000000000000000000602082015250565b7f426f6e64204d616e616765723a20496e76616c696420616d6f756e7420746f2060008201527f6d696e742e000000000000000000000000000000000000000000000000000000602082015250565b7f536166654d6174683a206164646974696f6e206f766572666c6f770000000000600082015250565b7f426f6e6420446973636f756e7461626c653a20446973636f756e74206475726160008201527f74696f6e206d75737420626520646976697369626c652062792074686520757060208201527f64617465206672657175656e63792e0000000000000000000000000000000000604082015250565b7f416464726573733a20696e73756666696369656e742062616c616e636520666f60008201527f722063616c6c0000000000000000000000000000000000000000000000000000602082015250565b7f426f6e64204d616e616765723a2043616e27742061646420626f6e64206c657660008201527f656c20647572696e67206120646973636f756e742e0000000000000000000000602082015250565b7f426f6e64204d616e616765723a204c6576656c20697320616c7265616479206960008201527f6e6163746976652e000000000000000000000000000000000000000000000000602082015250565b7f426f6e64204d616e616765723a20426f6e642073616c6520697320696e61637460008201527f6976652e00000000000000000000000000000000000000000000000000000000602082015250565b7f426f6e6420446973636f756e7461626c653a2053746172742074696d6573746160008201527f6d70206d757374206265203e207468616e2063757272656e742074696d65737460208201527f616d702e00000000000000000000000000000000000000000000000000000000604082015250565b7f426f6e6420446973636f756e7461626c653a20456e642074696d657374616d7060008201527f206d757374206265203e207468616e2063757272656e742074696d657374616d60208201527f702e000000000000000000000000000000000000000000000000000000000000604082015250565b7f426f6e6420446973636f756e7461626c653a20546865726520697320616c726560008201527f616479206120706c616e6e656420646973636f756e742e000000000000000000602082015250565b7f536166654d6174683a206d756c7469706c69636174696f6e206f766572666c6f60008201527f7700000000000000000000000000000000000000000000000000000000000000602082015250565b7f426f6e64204d616e616765723a20496e646578206f7574206f6620626f756e6460008201527f732e000000000000000000000000000000000000000000000000000000000000602082015250565b7f4f776e61626c653a2063616c6c6572206973206e6f7420746865206f776e6572600082015250565b7f426f6e64204d616e616765723a20426f6e64206c6576656c20697320696e616360008201527f746976652e000000000000000000000000000000000000000000000000000000602082015250565b7f426f6e64204d616e616765723a20596f7520617265206e6f742077686974656c60008201527f69737465642e0000000000000000000000000000000000000000000000000000602082015250565b7f426f6e64204d616e616765723a204c6576656c20697320616c7265616479206160008201527f63746976652e0000000000000000000000000000000000000000000000000000602082015250565b7f426f6e6420446973636f756e7461626c653a20446973636f756e74207261746560008201527f206d75737420626520612070657263656e746167652e00000000000000000000602082015250565b7f426f6e6420446973636f756e7461626c653a20496e76616c696420616d6f756e60008201527f74206f6620706172616d20617272617920656c656d656e74732e000000000000602082015250565b7f416464726573733a2063616c6c20746f206e6f6e2d636f6e7472616374000000600082015250565b7f426f6e64204d616e616765723a2043616e27742064656163746976617465206260008201527f6f6e64206c6576656c20647572696e67206120646973636f756e742e00000000602082015250565b7f426f6e64204d616e616765723a20546f6f206d616e7920626f6e6473206d696e60008201527f74656420647572696e672074686973207072696365207570646174652070657260208201527f696f642e00000000000000000000000000000000000000000000000000000000604082015250565b7f5361666545524332303a204552433230206f7065726174696f6e20646964206e60008201527f6f74207375636365656400000000000000000000000000000000000000000000602082015250565b7f426f6e64204d616e616765723a2043616e277420616374697661746520626f6e60008201527f64206c6576656c20647572696e67206120646973636f756e742e000000000000602082015250565b616c8081615f03565b8114616c8b57600080fd5b50565b616c9781615f15565b8114616ca257600080fd5b50565b616cae81615f21565b8114616cb957600080fd5b50565b616cc581615f2b565b8114616cd057600080fd5b50565b616cdc81615f57565b8114616ce757600080fd5b50565b616cf381615f85565b8114616cfe57600080fd5b50565b616d0a81615faf565b8114616d1557600080fd5b5056fea2646970667358221220f2eb9d6cc7847fa36a509b342d9caa4792cb4769058f74a743678d00a865418d64736f6c63430008070033",
			"opcodes": "PUSH1 0x80 PUSH1 0x40 MSTORE PUSH1 0x0 PUSH1 0x1 SSTORE PUSH1 0x0 PUSH1 0x8 SSTORE PUSH1 0x0 PUSH1 0x9 SSTORE PUSH8 0xDE0B6B3A7640000 PUSH1 0xA SSTORE PUSH1 0x64 PUSH1 0xB SSTORE PUSH1 0x1 PUSH1 0xC PUSH1 0x0 PUSH2 0x100 EXP DUP2 SLOAD DUP2 PUSH1 0xFF MUL NOT AND SWAP1 DUP4 ISZERO ISZERO MUL OR SWAP1 SSTORE POP PUSH1 0x5 PUSH1 0x11 SSTORE PUSH8 0xDE0B6B3A7640000 PUSH1 0x12 SSTORE CALLVALUE DUP1 ISZERO PUSH3 0x5D JUMPI PUSH1 0x0 DUP1 REVERT JUMPDEST POP PUSH1 0x40 MLOAD PUSH3 0x7EAC CODESIZE SUB DUP1 PUSH3 0x7EAC DUP4 CODECOPY DUP2 DUP2 ADD PUSH1 0x40 MSTORE DUP2 ADD SWAP1 PUSH3 0x83 SWAP2 SWAP1 PUSH3 0x9FB JUMP JUMPDEST PUSH1 0x0 PUSH3 0x95 PUSH3 0x3E0 PUSH1 0x20 SHL PUSH1 0x20 SHR JUMP JUMPDEST SWAP1 POP DUP1 PUSH1 0x0 DUP1 PUSH2 0x100 EXP DUP2 SLOAD DUP2 PUSH20 0xFFFFFFFFFFFFFFFFFFFFFFFFFFFFFFFFFFFFFFFF MUL NOT AND SWAP1 DUP4 PUSH20 0xFFFFFFFFFFFFFFFFFFFFFFFFFFFFFFFFFFFFFFFF AND MUL OR SWAP1 SSTORE POP DUP1 PUSH20 0xFFFFFFFFFFFFFFFFFFFFFFFFFFFFFFFFFFFFFFFF AND PUSH1 0x0 PUSH20 0xFFFFFFFFFFFFFFFFFFFFFFFFFFFFFFFFFFFFFFFF AND PUSH32 0x8BE0079C531659141344CD1FD0A4F28419497F9722A3DAAFE3B4186F6B6457E0 PUSH1 0x40 MLOAD PUSH1 0x40 MLOAD DUP1 SWAP2 SUB SWAP1 LOG3 POP PUSH1 0x0 PUSH20 0xFFFFFFFFFFFFFFFFFFFFFFFFFFFFFFFFFFFFFFFF AND DUP3 PUSH20 0xFFFFFFFFFFFFFFFFFFFFFFFFFFFFFFFFFFFFFFFF AND EQ ISZERO PUSH3 0x16E JUMPI PUSH1 0x0 DUP1 REVERT JUMPDEST PUSH1 0x0 PUSH20 0xFFFFFFFFFFFFFFFFFFFFFFFFFFFFFFFFFFFFFFFF AND DUP2 PUSH20 0xFFFFFFFFFFFFFFFFFFFFFFFFFFFFFFFFFFFFFFFF AND EQ ISZERO PUSH3 0x1A9 JUMPI PUSH1 0x0 DUP1 REVERT JUMPDEST DUP2 PUSH1 0x4 PUSH1 0x0 PUSH2 0x100 EXP DUP2 SLOAD DUP2 PUSH20 0xFFFFFFFFFFFFFFFFFFFFFFFFFFFFFFFFFFFFFFFF MUL NOT AND SWAP1 DUP4 PUSH20 0xFFFFFFFFFFFFFFFFFFFFFFFFFFFFFFFFFFFFFFFF AND MUL OR SWAP1 SSTORE POP DUP1 PUSH1 0x5 PUSH1 0x0 PUSH2 0x100 EXP DUP2 SLOAD DUP2 PUSH20 0xFFFFFFFFFFFFFFFFFFFFFFFFFFFFFFFFFFFFFFFF MUL NOT AND SWAP1 DUP4 PUSH20 0xFFFFFFFFFFFFFFFFFFFFFFFFFFFFFFFFFFFFFFFF AND MUL OR SWAP1 SSTORE POP PUSH3 0x294 PUSH1 0x40 MLOAD DUP1 PUSH1 0x40 ADD PUSH1 0x40 MSTORE DUP1 PUSH1 0x7 DUP2 MSTORE PUSH1 0x20 ADD PUSH32 0x4C6576656C204900000000000000000000000000000000000000000000000000 DUP2 MSTORE POP PUSH1 0x64 PUSH1 0x0 PUSH1 0xD DUP1 SLOAD SWAP1 POP PUSH3 0x288 PUSH1 0xA DUP1 SLOAD PUSH3 0x3E8 PUSH1 0x20 SHL PUSH3 0x3C1F OR PUSH1 0x20 SHR JUMP JUMPDEST PUSH3 0x46C PUSH1 0x20 SHL PUSH1 0x20 SHR JUMP JUMPDEST POP PUSH3 0x2FF PUSH1 0x40 MLOAD DUP1 PUSH1 0x40 ADD PUSH1 0x40 MSTORE DUP1 PUSH1 0x8 DUP2 MSTORE PUSH1 0x20 ADD PUSH32 0x4C6576656C204949000000000000000000000000000000000000000000000000 DUP2 MSTORE POP PUSH1 0x69 PUSH1 0x0 PUSH1 0xD DUP1 SLOAD SWAP1 POP PUSH3 0x2F3 PUSH1 0x64 PUSH1 0xA SLOAD PUSH3 0x3E8 PUSH1 0x20 SHL PUSH3 0x3C1F OR PUSH1 0x20 SHR JUMP JUMPDEST PUSH3 0x46C PUSH1 0x20 SHL PUSH1 0x20 SHR JUMP JUMPDEST POP PUSH3 0x36B PUSH1 0x40 MLOAD DUP1 PUSH1 0x40 ADD PUSH1 0x40 MSTORE DUP1 PUSH1 0x9 DUP2 MSTORE PUSH1 0x20 ADD PUSH32 0x4C6576656C204949490000000000000000000000000000000000000000000000 DUP2 MSTORE POP PUSH1 0x6E PUSH1 0x0 PUSH1 0xD DUP1 SLOAD SWAP1 POP PUSH3 0x35F PUSH2 0x3E8 PUSH1 0xA SLOAD PUSH3 0x3E8 PUSH1 0x20 SHL PUSH3 0x3C1F OR PUSH1 0x20 SHR JUMP JUMPDEST PUSH3 0x46C PUSH1 0x20 SHL PUSH1 0x20 SHR JUMP JUMPDEST POP PUSH3 0x3D7 PUSH1 0x40 MLOAD DUP1 PUSH1 0x40 ADD PUSH1 0x40 MSTORE DUP1 PUSH1 0x8 DUP2 MSTORE PUSH1 0x20 ADD PUSH32 0x4C6576656C204956000000000000000000000000000000000000000000000000 DUP2 MSTORE POP PUSH1 0x73 PUSH1 0x0 PUSH1 0xD DUP1 SLOAD SWAP1 POP PUSH3 0x3CB PUSH2 0x1388 PUSH1 0xA SLOAD PUSH3 0x3E8 PUSH1 0x20 SHL PUSH3 0x3C1F OR PUSH1 0x20 SHR JUMP JUMPDEST PUSH3 0x46C PUSH1 0x20 SHL PUSH1 0x20 SHR JUMP JUMPDEST POP POP POP PUSH3 0x114E JUMP JUMPDEST PUSH1 0x0 CALLER SWAP1 POP SWAP1 JUMP JUMPDEST PUSH1 0x0 DUP1 DUP4 EQ ISZERO PUSH3 0x3FD JUMPI PUSH1 0x0 SWAP1 POP PUSH3 0x466 JUMP JUMPDEST PUSH1 0x0 DUP3 DUP5 PUSH3 0x40D SWAP2 SWAP1 PUSH3 0xD58 JUMP JUMPDEST SWAP1 POP DUP3 DUP5 DUP3 PUSH3 0x41E SWAP2 SWAP1 PUSH3 0xD20 JUMP JUMPDEST EQ PUSH3 0x461 JUMPI PUSH1 0x40 MLOAD PUSH32 0x8C379A000000000000000000000000000000000000000000000000000000000 DUP2 MSTORE PUSH1 0x4 ADD PUSH3 0x458 SWAP1 PUSH3 0xC93 JUMP JUMPDEST PUSH1 0x40 MLOAD DUP1 SWAP2 SUB SWAP1 REVERT JUMPDEST DUP1 SWAP2 POP POP JUMPDEST SWAP3 SWAP2 POP POP JUMP JUMPDEST PUSH1 0x0 PUSH3 0x47E PUSH3 0x3E0 PUSH1 0x20 SHL PUSH1 0x20 SHR JUMP JUMPDEST PUSH20 0xFFFFFFFFFFFFFFFFFFFFFFFFFFFFFFFFFFFFFFFF AND PUSH1 0x0 DUP1 SLOAD SWAP1 PUSH2 0x100 EXP SWAP1 DIV PUSH20 0xFFFFFFFFFFFFFFFFFFFFFFFFFFFFFFFFFFFFFFFF AND PUSH20 0xFFFFFFFFFFFFFFFFFFFFFFFFFFFFFFFFFFFFFFFF AND EQ PUSH3 0x50E JUMPI PUSH1 0x40 MLOAD PUSH32 0x8C379A000000000000000000000000000000000000000000000000000000000 DUP2 MSTORE PUSH1 0x4 ADD PUSH3 0x505 SWAP1 PUSH3 0xCD7 JUMP JUMPDEST PUSH1 0x40 MLOAD DUP1 SWAP2 SUB SWAP1 REVERT JUMPDEST PUSH3 0x51E PUSH3 0x911 PUSH1 0x20 SHL PUSH1 0x20 SHR JUMP JUMPDEST ISZERO PUSH3 0x561 JUMPI PUSH1 0x40 MLOAD PUSH32 0x8C379A000000000000000000000000000000000000000000000000000000000 DUP2 MSTORE PUSH1 0x4 ADD PUSH3 0x558 SWAP1 PUSH3 0xC71 JUMP JUMPDEST PUSH1 0x40 MLOAD DUP1 SWAP2 SUB SWAP1 REVERT JUMPDEST PUSH1 0xD DUP1 SLOAD SWAP1 POP PUSH1 0xA GT PUSH3 0x5AC JUMPI PUSH1 0x40 MLOAD PUSH32 0x8C379A000000000000000000000000000000000000000000000000000000000 DUP2 MSTORE PUSH1 0x4 ADD PUSH3 0x5A3 SWAP1 PUSH3 0xC4F JUMP JUMPDEST PUSH1 0x40 MLOAD DUP1 SWAP2 SUB SWAP1 REVERT JUMPDEST PUSH1 0xD DUP1 SLOAD SWAP1 POP DUP4 GT ISZERO PUSH3 0x5F7 JUMPI PUSH1 0x40 MLOAD PUSH32 0x8C379A000000000000000000000000000000000000000000000000000000000 DUP2 MSTORE PUSH1 0x4 ADD PUSH3 0x5EE SWAP1 PUSH3 0xCB5 JUMP JUMPDEST PUSH1 0x40 MLOAD DUP1 SWAP2 SUB SWAP1 REVERT JUMPDEST PUSH1 0x0 DUP7 DUP7 TIMESTAMP DUP6 PUSH1 0x40 MLOAD PUSH1 0x20 ADD PUSH3 0x612 SWAP5 SWAP4 SWAP3 SWAP2 SWAP1 PUSH3 0xBA9 JUMP JUMPDEST PUSH1 0x40 MLOAD PUSH1 0x20 DUP2 DUP4 SUB SUB DUP2 MSTORE SWAP1 PUSH1 0x40 MSTORE DUP1 MLOAD SWAP1 PUSH1 0x20 ADD KECCAK256 SWAP1 POP PUSH1 0x0 PUSH1 0x40 MLOAD DUP1 PUSH1 0xC0 ADD PUSH1 0x40 MSTORE DUP1 DUP4 PUSH28 0xFFFFFFFFFFFFFFFFFFFFFFFFFFFFFFFFFFFFFFFFFFFFFFFFFFFFFFFF NOT AND DUP2 MSTORE PUSH1 0x20 ADD PUSH1 0x1 ISZERO ISZERO DUP2 MSTORE PUSH1 0x20 ADD DUP9 DUP2 MSTORE PUSH1 0x20 ADD DUP8 DUP2 MSTORE PUSH1 0x20 ADD DUP10 DUP2 MSTORE PUSH1 0x20 ADD DUP6 DUP2 MSTORE POP SWAP1 POP PUSH1 0xD PUSH1 0x1 DUP2 PUSH1 0x1 DUP2 SLOAD ADD DUP1 DUP3 SSTORE DUP1 SWAP2 POP POP SUB SWAP1 PUSH1 0x0 MSTORE PUSH1 0x20 PUSH1 0x0 KECCAK256 SWAP1 PUSH1 0x8 SWAP2 DUP3 DUP3 DIV ADD SWAP2 SWAP1 MOD PUSH1 0x4 MUL SWAP1 SLOAD SWAP1 PUSH2 0x100 EXP SWAP1 POP POP PUSH1 0x0 PUSH1 0x1 PUSH1 0xD DUP1 SLOAD SWAP1 POP PUSH3 0x6C6 SWAP2 SWAP1 PUSH3 0xDB9 JUMP JUMPDEST SWAP1 POP JUMPDEST DUP6 DUP2 LT PUSH3 0x7CD JUMPI DUP6 DUP2 EQ ISZERO PUSH3 0x728 JUMPI DUP3 PUSH1 0xD DUP3 DUP2 SLOAD DUP2 LT PUSH3 0x6F2 JUMPI PUSH3 0x6F1 PUSH3 0xF64 JUMP JUMPDEST JUMPDEST SWAP1 PUSH1 0x0 MSTORE PUSH1 0x20 PUSH1 0x0 KECCAK256 SWAP1 PUSH1 0x8 SWAP2 DUP3 DUP3 DIV ADD SWAP2 SWAP1 MOD PUSH1 0x4 MUL PUSH2 0x100 EXP DUP2 SLOAD DUP2 PUSH4 0xFFFFFFFF MUL NOT AND SWAP1 DUP4 PUSH1 0xE0 SHR MUL OR SWAP1 SSTORE POP PUSH3 0x7CD JUMP JUMPDEST PUSH1 0xD PUSH1 0x1 DUP3 PUSH3 0x739 SWAP2 SWAP1 PUSH3 0xDB9 JUMP JUMPDEST DUP2 SLOAD DUP2 LT PUSH3 0x74D JUMPI PUSH3 0x74C PUSH3 0xF64 JUMP JUMPDEST JUMPDEST SWAP1 PUSH1 0x0 MSTORE PUSH1 0x20 PUSH1 0x0 KECCAK256 SWAP1 PUSH1 0x8 SWAP2 DUP3 DUP3 DIV ADD SWAP2 SWAP1 MOD PUSH1 0x4 MUL SWAP1 SLOAD SWAP1 PUSH2 0x100 EXP SWAP1 DIV PUSH1 0xE0 SHL PUSH1 0xD DUP3 DUP2 SLOAD DUP2 LT PUSH3 0x787 JUMPI PUSH3 0x786 PUSH3 0xF64 JUMP JUMPDEST JUMPDEST SWAP1 PUSH1 0x0 MSTORE PUSH1 0x20 PUSH1 0x0 KECCAK256 SWAP1 PUSH1 0x8 SWAP2 DUP3 DUP3 DIV ADD SWAP2 SWAP1 MOD PUSH1 0x4 MUL PUSH2 0x100 EXP DUP2 SLOAD DUP2 PUSH4 0xFFFFFFFF MUL NOT AND SWAP1 DUP4 PUSH1 0xE0 SHR MUL OR SWAP1 SSTORE POP DUP1 DUP1 PUSH3 0x7C4 SWAP1 PUSH3 0xE68 JUMP JUMPDEST SWAP2 POP POP PUSH3 0x6C9 JUMP JUMPDEST POP DUP1 PUSH1 0xE PUSH1 0x0 DUP5 PUSH28 0xFFFFFFFFFFFFFFFFFFFFFFFFFFFFFFFFFFFFFFFFFFFFFFFFFFFFFFFF NOT AND PUSH28 0xFFFFFFFFFFFFFFFFFFFFFFFFFFFFFFFFFFFFFFFFFFFFFFFFFFFFFFFF NOT AND DUP2 MSTORE PUSH1 0x20 ADD SWAP1 DUP2 MSTORE PUSH1 0x20 ADD PUSH1 0x0 KECCAK256 PUSH1 0x0 DUP3 ADD MLOAD DUP2 PUSH1 0x0 ADD PUSH1 0x0 PUSH2 0x100 EXP DUP2 SLOAD DUP2 PUSH4 0xFFFFFFFF MUL NOT AND SWAP1 DUP4 PUSH1 0xE0 SHR MUL OR SWAP1 SSTORE POP PUSH1 0x20 DUP3 ADD MLOAD DUP2 PUSH1 0x0 ADD PUSH1 0x4 PUSH2 0x100 EXP DUP2 SLOAD DUP2 PUSH1 0xFF MUL NOT AND SWAP1 DUP4 ISZERO ISZERO MUL OR SWAP1 SSTORE POP PUSH1 0x40 DUP3 ADD MLOAD DUP2 PUSH1 0x1 ADD SSTORE PUSH1 0x60 DUP3 ADD MLOAD DUP2 PUSH1 0x2 ADD SSTORE PUSH1 0x80 DUP3 ADD MLOAD DUP2 PUSH1 0x3 ADD SWAP1 DUP1 MLOAD SWAP1 PUSH1 0x20 ADD SWAP1 PUSH3 0x896 SWAP3 SWAP2 SWAP1 PUSH3 0x934 JUMP JUMPDEST POP PUSH1 0xA0 DUP3 ADD MLOAD DUP2 PUSH1 0x4 ADD SSTORE SWAP1 POP POP DUP2 PUSH28 0xFFFFFFFFFFFFFFFFFFFFFFFFFFFFFFFFFFFFFFFFFFFFFFFFFFFFFFFF NOT AND PUSH32 0xDAEA932DCFEC6084B0770111ACDA33CC55AA7D7F428C94A4D3EF6AF4786A4F69 DUP10 DUP10 DUP10 DUP9 PUSH1 0x40 MLOAD PUSH3 0x8FB SWAP5 SWAP4 SWAP3 SWAP2 SWAP1 PUSH3 0xBFB JUMP JUMPDEST PUSH1 0x40 MLOAD DUP1 SWAP2 SUB SWAP1 LOG2 DUP2 SWAP3 POP POP POP SWAP6 SWAP5 POP POP POP POP POP JUMP JUMPDEST PUSH1 0x0 DUP1 PUSH1 0x3 PUSH1 0x0 PUSH1 0x1 SLOAD DUP2 MSTORE PUSH1 0x20 ADD SWAP1 DUP2 MSTORE PUSH1 0x20 ADD PUSH1 0x0 KECCAK256 PUSH1 0x0 ADD SLOAD EQ ISZERO SWAP1 POP SWAP1 JUMP JUMPDEST DUP3 DUP1 SLOAD PUSH3 0x942 SWAP1 PUSH3 0xE97 JUMP JUMPDEST SWAP1 PUSH1 0x0 MSTORE PUSH1 0x20 PUSH1 0x0 KECCAK256 SWAP1 PUSH1 0x1F ADD PUSH1 0x20 SWAP1 DIV DUP2 ADD SWAP3 DUP3 PUSH3 0x966 JUMPI PUSH1 0x0 DUP6 SSTORE PUSH3 0x9B2 JUMP JUMPDEST DUP3 PUSH1 0x1F LT PUSH3 0x981 JUMPI DUP1 MLOAD PUSH1 0xFF NOT AND DUP4 DUP1 ADD OR DUP6 SSTORE PUSH3 0x9B2 JUMP JUMPDEST DUP3 DUP1 ADD PUSH1 0x1 ADD DUP6 SSTORE DUP3 ISZERO PUSH3 0x9B2 JUMPI SWAP2 DUP3 ADD JUMPDEST DUP3 DUP2 GT ISZERO PUSH3 0x9B1 JUMPI DUP3 MLOAD DUP3 SSTORE SWAP2 PUSH1 0x20 ADD SWAP2 SWAP1 PUSH1 0x1 ADD SWAP1 PUSH3 0x994 JUMP JUMPDEST JUMPDEST POP SWAP1 POP PUSH3 0x9C1 SWAP2 SWAP1 PUSH3 0x9C5 JUMP JUMPDEST POP SWAP1 JUMP JUMPDEST JUMPDEST DUP1 DUP3 GT ISZERO PUSH3 0x9E0 JUMPI PUSH1 0x0 DUP2 PUSH1 0x0 SWAP1 SSTORE POP PUSH1 0x1 ADD PUSH3 0x9C6 JUMP JUMPDEST POP SWAP1 JUMP JUMPDEST PUSH1 0x0 DUP2 MLOAD SWAP1 POP PUSH3 0x9F5 DUP2 PUSH3 0x1134 JUMP JUMPDEST SWAP3 SWAP2 POP POP JUMP JUMPDEST PUSH1 0x0 DUP1 PUSH1 0x40 DUP4 DUP6 SUB SLT ISZERO PUSH3 0xA15 JUMPI PUSH3 0xA14 PUSH3 0xF93 JUMP JUMPDEST JUMPDEST PUSH1 0x0 PUSH3 0xA25 DUP6 DUP3 DUP7 ADD PUSH3 0x9E4 JUMP JUMPDEST SWAP3 POP POP PUSH1 0x20 PUSH3 0xA38 DUP6 DUP3 DUP7 ADD PUSH3 0x9E4 JUMP JUMPDEST SWAP2 POP POP SWAP3 POP SWAP3 SWAP1 POP JUMP JUMPDEST PUSH1 0x0 PUSH3 0xA4F DUP3 PUSH3 0xCF9 JUMP JUMPDEST PUSH3 0xA5B DUP2 DUP6 PUSH3 0xD04 JUMP JUMPDEST SWAP4 POP PUSH3 0xA6D DUP2 DUP6 PUSH1 0x20 DUP7 ADD PUSH3 0xE32 JUMP JUMPDEST PUSH3 0xA78 DUP2 PUSH3 0xF98 JUMP JUMPDEST DUP5 ADD SWAP2 POP POP SWAP3 SWAP2 POP POP JUMP JUMPDEST PUSH1 0x0 PUSH3 0xA90 DUP3 PUSH3 0xCF9 JUMP JUMPDEST PUSH3 0xA9C DUP2 DUP6 PUSH3 0xD15 JUMP JUMPDEST SWAP4 POP PUSH3 0xAAE DUP2 DUP6 PUSH1 0x20 DUP7 ADD PUSH3 0xE32 JUMP JUMPDEST DUP1 DUP5 ADD SWAP2 POP POP SWAP3 SWAP2 POP POP JUMP JUMPDEST PUSH1 0x0 PUSH3 0xAC9 PUSH1 0x5A DUP4 PUSH3 0xD04 JUMP JUMPDEST SWAP2 POP PUSH3 0xAD6 DUP3 PUSH3 0xFA9 JUMP JUMPDEST PUSH1 0x60 DUP3 ADD SWAP1 POP SWAP2 SWAP1 POP JUMP JUMPDEST PUSH1 0x0 PUSH3 0xAF0 PUSH1 0x35 DUP4 PUSH3 0xD04 JUMP JUMPDEST SWAP2 POP PUSH3 0xAFD DUP3 PUSH3 0x101E JUMP JUMPDEST PUSH1 0x40 DUP3 ADD SWAP1 POP SWAP2 SWAP1 POP JUMP JUMPDEST PUSH1 0x0 PUSH3 0xB17 PUSH1 0x21 DUP4 PUSH3 0xD04 JUMP JUMPDEST SWAP2 POP PUSH3 0xB24 DUP3 PUSH3 0x106D JUMP JUMPDEST PUSH1 0x40 DUP3 ADD SWAP1 POP SWAP2 SWAP1 POP JUMP JUMPDEST PUSH1 0x0 PUSH3 0xB3E PUSH1 0x22 DUP4 PUSH3 0xD04 JUMP JUMPDEST SWAP2 POP PUSH3 0xB4B DUP3 PUSH3 0x10BC JUMP JUMPDEST PUSH1 0x40 DUP3 ADD SWAP1 POP SWAP2 SWAP1 POP JUMP JUMPDEST PUSH1 0x0 PUSH3 0xB65 PUSH1 0x20 DUP4 PUSH3 0xD04 JUMP JUMPDEST SWAP2 POP PUSH3 0xB72 DUP3 PUSH3 0x110B JUMP JUMPDEST PUSH1 0x20 DUP3 ADD SWAP1 POP SWAP2 SWAP1 POP JUMP JUMPDEST PUSH3 0xB88 DUP2 PUSH3 0xE28 JUMP JUMPDEST DUP3 MSTORE POP POP JUMP JUMPDEST PUSH3 0xBA3 PUSH3 0xB9D DUP3 PUSH3 0xE28 JUMP JUMPDEST PUSH3 0xECD JUMP JUMPDEST DUP3 MSTORE POP POP JUMP JUMPDEST PUSH1 0x0 PUSH3 0xBB7 DUP3 DUP8 PUSH3 0xA83 JUMP JUMPDEST SWAP2 POP PUSH3 0xBC5 DUP3 DUP7 PUSH3 0xB8E JUMP JUMPDEST PUSH1 0x20 DUP3 ADD SWAP2 POP PUSH3 0xBD7 DUP3 DUP6 PUSH3 0xB8E JUMP JUMPDEST PUSH1 0x20 DUP3 ADD SWAP2 POP PUSH3 0xBE9 DUP3 DUP5 PUSH3 0xB8E JUMP JUMPDEST PUSH1 0x20 DUP3 ADD SWAP2 POP DUP2 SWAP1 POP SWAP6 SWAP5 POP POP POP POP POP JUMP JUMPDEST PUSH1 0x0 PUSH1 0x80 DUP3 ADD SWAP1 POP DUP2 DUP2 SUB PUSH1 0x0 DUP4 ADD MSTORE PUSH3 0xC17 DUP2 DUP8 PUSH3 0xA42 JUMP JUMPDEST SWAP1 POP PUSH3 0xC28 PUSH1 0x20 DUP4 ADD DUP7 PUSH3 0xB7D JUMP JUMPDEST PUSH3 0xC37 PUSH1 0x40 DUP4 ADD DUP6 PUSH3 0xB7D JUMP JUMPDEST PUSH3 0xC46 PUSH1 0x60 DUP4 ADD DUP5 PUSH3 0xB7D JUMP JUMPDEST SWAP6 SWAP5 POP POP POP POP POP JUMP JUMPDEST PUSH1 0x0 PUSH1 0x20 DUP3 ADD SWAP1 POP DUP2 DUP2 SUB PUSH1 0x0 DUP4 ADD MSTORE PUSH3 0xC6A DUP2 PUSH3 0xABA JUMP JUMPDEST SWAP1 POP SWAP2 SWAP1 POP JUMP JUMPDEST PUSH1 0x0 PUSH1 0x20 DUP3 ADD SWAP1 POP DUP2 DUP2 SUB PUSH1 0x0 DUP4 ADD MSTORE PUSH3 0xC8C DUP2 PUSH3 0xAE1 JUMP JUMPDEST SWAP1 POP SWAP2 SWAP1 POP JUMP JUMPDEST PUSH1 0x0 PUSH1 0x20 DUP3 ADD SWAP1 POP DUP2 DUP2 SUB PUSH1 0x0 DUP4 ADD MSTORE PUSH3 0xCAE DUP2 PUSH3 0xB08 JUMP JUMPDEST SWAP1 POP SWAP2 SWAP1 POP JUMP JUMPDEST PUSH1 0x0 PUSH1 0x20 DUP3 ADD SWAP1 POP DUP2 DUP2 SUB PUSH1 0x0 DUP4 ADD MSTORE PUSH3 0xCD0 DUP2 PUSH3 0xB2F JUMP JUMPDEST SWAP1 POP SWAP2 SWAP1 POP JUMP JUMPDEST PUSH1 0x0 PUSH1 0x20 DUP3 ADD SWAP1 POP DUP2 DUP2 SUB PUSH1 0x0 DUP4 ADD MSTORE PUSH3 0xCF2 DUP2 PUSH3 0xB56 JUMP JUMPDEST SWAP1 POP SWAP2 SWAP1 POP JUMP JUMPDEST PUSH1 0x0 DUP2 MLOAD SWAP1 POP SWAP2 SWAP1 POP JUMP JUMPDEST PUSH1 0x0 DUP3 DUP3 MSTORE PUSH1 0x20 DUP3 ADD SWAP1 POP SWAP3 SWAP2 POP POP JUMP JUMPDEST PUSH1 0x0 DUP2 SWAP1 POP SWAP3 SWAP2 POP POP JUMP JUMPDEST PUSH1 0x0 PUSH3 0xD2D DUP3 PUSH3 0xE28 JUMP JUMPDEST SWAP2 POP PUSH3 0xD3A DUP4 PUSH3 0xE28 JUMP JUMPDEST SWAP3 POP DUP3 PUSH3 0xD4D JUMPI PUSH3 0xD4C PUSH3 0xF06 JUMP JUMPDEST JUMPDEST DUP3 DUP3 DIV SWAP1 POP SWAP3 SWAP2 POP POP JUMP JUMPDEST PUSH1 0x0 PUSH3 0xD65 DUP3 PUSH3 0xE28 JUMP JUMPDEST SWAP2 POP PUSH3 0xD72 DUP4 PUSH3 0xE28 JUMP JUMPDEST SWAP3 POP DUP2 PUSH32 0xFFFFFFFFFFFFFFFFFFFFFFFFFFFFFFFFFFFFFFFFFFFFFFFFFFFFFFFFFFFFFFFF DIV DUP4 GT DUP3 ISZERO ISZERO AND ISZERO PUSH3 0xDAE JUMPI PUSH3 0xDAD PUSH3 0xED7 JUMP JUMPDEST JUMPDEST DUP3 DUP3 MUL SWAP1 POP SWAP3 SWAP2 POP POP JUMP JUMPDEST PUSH1 0x0 PUSH3 0xDC6 DUP3 PUSH3 0xE28 JUMP JUMPDEST SWAP2 POP PUSH3 0xDD3 DUP4 PUSH3 0xE28 JUMP JUMPDEST SWAP3 POP DUP3 DUP3 LT ISZERO PUSH3 0xDE9 JUMPI PUSH3 0xDE8 PUSH3 0xED7 JUMP JUMPDEST JUMPDEST DUP3 DUP3 SUB SWAP1 POP SWAP3 SWAP2 POP POP JUMP JUMPDEST PUSH1 0x0 PUSH3 0xE01 DUP3 PUSH3 0xE08 JUMP JUMPDEST SWAP1 POP SWAP2 SWAP1 POP JUMP JUMPDEST PUSH1 0x0 PUSH20 0xFFFFFFFFFFFFFFFFFFFFFFFFFFFFFFFFFFFFFFFF DUP3 AND SWAP1 POP SWAP2 SWAP1 POP JUMP JUMPDEST PUSH1 0x0 DUP2 SWAP1 POP SWAP2 SWAP1 POP JUMP JUMPDEST PUSH1 0x0 JUMPDEST DUP4 DUP2 LT ISZERO PUSH3 0xE52 JUMPI DUP1 DUP3 ADD MLOAD DUP2 DUP5 ADD MSTORE PUSH1 0x20 DUP2 ADD SWAP1 POP PUSH3 0xE35 JUMP JUMPDEST DUP4 DUP2 GT ISZERO PUSH3 0xE62 JUMPI PUSH1 0x0 DUP5 DUP5 ADD MSTORE JUMPDEST POP POP POP POP JUMP JUMPDEST PUSH1 0x0 PUSH3 0xE75 DUP3 PUSH3 0xE28 JUMP JUMPDEST SWAP2 POP PUSH1 0x0 DUP3 EQ ISZERO PUSH3 0xE8C JUMPI PUSH3 0xE8B PUSH3 0xED7 JUMP JUMPDEST JUMPDEST PUSH1 0x1 DUP3 SUB SWAP1 POP SWAP2 SWAP1 POP JUMP JUMPDEST PUSH1 0x0 PUSH1 0x2 DUP3 DIV SWAP1 POP PUSH1 0x1 DUP3 AND DUP1 PUSH3 0xEB0 JUMPI PUSH1 0x7F DUP3 AND SWAP2 POP JUMPDEST PUSH1 0x20 DUP3 LT DUP2 EQ ISZERO PUSH3 0xEC7 JUMPI PUSH3 0xEC6 PUSH3 0xF35 JUMP JUMPDEST JUMPDEST POP SWAP2 SWAP1 POP JUMP JUMPDEST PUSH1 0x0 DUP2 SWAP1 POP SWAP2 SWAP1 POP JUMP JUMPDEST PUSH32 0x4E487B7100000000000000000000000000000000000000000000000000000000 PUSH1 0x0 MSTORE PUSH1 0x11 PUSH1 0x4 MSTORE PUSH1 0x24 PUSH1 0x0 REVERT JUMPDEST PUSH32 0x4E487B7100000000000000000000000000000000000000000000000000000000 PUSH1 0x0 MSTORE PUSH1 0x12 PUSH1 0x4 MSTORE PUSH1 0x24 PUSH1 0x0 REVERT JUMPDEST PUSH32 0x4E487B7100000000000000000000000000000000000000000000000000000000 PUSH1 0x0 MSTORE PUSH1 0x22 PUSH1 0x4 MSTORE PUSH1 0x24 PUSH1 0x0 REVERT JUMPDEST PUSH32 0x4E487B7100000000000000000000000000000000000000000000000000000000 PUSH1 0x0 MSTORE PUSH1 0x32 PUSH1 0x4 MSTORE PUSH1 0x24 PUSH1 0x0 REVERT JUMPDEST PUSH1 0x0 DUP1 REVERT JUMPDEST PUSH1 0x0 PUSH1 0x1F NOT PUSH1 0x1F DUP4 ADD AND SWAP1 POP SWAP2 SWAP1 POP JUMP JUMPDEST PUSH32 0x426F6E64204D616E616765723A20457863656564696E6720746865206D617869 PUSH1 0x0 DUP3 ADD MSTORE PUSH32 0x6D756D20616D6F756E74206F6620426F6E64206C6576656C732E205472792064 PUSH1 0x20 DUP3 ADD MSTORE PUSH32 0x6561637469766174696E672061206C6576656C2066697273742E000000000000 PUSH1 0x40 DUP3 ADD MSTORE POP JUMP JUMPDEST PUSH32 0x426F6E64204D616E616765723A2043616E27742061646420626F6E64206C6576 PUSH1 0x0 DUP3 ADD MSTORE PUSH32 0x656C20647572696E67206120646973636F756E742E0000000000000000000000 PUSH1 0x20 DUP3 ADD MSTORE POP JUMP JUMPDEST PUSH32 0x536166654D6174683A206D756C7469706C69636174696F6E206F766572666C6F PUSH1 0x0 DUP3 ADD MSTORE PUSH32 0x7700000000000000000000000000000000000000000000000000000000000000 PUSH1 0x20 DUP3 ADD MSTORE POP JUMP JUMPDEST PUSH32 0x426F6E64204D616E616765723A20496E646578206F7574206F6620626F756E64 PUSH1 0x0 DUP3 ADD MSTORE PUSH32 0x732E000000000000000000000000000000000000000000000000000000000000 PUSH1 0x20 DUP3 ADD MSTORE POP JUMP JUMPDEST PUSH32 0x4F776E61626C653A2063616C6C6572206973206E6F7420746865206F776E6572 PUSH1 0x0 DUP3 ADD MSTORE POP JUMP JUMPDEST PUSH3 0x113F DUP2 PUSH3 0xDF4 JUMP JUMPDEST DUP2 EQ PUSH3 0x114B JUMPI PUSH1 0x0 DUP1 REVERT JUMPDEST POP JUMP JUMPDEST PUSH2 0x6D4E DUP1 PUSH3 0x115E PUSH1 0x0 CODECOPY PUSH1 0x0 RETURN INVALID PUSH1 0x80 PUSH1 0x40 MSTORE CALLVALUE DUP1 ISZERO PUSH2 0x10 JUMPI PUSH1 0x0 DUP1 REVERT JUMPDEST POP PUSH1 0x4 CALLDATASIZE LT PUSH2 0x253 JUMPI PUSH1 0x0 CALLDATALOAD PUSH1 0xE0 SHR DUP1 PUSH4 0x8D07D936 GT PUSH2 0x146 JUMPI DUP1 PUSH4 0xC0F96004 GT PUSH2 0xC3 JUMPI DUP1 PUSH4 0xDB9D28D5 GT PUSH2 0x87 JUMPI DUP1 PUSH4 0xDB9D28D5 EQ PUSH2 0x67C JUMPI DUP1 PUSH4 0xDC68A424 EQ PUSH2 0x6AC JUMPI DUP1 PUSH4 0xDDD5E1B2 EQ PUSH2 0x6DC JUMPI DUP1 PUSH4 0xE9E7EB35 EQ PUSH2 0x6F8 JUMPI DUP1 PUSH4 0xECB6021C EQ PUSH2 0x728 JUMPI DUP1 PUSH4 0xF2FDE38B EQ PUSH2 0x746 JUMPI PUSH2 0x253 JUMP JUMPDEST DUP1 PUSH4 0xC0F96004 EQ PUSH2 0x5C2 JUMPI DUP1 PUSH4 0xC55DAE63 EQ PUSH2 0x5DE JUMPI DUP1 PUSH4 0xC66F4C0A EQ PUSH2 0x5FC JUMPI DUP1 PUSH4 0xD62A853A EQ PUSH2 0x62D JUMPI DUP1 PUSH4 0xDABBCF07 EQ PUSH2 0x65E JUMPI PUSH2 0x253 JUMP JUMPDEST DUP1 PUSH4 0xA98E5F3C GT PUSH2 0x10A JUMPI DUP1 PUSH4 0xA98E5F3C EQ PUSH2 0x532 JUMPI DUP1 PUSH4 0xAA90493A EQ PUSH2 0x54E JUMPI DUP1 PUSH4 0xB0E134B1 EQ PUSH2 0x56C JUMPI DUP1 PUSH4 0xBDD071FB EQ PUSH2 0x58A JUMPI DUP1 PUSH4 0xBF5A62F0 EQ PUSH2 0x5A6 JUMPI PUSH2 0x253 JUMP JUMPDEST DUP1 PUSH4 0x8D07D936 EQ PUSH2 0x4B0 JUMPI DUP1 PUSH4 0x8DA5CB5B EQ PUSH2 0x4BA JUMPI DUP1 PUSH4 0x8F7EE417 EQ PUSH2 0x4D8 JUMPI DUP1 PUSH4 0x97E881B4 EQ PUSH2 0x4F4 JUMPI DUP1 PUSH4 0xA87430BA EQ PUSH2 0x4FE JUMPI PUSH2 0x253 JUMP JUMPDEST DUP1 PUSH4 0x564566A8 GT PUSH2 0x1D4 JUMPI DUP1 PUSH4 0x6A28D6FD GT PUSH2 0x198 JUMPI DUP1 PUSH4 0x6A28D6FD EQ PUSH2 0x432 JUMPI DUP1 PUSH4 0x715018A6 EQ PUSH2 0x462 JUMPI DUP1 PUSH4 0x7D8966E4 EQ PUSH2 0x46C JUMPI DUP1 PUSH4 0x81880061 EQ PUSH2 0x476 JUMPI DUP1 PUSH4 0x82048CE4 EQ PUSH2 0x494 JUMPI PUSH2 0x253 JUMP JUMPDEST DUP1 PUSH4 0x564566A8 EQ PUSH2 0x3A0 JUMPI DUP1 PUSH4 0x5B1A540A EQ PUSH2 0x3BE JUMPI DUP1 PUSH4 0x5F8F6235 EQ PUSH2 0x3DC JUMPI DUP1 PUSH4 0x64C9EC6F EQ PUSH2 0x3F8 JUMPI DUP1 PUSH4 0x6A156FB1 EQ PUSH2 0x416 JUMPI PUSH2 0x253 JUMP JUMPDEST DUP1 PUSH4 0x2986C0E5 GT PUSH2 0x21B JUMPI DUP1 PUSH4 0x2986C0E5 EQ PUSH2 0x310 JUMPI DUP1 PUSH4 0x30B2C504 EQ PUSH2 0x32E JUMPI DUP1 PUSH4 0x4BECADB9 EQ PUSH2 0x34A JUMPI DUP1 PUSH4 0x5404F202 EQ PUSH2 0x366 JUMPI DUP1 PUSH4 0x55F804B3 EQ PUSH2 0x384 JUMPI PUSH2 0x253 JUMP JUMPDEST DUP1 PUSH4 0x266F812 EQ PUSH2 0x258 JUMPI DUP1 PUSH4 0x714FE87 EQ PUSH2 0x276 JUMPI DUP1 PUSH4 0x20375BA6 EQ PUSH2 0x294 JUMPI DUP1 PUSH4 0x20C319ED EQ PUSH2 0x2C4 JUMPI DUP1 PUSH4 0x22E230F3 EQ PUSH2 0x2E0 JUMPI JUMPDEST PUSH1 0x0 DUP1 REVERT JUMPDEST PUSH2 0x260 PUSH2 0x762 JUMP JUMPDEST PUSH1 0x40 MLOAD PUSH2 0x26D SWAP2 SWAP1 PUSH2 0x5A54 JUMP JUMPDEST PUSH1 0x40 MLOAD DUP1 SWAP2 SUB SWAP1 RETURN JUMPDEST PUSH2 0x27E PUSH2 0x768 JUMP JUMPDEST PUSH1 0x40 MLOAD PUSH2 0x28B SWAP2 SWAP1 PUSH2 0x5A54 JUMP JUMPDEST PUSH1 0x40 MLOAD DUP1 SWAP2 SUB SWAP1 RETURN JUMPDEST PUSH2 0x2AE PUSH1 0x4 DUP1 CALLDATASIZE SUB DUP2 ADD SWAP1 PUSH2 0x2A9 SWAP2 SWAP1 PUSH2 0x48B3 JUMP JUMPDEST PUSH2 0x76E JUMP JUMPDEST PUSH1 0x40 MLOAD PUSH2 0x2BB SWAP2 SWAP1 PUSH2 0x5A32 JUMP JUMPDEST PUSH1 0x40 MLOAD DUP1 SWAP2 SUB SWAP1 RETURN JUMPDEST PUSH2 0x2DE PUSH1 0x4 DUP1 CALLDATASIZE SUB DUP2 ADD SWAP1 PUSH2 0x2D9 SWAP2 SWAP1 PUSH2 0x49B7 JUMP JUMPDEST PUSH2 0x8F9 JUMP JUMPDEST STOP JUMPDEST PUSH2 0x2FA PUSH1 0x4 DUP1 CALLDATASIZE SUB DUP2 ADD SWAP1 PUSH2 0x2F5 SWAP2 SWAP1 PUSH2 0x4C28 JUMP JUMPDEST PUSH2 0x13C8 JUMP JUMPDEST PUSH1 0x40 MLOAD PUSH2 0x307 SWAP2 SWAP1 PUSH2 0x5A54 JUMP JUMPDEST PUSH1 0x40 MLOAD DUP1 SWAP2 SUB SWAP1 RETURN JUMPDEST PUSH2 0x318 PUSH2 0x1484 JUMP JUMPDEST PUSH1 0x40 MLOAD PUSH2 0x325 SWAP2 SWAP1 PUSH2 0x5A54 JUMP JUMPDEST PUSH1 0x40 MLOAD DUP1 SWAP2 SUB SWAP1 RETURN JUMPDEST PUSH2 0x348 PUSH1 0x4 DUP1 CALLDATASIZE SUB DUP2 ADD SWAP1 PUSH2 0x343 SWAP2 SWAP1 PUSH2 0x4BE8 JUMP JUMPDEST PUSH2 0x148A JUMP JUMPDEST STOP JUMPDEST PUSH2 0x364 PUSH1 0x4 DUP1 CALLDATASIZE SUB DUP2 ADD SWAP1 PUSH2 0x35F SWAP2 SWAP1 PUSH2 0x4C68 JUMP JUMPDEST PUSH2 0x1533 JUMP JUMPDEST STOP JUMPDEST PUSH2 0x36E PUSH2 0x1625 JUMP JUMPDEST PUSH1 0x40 MLOAD PUSH2 0x37B SWAP2 SWAP1 PUSH2 0x5A54 JUMP JUMPDEST PUSH1 0x40 MLOAD DUP1 SWAP2 SUB SWAP1 RETURN JUMPDEST PUSH2 0x39E PUSH1 0x4 DUP1 CALLDATASIZE SUB DUP2 ADD SWAP1 PUSH2 0x399 SWAP2 SWAP1 PUSH2 0x4A2B JUMP JUMPDEST PUSH2 0x162B JUMP JUMPDEST STOP JUMPDEST PUSH2 0x3A8 PUSH2 0x1750 JUMP JUMPDEST PUSH1 0x40 MLOAD PUSH2 0x3B5 SWAP2 SWAP1 PUSH2 0x55B8 JUMP JUMPDEST PUSH1 0x40 MLOAD DUP1 SWAP2 SUB SWAP1 RETURN JUMPDEST PUSH2 0x3C6 PUSH2 0x1763 JUMP JUMPDEST PUSH1 0x40 MLOAD PUSH2 0x3D3 SWAP2 SWAP1 PUSH2 0x55B8 JUMP JUMPDEST PUSH1 0x40 MLOAD DUP1 SWAP2 SUB SWAP1 RETURN JUMPDEST PUSH2 0x3F6 PUSH1 0x4 DUP1 CALLDATASIZE SUB DUP2 ADD SWAP1 PUSH2 0x3F1 SWAP2 SWAP1 PUSH2 0x4C68 JUMP JUMPDEST PUSH2 0x17CE JUMP JUMPDEST STOP JUMPDEST PUSH2 0x400 PUSH2 0x18F2 JUMP JUMPDEST PUSH1 0x40 MLOAD PUSH2 0x40D SWAP2 SWAP1 PUSH2 0x5609 JUMP JUMPDEST PUSH1 0x40 MLOAD DUP1 SWAP2 SUB SWAP1 RETURN JUMPDEST PUSH2 0x430 PUSH1 0x4 DUP1 CALLDATASIZE SUB DUP2 ADD SWAP1 PUSH2 0x42B SWAP2 SWAP1 PUSH2 0x4CFF JUMP JUMPDEST PUSH2 0x1918 JUMP JUMPDEST STOP JUMPDEST PUSH2 0x44C PUSH1 0x4 DUP1 CALLDATASIZE SUB DUP2 ADD SWAP1 PUSH2 0x447 SWAP2 SWAP1 PUSH2 0x4AF7 JUMP JUMPDEST PUSH2 0x1A0E JUMP JUMPDEST PUSH1 0x40 MLOAD PUSH2 0x459 SWAP2 SWAP1 PUSH2 0x55D3 JUMP JUMPDEST PUSH1 0x40 MLOAD DUP1 SWAP2 SUB SWAP1 RETURN JUMPDEST PUSH2 0x46A PUSH2 0x1E7E JUMP JUMPDEST STOP JUMPDEST PUSH2 0x474 PUSH2 0x1FD1 JUMP JUMPDEST STOP JUMPDEST PUSH2 0x47E PUSH2 0x20D8 JUMP JUMPDEST PUSH1 0x40 MLOAD PUSH2 0x48B SWAP2 SWAP1 PUSH2 0x5596 JUMP JUMPDEST PUSH1 0x40 MLOAD DUP1 SWAP2 SUB SWAP1 RETURN JUMPDEST PUSH2 0x4AE PUSH1 0x4 DUP1 CALLDATASIZE SUB DUP2 ADD SWAP1 PUSH2 0x4A9 SWAP2 SWAP1 PUSH2 0x48B3 JUMP JUMPDEST PUSH2 0x2172 JUMP JUMPDEST STOP JUMPDEST PUSH2 0x4B8 PUSH2 0x257A JUMP JUMPDEST STOP JUMPDEST PUSH2 0x4C2 PUSH2 0x269E JUMP JUMPDEST PUSH1 0x40 MLOAD PUSH2 0x4CF SWAP2 SWAP1 PUSH2 0x54D6 JUMP JUMPDEST PUSH1 0x40 MLOAD DUP1 SWAP2 SUB SWAP1 RETURN JUMPDEST PUSH2 0x4F2 PUSH1 0x4 DUP1 CALLDATASIZE SUB DUP2 ADD SWAP1 PUSH2 0x4ED SWAP2 SWAP1 PUSH2 0x4977 JUMP JUMPDEST PUSH2 0x26C7 JUMP JUMPDEST STOP JUMPDEST PUSH2 0x4FC PUSH2 0x2773 JUMP JUMPDEST STOP JUMPDEST PUSH2 0x518 PUSH1 0x4 DUP1 CALLDATASIZE SUB DUP2 ADD SWAP1 PUSH2 0x513 SWAP2 SWAP1 PUSH2 0x4859 JUMP JUMPDEST PUSH2 0x2812 JUMP JUMPDEST PUSH1 0x40 MLOAD PUSH2 0x529 SWAP6 SWAP5 SWAP4 SWAP3 SWAP2 SWAP1 PUSH2 0x5B06 JUMP JUMPDEST PUSH1 0x40 MLOAD DUP1 SWAP2 SUB SWAP1 RETURN JUMPDEST PUSH2 0x54C PUSH1 0x4 DUP1 CALLDATASIZE SUB DUP2 ADD SWAP1 PUSH2 0x547 SWAP2 SWAP1 PUSH2 0x4977 JUMP JUMPDEST PUSH2 0x2848 JUMP JUMPDEST STOP JUMPDEST PUSH2 0x556 PUSH2 0x2C64 JUMP JUMPDEST PUSH1 0x40 MLOAD PUSH2 0x563 SWAP2 SWAP1 PUSH2 0x55B8 JUMP JUMPDEST PUSH1 0x40 MLOAD DUP1 SWAP2 SUB SWAP1 RETURN JUMPDEST PUSH2 0x574 PUSH2 0x2C87 JUMP JUMPDEST PUSH1 0x40 MLOAD PUSH2 0x581 SWAP2 SWAP1 PUSH2 0x55B8 JUMP JUMPDEST PUSH1 0x40 MLOAD DUP1 SWAP2 SUB SWAP1 RETURN JUMPDEST PUSH2 0x5A4 PUSH1 0x4 DUP1 CALLDATASIZE SUB DUP2 ADD SWAP1 PUSH2 0x59F SWAP2 SWAP1 PUSH2 0x4C28 JUMP JUMPDEST PUSH2 0x2CCE JUMP JUMPDEST STOP JUMPDEST PUSH2 0x5C0 PUSH1 0x4 DUP1 CALLDATASIZE SUB DUP2 ADD SWAP1 PUSH2 0x5BB SWAP2 SWAP1 PUSH2 0x48E0 JUMP JUMPDEST PUSH2 0x2E7B JUMP JUMPDEST STOP JUMPDEST PUSH2 0x5DC PUSH1 0x4 DUP1 CALLDATASIZE SUB DUP2 ADD SWAP1 PUSH2 0x5D7 SWAP2 SWAP1 PUSH2 0x4CFF JUMP JUMPDEST PUSH2 0x3096 JUMP JUMPDEST STOP JUMPDEST PUSH2 0x5E6 PUSH2 0x31C9 JUMP JUMPDEST PUSH1 0x40 MLOAD PUSH2 0x5F3 SWAP2 SWAP1 PUSH2 0x55EE JUMP JUMPDEST PUSH1 0x40 MLOAD DUP1 SWAP2 SUB SWAP1 RETURN JUMPDEST PUSH2 0x616 PUSH1 0x4 DUP1 CALLDATASIZE SUB DUP2 ADD SWAP1 PUSH2 0x611 SWAP2 SWAP1 PUSH2 0x48B3 JUMP JUMPDEST PUSH2 0x31EF JUMP JUMPDEST PUSH1 0x40 MLOAD PUSH2 0x624 SWAP3 SWAP2 SWAP1 PUSH2 0x5A6F JUMP JUMPDEST PUSH1 0x40 MLOAD DUP1 SWAP2 SUB SWAP1 RETURN JUMPDEST PUSH2 0x647 PUSH1 0x4 DUP1 CALLDATASIZE SUB DUP2 ADD SWAP1 PUSH2 0x642 SWAP2 SWAP1 PUSH2 0x4859 JUMP JUMPDEST PUSH2 0x3364 JUMP JUMPDEST PUSH1 0x40 MLOAD PUSH2 0x655 SWAP3 SWAP2 SWAP1 PUSH2 0x5A98 JUMP JUMPDEST PUSH1 0x40 MLOAD DUP1 SWAP2 SUB SWAP1 RETURN JUMPDEST PUSH2 0x666 PUSH2 0x34D8 JUMP JUMPDEST PUSH1 0x40 MLOAD PUSH2 0x673 SWAP2 SWAP1 PUSH2 0x5A54 JUMP JUMPDEST PUSH1 0x40 MLOAD DUP1 SWAP2 SUB SWAP1 RETURN JUMPDEST PUSH2 0x696 PUSH1 0x4 DUP1 CALLDATASIZE SUB DUP2 ADD SWAP1 PUSH2 0x691 SWAP2 SWAP1 PUSH2 0x4B8E JUMP JUMPDEST PUSH2 0x34DE JUMP JUMPDEST PUSH1 0x40 MLOAD PUSH2 0x6A3 SWAP2 SWAP1 PUSH2 0x5B59 JUMP JUMPDEST PUSH1 0x40 MLOAD DUP1 SWAP2 SUB SWAP1 RETURN JUMPDEST PUSH2 0x6C6 PUSH1 0x4 DUP1 CALLDATASIZE SUB DUP2 ADD SWAP1 PUSH2 0x6C1 SWAP2 SWAP1 PUSH2 0x4A74 JUMP JUMPDEST PUSH2 0x3519 JUMP JUMPDEST PUSH1 0x40 MLOAD PUSH2 0x6D3 SWAP2 SWAP1 PUSH2 0x55D3 JUMP JUMPDEST PUSH1 0x40 MLOAD DUP1 SWAP2 SUB SWAP1 RETURN JUMPDEST PUSH2 0x6F6 PUSH1 0x4 DUP1 CALLDATASIZE SUB DUP2 ADD SWAP1 PUSH2 0x6F1 SWAP2 SWAP1 PUSH2 0x4BE8 JUMP JUMPDEST PUSH2 0x35CC JUMP JUMPDEST STOP JUMPDEST PUSH2 0x712 PUSH1 0x4 DUP1 CALLDATASIZE SUB DUP2 ADD SWAP1 PUSH2 0x70D SWAP2 SWAP1 PUSH2 0x4859 JUMP JUMPDEST PUSH2 0x397C JUMP JUMPDEST PUSH1 0x40 MLOAD PUSH2 0x71F SWAP2 SWAP1 PUSH2 0x5A54 JUMP JUMPDEST PUSH1 0x40 MLOAD DUP1 SWAP2 SUB SWAP1 RETURN JUMPDEST PUSH2 0x730 PUSH2 0x39C5 JUMP JUMPDEST PUSH1 0x40 MLOAD PUSH2 0x73D SWAP2 SWAP1 PUSH2 0x5A54 JUMP JUMPDEST PUSH1 0x40 MLOAD DUP1 SWAP2 SUB SWAP1 RETURN JUMPDEST PUSH2 0x760 PUSH1 0x4 DUP1 CALLDATASIZE SUB DUP2 ADD SWAP1 PUSH2 0x75B SWAP2 SWAP1 PUSH2 0x4859 JUMP JUMPDEST PUSH2 0x3A5D JUMP JUMPDEST STOP JUMPDEST PUSH1 0x8 SLOAD DUP2 JUMP JUMPDEST PUSH1 0x9 SLOAD DUP2 JUMP JUMPDEST PUSH2 0x776 PUSH2 0x4553 JUMP JUMPDEST PUSH1 0xE PUSH1 0x0 DUP4 PUSH28 0xFFFFFFFFFFFFFFFFFFFFFFFFFFFFFFFFFFFFFFFFFFFFFFFFFFFFFFFF NOT AND PUSH28 0xFFFFFFFFFFFFFFFFFFFFFFFFFFFFFFFFFFFFFFFFFFFFFFFFFFFFFFFF NOT AND DUP2 MSTORE PUSH1 0x20 ADD SWAP1 DUP2 MSTORE PUSH1 0x20 ADD PUSH1 0x0 KECCAK256 PUSH1 0x40 MLOAD DUP1 PUSH1 0xC0 ADD PUSH1 0x40 MSTORE SWAP1 DUP2 PUSH1 0x0 DUP3 ADD PUSH1 0x0 SWAP1 SLOAD SWAP1 PUSH2 0x100 EXP SWAP1 DIV PUSH1 0xE0 SHL PUSH28 0xFFFFFFFFFFFFFFFFFFFFFFFFFFFFFFFFFFFFFFFFFFFFFFFFFFFFFFFF NOT AND PUSH28 0xFFFFFFFFFFFFFFFFFFFFFFFFFFFFFFFFFFFFFFFFFFFFFFFFFFFFFFFF NOT AND DUP2 MSTORE PUSH1 0x20 ADD PUSH1 0x0 DUP3 ADD PUSH1 0x4 SWAP1 SLOAD SWAP1 PUSH2 0x100 EXP SWAP1 DIV PUSH1 0xFF AND ISZERO ISZERO ISZERO ISZERO DUP2 MSTORE PUSH1 0x20 ADD PUSH1 0x1 DUP3 ADD SLOAD DUP2 MSTORE PUSH1 0x20 ADD PUSH1 0x2 DUP3 ADD SLOAD DUP2 MSTORE PUSH1 0x20 ADD PUSH1 0x3 DUP3 ADD DUP1 SLOAD PUSH2 0x866 SWAP1 PUSH2 0x607A JUMP JUMPDEST DUP1 PUSH1 0x1F ADD PUSH1 0x20 DUP1 SWAP2 DIV MUL PUSH1 0x20 ADD PUSH1 0x40 MLOAD SWAP1 DUP2 ADD PUSH1 0x40 MSTORE DUP1 SWAP3 SWAP2 SWAP1 DUP2 DUP2 MSTORE PUSH1 0x20 ADD DUP3 DUP1 SLOAD PUSH2 0x892 SWAP1 PUSH2 0x607A JUMP JUMPDEST DUP1 ISZERO PUSH2 0x8DF JUMPI DUP1 PUSH1 0x1F LT PUSH2 0x8B4 JUMPI PUSH2 0x100 DUP1 DUP4 SLOAD DIV MUL DUP4 MSTORE SWAP2 PUSH1 0x20 ADD SWAP2 PUSH2 0x8DF JUMP JUMPDEST DUP3 ADD SWAP2 SWAP1 PUSH1 0x0 MSTORE PUSH1 0x20 PUSH1 0x0 KECCAK256 SWAP1 JUMPDEST DUP2 SLOAD DUP2 MSTORE SWAP1 PUSH1 0x1 ADD SWAP1 PUSH1 0x20 ADD DUP1 DUP4 GT PUSH2 0x8C2 JUMPI DUP3 SWAP1 SUB PUSH1 0x1F AND DUP3 ADD SWAP2 JUMPDEST POP POP POP POP POP DUP2 MSTORE PUSH1 0x20 ADD PUSH1 0x4 DUP3 ADD SLOAD DUP2 MSTORE POP POP SWAP1 POP SWAP2 SWAP1 POP JUMP JUMPDEST PUSH1 0xC PUSH1 0x0 SWAP1 SLOAD SWAP1 PUSH2 0x100 EXP SWAP1 DIV PUSH1 0xFF AND PUSH2 0x948 JUMPI PUSH1 0x40 MLOAD PUSH32 0x8C379A000000000000000000000000000000000000000000000000000000000 DUP2 MSTORE PUSH1 0x4 ADD PUSH2 0x93F SWAP1 PUSH2 0x5812 JUMP JUMPDEST PUSH1 0x40 MLOAD DUP1 SWAP2 SUB SWAP1 REVERT JUMPDEST PUSH1 0x0 DUP4 GT DUP1 ISZERO PUSH2 0x959 JUMPI POP PUSH1 0x14 DUP4 GT ISZERO JUMPDEST PUSH2 0x998 JUMPI PUSH1 0x40 MLOAD PUSH32 0x8C379A000000000000000000000000000000000000000000000000000000000 DUP2 MSTORE PUSH1 0x4 ADD PUSH2 0x98F SWAP1 PUSH2 0x5752 JUMP JUMPDEST PUSH1 0x40 MLOAD DUP1 SWAP2 SUB SWAP1 REVERT JUMPDEST PUSH2 0x9A1 DUP5 PUSH2 0x76E JUMP JUMPDEST PUSH1 0x20 ADD MLOAD PUSH2 0x9E4 JUMPI PUSH1 0x40 MLOAD PUSH32 0x8C379A000000000000000000000000000000000000000000000000000000000 DUP2 MSTORE PUSH1 0x4 ADD PUSH2 0x9DB SWAP1 PUSH2 0x58F2 JUMP JUMPDEST PUSH1 0x40 MLOAD DUP1 SWAP2 SUB SWAP1 REVERT JUMPDEST PUSH1 0x0 PUSH2 0x9EE PUSH2 0x3C9A JUMP JUMPDEST SWAP1 POP PUSH1 0x0 PUSH20 0xFFFFFFFFFFFFFFFFFFFFFFFFFFFFFFFFFFFFFFFF AND DUP2 PUSH20 0xFFFFFFFFFFFFFFFFFFFFFFFFFFFFFFFFFFFFFFFF AND EQ ISZERO PUSH2 0xA60 JUMPI PUSH1 0x40 MLOAD PUSH32 0x8C379A000000000000000000000000000000000000000000000000000000000 DUP2 MSTORE PUSH1 0x4 ADD PUSH2 0xA57 SWAP1 PUSH2 0x5692 JUMP JUMPDEST PUSH1 0x40 MLOAD DUP1 SWAP2 SUB SWAP1 REVERT JUMPDEST PUSH1 0x0 PUSH1 0xE PUSH1 0x0 DUP8 PUSH28 0xFFFFFFFFFFFFFFFFFFFFFFFFFFFFFFFFFFFFFFFFFFFFFFFFFFFFFFFF NOT AND PUSH28 0xFFFFFFFFFFFFFFFFFFFFFFFFFFFFFFFFFFFFFFFFFFFFFFFFFFFFFFFF NOT AND DUP2 MSTORE PUSH1 0x20 ADD SWAP1 DUP2 MSTORE PUSH1 0x20 ADD PUSH1 0x0 KECCAK256 PUSH1 0x2 ADD SLOAD EQ PUSH2 0xC18 JUMPI DUP4 PUSH1 0xF PUSH1 0x0 DUP8 PUSH28 0xFFFFFFFFFFFFFFFFFFFFFFFFFFFFFFFFFFFFFFFFFFFFFFFFFFFFFFFF NOT AND PUSH28 0xFFFFFFFFFFFFFFFFFFFFFFFFFFFFFFFFFFFFFFFFFFFFFFFFFFFFFFFF NOT AND DUP2 MSTORE PUSH1 0x20 ADD SWAP1 DUP2 MSTORE PUSH1 0x20 ADD PUSH1 0x0 KECCAK256 SLOAD PUSH2 0xB19 SWAP2 SWAP1 PUSH2 0x5C7D JUMP JUMPDEST PUSH1 0xE PUSH1 0x0 DUP8 PUSH28 0xFFFFFFFFFFFFFFFFFFFFFFFFFFFFFFFFFFFFFFFFFFFFFFFFFFFFFFFF NOT AND PUSH28 0xFFFFFFFFFFFFFFFFFFFFFFFFFFFFFFFFFFFFFFFFFFFFFFFFFFFFFFFF NOT AND DUP2 MSTORE PUSH1 0x20 ADD SWAP1 DUP2 MSTORE PUSH1 0x20 ADD PUSH1 0x0 KECCAK256 PUSH1 0x2 ADD SLOAD LT ISZERO PUSH2 0xBAF JUMPI PUSH1 0x40 MLOAD PUSH32 0x8C379A000000000000000000000000000000000000000000000000000000000 DUP2 MSTORE PUSH1 0x4 ADD PUSH2 0xBA6 SWAP1 PUSH2 0x56F2 JUMP JUMPDEST PUSH1 0x40 MLOAD DUP1 SWAP2 SUB SWAP1 REVERT JUMPDEST DUP4 PUSH1 0xF PUSH1 0x0 DUP8 PUSH28 0xFFFFFFFFFFFFFFFFFFFFFFFFFFFFFFFFFFFFFFFFFFFFFFFFFFFFFFFF NOT AND PUSH28 0xFFFFFFFFFFFFFFFFFFFFFFFFFFFFFFFFFFFFFFFFFFFFFFFFFFFFFFFF NOT AND DUP2 MSTORE PUSH1 0x20 ADD SWAP1 DUP2 MSTORE PUSH1 0x20 ADD PUSH1 0x0 KECCAK256 PUSH1 0x0 DUP3 DUP3 SLOAD PUSH2 0xC10 SWAP2 SWAP1 PUSH2 0x5C7D JUMP JUMPDEST SWAP3 POP POP DUP2 SWAP1 SSTORE POP JUMPDEST PUSH1 0x0 DUP1 PUSH2 0xC24 DUP8 PUSH2 0x31EF JUMP JUMPDEST SWAP2 POP SWAP2 POP DUP1 ISZERO PUSH2 0xEFD JUMPI PUSH1 0x0 PUSH1 0x3 PUSH1 0x0 PUSH1 0x1 SLOAD DUP2 MSTORE PUSH1 0x20 ADD SWAP1 DUP2 MSTORE PUSH1 0x20 ADD PUSH1 0x0 KECCAK256 PUSH1 0x1 ADD SLOAD EQ ISZERO DUP1 ISZERO PUSH2 0xC6E JUMPI POP TIMESTAMP PUSH1 0x3 PUSH1 0x0 PUSH1 0x1 SLOAD DUP2 MSTORE PUSH1 0x20 ADD SWAP1 DUP2 MSTORE PUSH1 0x20 ADD PUSH1 0x0 KECCAK256 PUSH1 0x1 ADD SLOAD GT JUMPDEST ISZERO PUSH2 0xD43 JUMPI PUSH1 0x0 DUP4 PUSH1 0x40 MLOAD PUSH1 0x20 ADD PUSH2 0xC86 SWAP2 SWAP1 PUSH2 0x545A JUMP JUMPDEST PUSH1 0x40 MLOAD PUSH1 0x20 DUP2 DUP4 SUB SUB DUP2 MSTORE SWAP1 PUSH1 0x40 MSTORE DUP1 MLOAD SWAP1 PUSH1 0x20 ADD KECCAK256 SWAP1 POP PUSH2 0xD02 DUP7 DUP7 DUP1 DUP1 PUSH1 0x20 MUL PUSH1 0x20 ADD PUSH1 0x40 MLOAD SWAP1 DUP2 ADD PUSH1 0x40 MSTORE DUP1 SWAP4 SWAP3 SWAP2 SWAP1 DUP2 DUP2 MSTORE PUSH1 0x20 ADD DUP4 DUP4 PUSH1 0x20 MUL DUP1 DUP3 DUP5 CALLDATACOPY PUSH1 0x0 DUP2 DUP5 ADD MSTORE PUSH1 0x1F NOT PUSH1 0x1F DUP3 ADD AND SWAP1 POP DUP1 DUP4 ADD SWAP3 POP POP POP POP POP POP POP PUSH1 0x3 PUSH1 0x0 PUSH1 0x1 SLOAD DUP2 MSTORE PUSH1 0x20 ADD SWAP1 DUP2 MSTORE PUSH1 0x20 ADD PUSH1 0x0 KECCAK256 PUSH1 0x3 ADD SLOAD DUP4 PUSH2 0x3CA2 JUMP JUMPDEST PUSH2 0xD41 JUMPI PUSH1 0x40 MLOAD PUSH32 0x8C379A000000000000000000000000000000000000000000000000000000000 DUP2 MSTORE PUSH1 0x4 ADD PUSH2 0xD38 SWAP1 PUSH2 0x5912 JUMP JUMPDEST PUSH1 0x40 MLOAD DUP1 SWAP2 SUB SWAP1 REVERT JUMPDEST POP JUMPDEST PUSH1 0x0 PUSH2 0xD4D PUSH2 0x39C5 JUMP JUMPDEST SWAP1 POP PUSH1 0x0 PUSH2 0xDD0 PUSH1 0x2 PUSH1 0x0 PUSH1 0x1 SLOAD DUP2 MSTORE PUSH1 0x20 ADD SWAP1 DUP2 MSTORE PUSH1 0x20 ADD PUSH1 0x0 KECCAK256 PUSH1 0x0 DUP5 DUP2 MSTORE PUSH1 0x20 ADD SWAP1 DUP2 MSTORE PUSH1 0x20 ADD PUSH1 0x0 KECCAK256 PUSH1 0x0 DUP12 PUSH28 0xFFFFFFFFFFFFFFFFFFFFFFFFFFFFFFFFFFFFFFFFFFFFFFFFFFFFFFFF NOT AND PUSH28 0xFFFFFFFFFFFFFFFFFFFFFFFFFFFFFFFFFFFFFFFFFFFFFFFFFFFFFFFF NOT AND DUP2 MSTORE PUSH1 0x20 ADD SWAP1 DUP2 MSTORE PUSH1 0x20 ADD PUSH1 0x0 KECCAK256 SLOAD DUP10 PUSH2 0x3CB9 JUMP JUMPDEST PUSH2 0xFFFF AND SWAP1 POP PUSH1 0x3 PUSH1 0x0 PUSH1 0x1 SLOAD DUP2 MSTORE PUSH1 0x20 ADD SWAP1 DUP2 MSTORE PUSH1 0x20 ADD PUSH1 0x0 KECCAK256 PUSH1 0x5 ADD PUSH1 0x0 DUP11 PUSH28 0xFFFFFFFFFFFFFFFFFFFFFFFFFFFFFFFFFFFFFFFFFFFFFFFFFFFFFFFF NOT AND PUSH28 0xFFFFFFFFFFFFFFFFFFFFFFFFFFFFFFFFFFFFFFFFFFFFFFFFFFFFFFFF NOT AND DUP2 MSTORE PUSH1 0x20 ADD SWAP1 DUP2 MSTORE PUSH1 0x20 ADD PUSH1 0x0 KECCAK256 SLOAD DUP2 GT ISZERO PUSH2 0xE80 JUMPI PUSH1 0x40 MLOAD PUSH32 0x8C379A000000000000000000000000000000000000000000000000000000000 DUP2 MSTORE PUSH1 0x4 ADD PUSH2 0xE77 SWAP1 PUSH2 0x59D2 JUMP JUMPDEST PUSH1 0x40 MLOAD DUP1 SWAP2 SUB SWAP1 REVERT JUMPDEST DUP1 PUSH1 0x2 PUSH1 0x0 PUSH1 0x1 SLOAD DUP2 MSTORE PUSH1 0x20 ADD SWAP1 DUP2 MSTORE PUSH1 0x20 ADD PUSH1 0x0 KECCAK256 PUSH1 0x0 DUP5 DUP2 MSTORE PUSH1 0x20 ADD SWAP1 DUP2 MSTORE PUSH1 0x20 ADD PUSH1 0x0 KECCAK256 PUSH1 0x0 DUP12 PUSH28 0xFFFFFFFFFFFFFFFFFFFFFFFFFFFFFFFFFFFFFFFFFFFFFFFFFFFFFFFF NOT AND PUSH28 0xFFFFFFFFFFFFFFFFFFFFFFFFFFFFFFFFFFFFFFFFFFFFFFFFFFFFFFFF NOT AND DUP2 MSTORE PUSH1 0x20 ADD SWAP1 DUP2 MSTORE PUSH1 0x20 ADD PUSH1 0x0 KECCAK256 DUP2 SWAP1 SSTORE POP POP POP JUMPDEST DUP6 DUP3 PUSH2 0xF09 SWAP2 SWAP1 PUSH2 0x5E75 JUMP JUMPDEST PUSH1 0x5 PUSH1 0x0 SWAP1 SLOAD SWAP1 PUSH2 0x100 EXP SWAP1 DIV PUSH20 0xFFFFFFFFFFFFFFFFFFFFFFFFFFFFFFFFFFFFFFFF AND PUSH20 0xFFFFFFFFFFFFFFFFFFFFFFFFFFFFFFFFFFFFFFFF AND PUSH4 0x70A08231 DUP6 PUSH1 0x40 MLOAD DUP3 PUSH4 0xFFFFFFFF AND PUSH1 0xE0 SHL DUP2 MSTORE PUSH1 0x4 ADD PUSH2 0xF64 SWAP2 SWAP1 PUSH2 0x54D6 JUMP JUMPDEST PUSH1 0x20 PUSH1 0x40 MLOAD DUP1 DUP4 SUB DUP2 DUP7 DUP1 EXTCODESIZE ISZERO DUP1 ISZERO PUSH2 0xF7C JUMPI PUSH1 0x0 DUP1 REVERT JUMPDEST POP GAS STATICCALL ISZERO DUP1 ISZERO PUSH2 0xF90 JUMPI RETURNDATASIZE PUSH1 0x0 DUP1 RETURNDATACOPY RETURNDATASIZE PUSH1 0x0 REVERT JUMPDEST POP POP POP POP PUSH1 0x40 MLOAD RETURNDATASIZE PUSH1 0x1F NOT PUSH1 0x1F DUP3 ADD AND DUP3 ADD DUP1 PUSH1 0x40 MSTORE POP DUP2 ADD SWAP1 PUSH2 0xFB4 SWAP2 SWAP1 PUSH2 0x4BBB JUMP JUMPDEST LT ISZERO PUSH2 0xFF5 JUMPI PUSH1 0x40 MLOAD PUSH32 0x8C379A000000000000000000000000000000000000000000000000000000000 DUP2 MSTORE PUSH1 0x4 ADD PUSH2 0xFEC SWAP1 PUSH2 0x5732 JUMP JUMPDEST PUSH1 0x40 MLOAD DUP1 SWAP2 SUB SWAP1 REVERT JUMPDEST PUSH1 0x0 DUP7 DUP4 PUSH2 0x1003 SWAP2 SWAP1 PUSH2 0x5E75 JUMP JUMPDEST SWAP1 POP PUSH1 0x0 DUP8 PUSH1 0xB SLOAD PUSH1 0xE PUSH1 0x0 DUP13 PUSH28 0xFFFFFFFFFFFFFFFFFFFFFFFFFFFFFFFFFFFFFFFFFFFFFFFFFFFFFFFF NOT AND PUSH28 0xFFFFFFFFFFFFFFFFFFFFFFFFFFFFFFFFFFFFFFFFFFFFFFFFFFFFFFFF NOT AND DUP2 MSTORE PUSH1 0x20 ADD SWAP1 DUP2 MSTORE PUSH1 0x20 ADD PUSH1 0x0 KECCAK256 PUSH1 0x1 ADD SLOAD PUSH1 0xE PUSH1 0x0 DUP14 PUSH28 0xFFFFFFFFFFFFFFFFFFFFFFFFFFFFFFFFFFFFFFFFFFFFFFFFFFFFFFFF NOT AND PUSH28 0xFFFFFFFFFFFFFFFFFFFFFFFFFFFFFFFFFFFFFFFFFFFFFFFFFFFFFFFF NOT AND DUP2 MSTORE PUSH1 0x20 ADD SWAP1 DUP2 MSTORE PUSH1 0x20 ADD PUSH1 0x0 KECCAK256 PUSH1 0x4 ADD SLOAD PUSH2 0x10BF SWAP2 SWAP1 PUSH2 0x5E75 JUMP JUMPDEST PUSH2 0x10C9 SWAP2 SWAP1 PUSH2 0x5CD3 JUMP JUMPDEST PUSH2 0x10D3 SWAP2 SWAP1 PUSH2 0x5E75 JUMP JUMPDEST SWAP1 POP DUP2 PUSH1 0x6 PUSH1 0x0 DUP3 DUP3 SLOAD PUSH2 0x10E7 SWAP2 SWAP1 PUSH2 0x5C7D JUMP JUMPDEST SWAP3 POP POP DUP2 SWAP1 SSTORE POP DUP1 PUSH1 0x7 PUSH1 0x0 DUP3 DUP3 SLOAD PUSH2 0x1100 SWAP2 SWAP1 PUSH2 0x5C7D JUMP JUMPDEST SWAP3 POP POP DUP2 SWAP1 SSTORE POP DUP2 PUSH1 0x13 PUSH1 0x0 DUP8 PUSH20 0xFFFFFFFFFFFFFFFFFFFFFFFFFFFFFFFFFFFFFFFF AND PUSH20 0xFFFFFFFFFFFFFFFFFFFFFFFFFFFFFFFFFFFFFFFF AND DUP2 MSTORE PUSH1 0x20 ADD SWAP1 DUP2 MSTORE PUSH1 0x20 ADD PUSH1 0x0 KECCAK256 PUSH1 0x0 ADD PUSH1 0x0 DUP3 DUP3 SLOAD PUSH2 0x1159 SWAP2 SWAP1 PUSH2 0x5C7D JUMP JUMPDEST SWAP3 POP POP DUP2 SWAP1 SSTORE POP DUP1 PUSH1 0x13 PUSH1 0x0 DUP8 PUSH20 0xFFFFFFFFFFFFFFFFFFFFFFFFFFFFFFFFFFFFFFFF AND PUSH20 0xFFFFFFFFFFFFFFFFFFFFFFFFFFFFFFFFFFFFFFFF AND DUP2 MSTORE PUSH1 0x20 ADD SWAP1 DUP2 MSTORE PUSH1 0x20 ADD PUSH1 0x0 KECCAK256 PUSH1 0x1 ADD PUSH1 0x0 DUP3 DUP3 SLOAD PUSH2 0x11B2 SWAP2 SWAP1 PUSH2 0x5C7D JUMP JUMPDEST SWAP3 POP POP DUP2 SWAP1 SSTORE POP PUSH1 0xA SLOAD PUSH1 0x9 SLOAD DUP4 PUSH2 0x11CA SWAP2 SWAP1 PUSH2 0x5E75 JUMP JUMPDEST PUSH2 0x11D4 SWAP2 SWAP1 PUSH2 0x5CD3 JUMP JUMPDEST PUSH1 0x13 PUSH1 0x0 DUP8 PUSH20 0xFFFFFFFFFFFFFFFFFFFFFFFFFFFFFFFFFFFFFFFF AND PUSH20 0xFFFFFFFFFFFFFFFFFFFFFFFFFFFFFFFFFFFFFFFF AND DUP2 MSTORE PUSH1 0x20 ADD SWAP1 DUP2 MSTORE PUSH1 0x20 ADD PUSH1 0x0 KECCAK256 PUSH1 0x2 ADD DUP2 SWAP1 SSTORE POP PUSH1 0xA SLOAD PUSH1 0x8 SLOAD DUP3 PUSH2 0x122B SWAP2 SWAP1 PUSH2 0x5E75 JUMP JUMPDEST PUSH2 0x1235 SWAP2 SWAP1 PUSH2 0x5CD3 JUMP JUMPDEST PUSH1 0x13 PUSH1 0x0 DUP8 PUSH20 0xFFFFFFFFFFFFFFFFFFFFFFFFFFFFFFFFFFFFFFFF AND PUSH20 0xFFFFFFFFFFFFFFFFFFFFFFFFFFFFFFFFFFFFFFFF AND DUP2 MSTORE PUSH1 0x20 ADD SWAP1 DUP2 MSTORE PUSH1 0x20 ADD PUSH1 0x0 KECCAK256 PUSH1 0x3 ADD DUP2 SWAP1 SSTORE POP PUSH1 0xE PUSH1 0x0 DUP11 PUSH28 0xFFFFFFFFFFFFFFFFFFFFFFFFFFFFFFFFFFFFFFFFFFFFFFFFFFFFFFFF NOT AND PUSH28 0xFFFFFFFFFFFFFFFFFFFFFFFFFFFFFFFFFFFFFFFFFFFFFFFFFFFFFFFF NOT AND DUP2 MSTORE PUSH1 0x20 ADD SWAP1 DUP2 MSTORE PUSH1 0x20 ADD PUSH1 0x0 KECCAK256 PUSH1 0x4 ADD SLOAD PUSH1 0x13 PUSH1 0x0 DUP8 PUSH20 0xFFFFFFFFFFFFFFFFFFFFFFFFFFFFFFFFFFFFFFFF AND PUSH20 0xFFFFFFFFFFFFFFFFFFFFFFFFFFFFFFFFFFFFFFFF AND DUP2 MSTORE PUSH1 0x20 ADD SWAP1 DUP2 MSTORE PUSH1 0x20 ADD PUSH1 0x0 KECCAK256 PUSH1 0x4 ADD PUSH1 0x0 DUP3 DUP3 SLOAD PUSH2 0x1321 SWAP2 SWAP1 PUSH2 0x5C7D JUMP JUMPDEST SWAP3 POP POP DUP2 SWAP1 SSTORE POP PUSH1 0x4 PUSH1 0x0 SWAP1 SLOAD SWAP1 PUSH2 0x100 EXP SWAP1 DIV PUSH20 0xFFFFFFFFFFFFFFFFFFFFFFFFFFFFFFFFFFFFFFFF AND PUSH20 0xFFFFFFFFFFFFFFFFFFFFFFFFFFFFFFFFFFFFFFFF AND PUSH4 0x9287E17C DUP7 DUP12 PUSH1 0x12 SLOAD DUP13 PUSH1 0x40 MLOAD DUP6 PUSH4 0xFFFFFFFF AND PUSH1 0xE0 SHL DUP2 MSTORE PUSH1 0x4 ADD PUSH2 0x138B SWAP5 SWAP4 SWAP3 SWAP2 SWAP1 PUSH2 0x5528 JUMP JUMPDEST PUSH1 0x0 PUSH1 0x40 MLOAD DUP1 DUP4 SUB DUP2 PUSH1 0x0 DUP8 DUP1 EXTCODESIZE ISZERO DUP1 ISZERO PUSH2 0x13A5 JUMPI PUSH1 0x0 DUP1 REVERT JUMPDEST POP GAS CALL ISZERO DUP1 ISZERO PUSH2 0x13B9 JUMPI RETURNDATASIZE PUSH1 0x0 DUP1 RETURNDATACOPY RETURNDATASIZE PUSH1 0x0 REVERT JUMPDEST POP POP POP POP POP POP POP POP POP POP POP POP POP JUMP JUMPDEST PUSH1 0x0 DUP1 DUP4 EQ ISZERO PUSH2 0x13DB JUMPI PUSH1 0x0 SWAP1 POP PUSH2 0x147E JUMP JUMPDEST PUSH1 0x0 PUSH1 0x12 SWAP1 POP PUSH1 0x0 PUSH2 0x13EC DUP6 PUSH2 0x34DE JUMP JUMPDEST PUSH1 0xFF AND SWAP1 POP PUSH1 0x0 DUP3 DUP3 LT ISZERO PUSH2 0x1424 JUMPI DUP2 DUP4 PUSH2 0x1407 SWAP2 SWAP1 PUSH2 0x5ECF JUMP JUMPDEST DUP6 PUSH2 0x1412 SWAP2 SWAP1 PUSH2 0x5ECF JUMP JUMPDEST DUP3 PUSH2 0x141D SWAP2 SWAP1 PUSH2 0x5ECF JUMP JUMPDEST SWAP1 POP PUSH2 0x1449 JUMP JUMPDEST DUP5 DUP4 DUP4 PUSH2 0x1431 SWAP2 SWAP1 PUSH2 0x5ECF JUMP JUMPDEST PUSH2 0x143B SWAP2 SWAP1 PUSH2 0x5C7D JUMP JUMPDEST DUP3 PUSH2 0x1446 SWAP2 SWAP1 PUSH2 0x5ECF JUMP JUMPDEST SWAP1 POP JUMPDEST DUP1 PUSH1 0xA PUSH2 0x1456 SWAP2 SWAP1 PUSH2 0x5D57 JUMP JUMPDEST DUP2 PUSH1 0xA PUSH2 0x1463 SWAP2 SWAP1 PUSH2 0x5D57 JUMP JUMPDEST DUP8 PUSH2 0x146E SWAP2 SWAP1 PUSH2 0x5CD3 JUMP JUMPDEST PUSH2 0x1478 SWAP2 SWAP1 PUSH2 0x5E75 JUMP JUMPDEST SWAP4 POP POP POP POP JUMPDEST SWAP3 SWAP2 POP POP JUMP JUMPDEST PUSH1 0x12 SLOAD DUP2 JUMP JUMPDEST PUSH1 0x4 PUSH1 0x0 SWAP1 SLOAD SWAP1 PUSH2 0x100 EXP SWAP1 DIV PUSH20 0xFFFFFFFFFFFFFFFFFFFFFFFFFFFFFFFFFFFFFFFF AND PUSH20 0xFFFFFFFFFFFFFFFFFFFFFFFFFFFFFFFFFFFFFFFF AND PUSH2 0x14CB PUSH2 0x3C9A JUMP JUMPDEST PUSH20 0xFFFFFFFFFFFFFFFFFFFFFFFFFFFFFFFFFFFFFFFF AND EQ PUSH2 0x14EB JUMPI PUSH1 0x0 DUP1 REVERT JUMPDEST DUP2 PUSH1 0x10 PUSH1 0x0 DUP4 PUSH20 0xFFFFFFFFFFFFFFFFFFFFFFFFFFFFFFFFFFFFFFFF AND PUSH20 0xFFFFFFFFFFFFFFFFFFFFFFFFFFFFFFFFFFFFFFFF AND DUP2 MSTORE PUSH1 0x20 ADD SWAP1 DUP2 MSTORE PUSH1 0x20 ADD PUSH1 0x0 KECCAK256 DUP2 SWAP1 SSTORE POP POP POP JUMP JUMPDEST PUSH2 0x153B PUSH2 0x3C9A JUMP JUMPDEST PUSH20 0xFFFFFFFFFFFFFFFFFFFFFFFFFFFFFFFFFFFFFFFF AND PUSH1 0x0 DUP1 SLOAD SWAP1 PUSH2 0x100 EXP SWAP1 DIV PUSH20 0xFFFFFFFFFFFFFFFFFFFFFFFFFFFFFFFFFFFFFFFF AND PUSH20 0xFFFFFFFFFFFFFFFFFFFFFFFFFFFFFFFFFFFFFFFF AND EQ PUSH2 0x15C8 JUMPI PUSH1 0x40 MLOAD PUSH32 0x8C379A000000000000000000000000000000000000000000000000000000000 DUP2 MSTORE PUSH1 0x4 ADD PUSH2 0x15BF SWAP1 PUSH2 0x58D2 JUMP JUMPDEST PUSH1 0x40 MLOAD DUP1 SWAP2 SUB SWAP1 REVERT JUMPDEST PUSH2 0x15DD DUP6 DUP6 DUP6 DUP6 DUP6 PUSH2 0x15D8 PUSH2 0x20D8 JUMP JUMPDEST PUSH2 0x3D17 JUMP JUMPDEST PUSH1 0x1 SLOAD PUSH32 0xA9A6591C1360580311F20FB817026BB2390A593F2D4A39BC084DAB4E93B4BD08 DUP7 DUP7 DUP7 PUSH1 0x0 PUSH1 0x40 MLOAD PUSH2 0x1616 SWAP5 SWAP4 SWAP3 SWAP2 SWAP1 PUSH2 0x5AC1 JUMP JUMPDEST PUSH1 0x40 MLOAD DUP1 SWAP2 SUB SWAP1 LOG2 POP POP POP POP POP JUMP JUMPDEST PUSH1 0x6 SLOAD DUP2 JUMP JUMPDEST PUSH2 0x1633 PUSH2 0x3C9A JUMP JUMPDEST PUSH20 0xFFFFFFFFFFFFFFFFFFFFFFFFFFFFFFFFFFFFFFFF AND PUSH1 0x0 DUP1 SLOAD SWAP1 PUSH2 0x100 EXP SWAP1 DIV PUSH20 0xFFFFFFFFFFFFFFFFFFFFFFFFFFFFFFFFFFFFFFFF AND PUSH20 0xFFFFFFFFFFFFFFFFFFFFFFFFFFFFFFFFFFFFFFFF AND EQ PUSH2 0x16C0 JUMPI PUSH1 0x40 MLOAD PUSH32 0x8C379A000000000000000000000000000000000000000000000000000000000 DUP2 MSTORE PUSH1 0x4 ADD PUSH2 0x16B7 SWAP1 PUSH2 0x58D2 JUMP JUMPDEST PUSH1 0x40 MLOAD DUP1 SWAP2 SUB SWAP1 REVERT JUMPDEST PUSH1 0x4 PUSH1 0x0 SWAP1 SLOAD SWAP1 PUSH2 0x100 EXP SWAP1 DIV PUSH20 0xFFFFFFFFFFFFFFFFFFFFFFFFFFFFFFFFFFFFFFFF AND PUSH20 0xFFFFFFFFFFFFFFFFFFFFFFFFFFFFFFFFFFFFFFFF AND PUSH4 0x55F804B3 DUP3 PUSH1 0x40 MLOAD DUP3 PUSH4 0xFFFFFFFF AND PUSH1 0xE0 SHL DUP2 MSTORE PUSH1 0x4 ADD PUSH2 0x171B SWAP2 SWAP1 PUSH2 0x5624 JUMP JUMPDEST PUSH1 0x0 PUSH1 0x40 MLOAD DUP1 DUP4 SUB DUP2 PUSH1 0x0 DUP8 DUP1 EXTCODESIZE ISZERO DUP1 ISZERO PUSH2 0x1735 JUMPI PUSH1 0x0 DUP1 REVERT JUMPDEST POP GAS CALL ISZERO DUP1 ISZERO PUSH2 0x1749 JUMPI RETURNDATASIZE PUSH1 0x0 DUP1 RETURNDATACOPY RETURNDATASIZE PUSH1 0x0 REVERT JUMPDEST POP POP POP POP POP JUMP JUMPDEST PUSH1 0xC PUSH1 0x0 SWAP1 SLOAD SWAP1 PUSH2 0x100 EXP SWAP1 DIV PUSH1 0xFF AND DUP2 JUMP JUMPDEST PUSH1 0x0 PUSH2 0x176D PUSH2 0x2C64 JUMP JUMPDEST ISZERO PUSH2 0x17C6 JUMPI PUSH1 0x0 TIMESTAMP SWAP1 POP DUP1 PUSH1 0x3 PUSH1 0x0 PUSH1 0x1 SLOAD DUP2 MSTORE PUSH1 0x20 ADD SWAP1 DUP2 MSTORE PUSH1 0x20 ADD PUSH1 0x0 KECCAK256 PUSH1 0x0 ADD SLOAD LT DUP1 ISZERO PUSH2 0x17B5 JUMPI POP DUP1 PUSH1 0x3 PUSH1 0x0 PUSH1 0x1 SLOAD DUP2 MSTORE PUSH1 0x20 ADD SWAP1 DUP2 MSTORE PUSH1 0x20 ADD PUSH1 0x0 KECCAK256 PUSH1 0x2 ADD SLOAD GT JUMPDEST ISZERO PUSH2 0x17C4 JUMPI PUSH1 0x1 SWAP2 POP POP PUSH2 0x17CB JUMP JUMPDEST POP JUMPDEST PUSH1 0x0 SWAP1 POP JUMPDEST SWAP1 JUMP JUMPDEST PUSH2 0x17D6 PUSH2 0x3C9A JUMP JUMPDEST PUSH20 0xFFFFFFFFFFFFFFFFFFFFFFFFFFFFFFFFFFFFFFFF AND PUSH1 0x0 DUP1 SLOAD SWAP1 PUSH2 0x100 EXP SWAP1 DIV PUSH20 0xFFFFFFFFFFFFFFFFFFFFFFFFFFFFFFFFFFFFFFFF AND PUSH20 0xFFFFFFFFFFFFFFFFFFFFFFFFFFFFFFFFFFFFFFFF AND EQ PUSH2 0x1863 JUMPI PUSH1 0x40 MLOAD PUSH32 0x8C379A000000000000000000000000000000000000000000000000000000000 DUP2 MSTORE PUSH1 0x4 ADD PUSH2 0x185A SWAP1 PUSH2 0x58D2 JUMP JUMPDEST PUSH1 0x40 MLOAD DUP1 SWAP2 SUB SWAP1 REVERT JUMPDEST PUSH1 0x0 TIMESTAMP SWAP1 POP PUSH2 0x1893 DUP7 DUP3 PUSH2 0x1877 SWAP2 SWAP1 PUSH2 0x5C7D JUMP JUMPDEST DUP7 DUP4 PUSH2 0x1883 SWAP2 SWAP1 PUSH2 0x5C7D JUMP JUMPDEST DUP7 DUP7 DUP7 PUSH2 0x188E PUSH2 0x20D8 JUMP JUMPDEST PUSH2 0x3D17 JUMP JUMPDEST PUSH1 0x1 SLOAD PUSH32 0xA9A6591C1360580311F20FB817026BB2390A593F2D4A39BC084DAB4E93B4BD08 DUP8 DUP4 PUSH2 0x18C3 SWAP2 SWAP1 PUSH2 0x5C7D JUMP JUMPDEST DUP8 DUP5 PUSH2 0x18CF SWAP2 SWAP1 PUSH2 0x5C7D JUMP JUMPDEST DUP8 PUSH1 0x0 PUSH1 0x40 MLOAD PUSH2 0x18E2 SWAP5 SWAP4 SWAP3 SWAP2 SWAP1 PUSH2 0x5AC1 JUMP JUMPDEST PUSH1 0x40 MLOAD DUP1 SWAP2 SUB SWAP1 LOG2 POP POP POP POP POP POP JUMP JUMPDEST PUSH1 0x4 PUSH1 0x0 SWAP1 SLOAD SWAP1 PUSH2 0x100 EXP SWAP1 DIV PUSH20 0xFFFFFFFFFFFFFFFFFFFFFFFFFFFFFFFFFFFFFFFF AND DUP2 JUMP JUMPDEST PUSH2 0x1920 PUSH2 0x3C9A JUMP JUMPDEST PUSH20 0xFFFFFFFFFFFFFFFFFFFFFFFFFFFFFFFFFFFFFFFF AND PUSH1 0x0 DUP1 SLOAD SWAP1 PUSH2 0x100 EXP SWAP1 DIV PUSH20 0xFFFFFFFFFFFFFFFFFFFFFFFFFFFFFFFFFFFFFFFF AND PUSH20 0xFFFFFFFFFFFFFFFFFFFFFFFFFFFFFFFFFFFFFFFF AND EQ PUSH2 0x19AD JUMPI PUSH1 0x40 MLOAD PUSH32 0x8C379A000000000000000000000000000000000000000000000000000000000 DUP2 MSTORE PUSH1 0x4 ADD PUSH2 0x19A4 SWAP1 PUSH2 0x58D2 JUMP JUMPDEST PUSH1 0x40 MLOAD DUP1 SWAP2 SUB SWAP1 REVERT JUMPDEST PUSH2 0x19C4 DUP8 DUP8 DUP8 DUP8 DUP8 DUP8 DUP8 PUSH2 0x19BF PUSH2 0x20D8 JUMP JUMPDEST PUSH2 0x410C JUMP JUMPDEST PUSH1 0x1 SLOAD PUSH32 0xA9A6591C1360580311F20FB817026BB2390A593F2D4A39BC084DAB4E93B4BD08 DUP9 DUP8 DUP7 PUSH1 0x1 PUSH1 0x40 MLOAD PUSH2 0x19FD SWAP5 SWAP4 SWAP3 SWAP2 SWAP1 PUSH2 0x5AC1 JUMP JUMPDEST PUSH1 0x40 MLOAD DUP1 SWAP2 SUB SWAP1 LOG2 POP POP POP POP POP POP POP JUMP JUMPDEST PUSH1 0x0 PUSH2 0x1A18 PUSH2 0x3C9A JUMP JUMPDEST PUSH20 0xFFFFFFFFFFFFFFFFFFFFFFFFFFFFFFFFFFFFFFFF AND PUSH1 0x0 DUP1 SLOAD SWAP1 PUSH2 0x100 EXP SWAP1 DIV PUSH20 0xFFFFFFFFFFFFFFFFFFFFFFFFFFFFFFFFFFFFFFFF AND PUSH20 0xFFFFFFFFFFFFFFFFFFFFFFFFFFFFFFFFFFFFFFFF AND EQ PUSH2 0x1AA5 JUMPI PUSH1 0x40 MLOAD PUSH32 0x8C379A000000000000000000000000000000000000000000000000000000000 DUP2 MSTORE PUSH1 0x4 ADD PUSH2 0x1A9C SWAP1 PUSH2 0x58D2 JUMP JUMPDEST PUSH1 0x40 MLOAD DUP1 SWAP2 SUB SWAP1 REVERT JUMPDEST PUSH2 0x1AAD PUSH2 0x2C64 JUMP JUMPDEST ISZERO PUSH2 0x1AED JUMPI PUSH1 0x40 MLOAD PUSH32 0x8C379A000000000000000000000000000000000000000000000000000000000 DUP2 MSTORE PUSH1 0x4 ADD PUSH2 0x1AE4 SWAP1 PUSH2 0x57D2 JUMP JUMPDEST PUSH1 0x40 MLOAD DUP1 SWAP2 SUB SWAP1 REVERT JUMPDEST PUSH1 0xD DUP1 SLOAD SWAP1 POP PUSH1 0xA GT PUSH2 0x1B35 JUMPI PUSH1 0x40 MLOAD PUSH32 0x8C379A000000000000000000000000000000000000000000000000000000000 DUP2 MSTORE PUSH1 0x4 ADD PUSH2 0x1B2C SWAP1 PUSH2 0x56B2 JUMP JUMPDEST PUSH1 0x40 MLOAD DUP1 SWAP2 SUB SWAP1 REVERT JUMPDEST PUSH1 0xD DUP1 SLOAD SWAP1 POP DUP4 GT ISZERO PUSH2 0x1B7D JUMPI PUSH1 0x40 MLOAD PUSH32 0x8C379A000000000000000000000000000000000000000000000000000000000 DUP2 MSTORE PUSH1 0x4 ADD PUSH2 0x1B74 SWAP1 PUSH2 0x58B2 JUMP JUMPDEST PUSH1 0x40 MLOAD DUP1 SWAP2 SUB SWAP1 REVERT JUMPDEST PUSH1 0x0 DUP7 DUP7 TIMESTAMP DUP6 PUSH1 0x40 MLOAD PUSH1 0x20 ADD PUSH2 0x1B96 SWAP5 SWAP4 SWAP3 SWAP2 SWAP1 PUSH2 0x548C JUMP JUMPDEST PUSH1 0x40 MLOAD PUSH1 0x20 DUP2 DUP4 SUB SUB DUP2 MSTORE SWAP1 PUSH1 0x40 MSTORE DUP1 MLOAD SWAP1 PUSH1 0x20 ADD KECCAK256 SWAP1 POP PUSH1 0x0 PUSH1 0x40 MLOAD DUP1 PUSH1 0xC0 ADD PUSH1 0x40 MSTORE DUP1 DUP4 PUSH28 0xFFFFFFFFFFFFFFFFFFFFFFFFFFFFFFFFFFFFFFFFFFFFFFFFFFFFFFFF NOT AND DUP2 MSTORE PUSH1 0x20 ADD PUSH1 0x1 ISZERO ISZERO DUP2 MSTORE PUSH1 0x20 ADD DUP9 DUP2 MSTORE PUSH1 0x20 ADD DUP8 DUP2 MSTORE PUSH1 0x20 ADD DUP10 DUP2 MSTORE PUSH1 0x20 ADD DUP6 DUP2 MSTORE POP SWAP1 POP PUSH1 0xD PUSH1 0x1 DUP2 PUSH1 0x1 DUP2 SLOAD ADD DUP1 DUP3 SSTORE DUP1 SWAP2 POP POP SUB SWAP1 PUSH1 0x0 MSTORE PUSH1 0x20 PUSH1 0x0 KECCAK256 SWAP1 PUSH1 0x8 SWAP2 DUP3 DUP3 DIV ADD SWAP2 SWAP1 MOD PUSH1 0x4 MUL SWAP1 SLOAD SWAP1 PUSH2 0x100 EXP SWAP1 POP POP PUSH1 0x0 PUSH1 0x1 PUSH1 0xD DUP1 SLOAD SWAP1 POP PUSH2 0x1C48 SWAP2 SWAP1 PUSH2 0x5ECF JUMP JUMPDEST SWAP1 POP JUMPDEST DUP6 DUP2 LT PUSH2 0x1D3E JUMPI DUP6 DUP2 EQ ISZERO PUSH2 0x1CA4 JUMPI DUP3 PUSH1 0xD DUP3 DUP2 SLOAD DUP2 LT PUSH2 0x1C6F JUMPI PUSH2 0x1C6E PUSH2 0x626B JUMP JUMPDEST JUMPDEST SWAP1 PUSH1 0x0 MSTORE PUSH1 0x20 PUSH1 0x0 KECCAK256 SWAP1 PUSH1 0x8 SWAP2 DUP3 DUP3 DIV ADD SWAP2 SWAP1 MOD PUSH1 0x4 MUL PUSH2 0x100 EXP DUP2 SLOAD DUP2 PUSH4 0xFFFFFFFF MUL NOT AND SWAP1 DUP4 PUSH1 0xE0 SHR MUL OR SWAP1 SSTORE POP PUSH2 0x1D3E JUMP JUMPDEST PUSH1 0xD PUSH1 0x1 DUP3 PUSH2 0x1CB3 SWAP2 SWAP1 PUSH2 0x5ECF JUMP JUMPDEST DUP2 SLOAD DUP2 LT PUSH2 0x1CC4 JUMPI PUSH2 0x1CC3 PUSH2 0x626B JUMP JUMPDEST JUMPDEST SWAP1 PUSH1 0x0 MSTORE PUSH1 0x20 PUSH1 0x0 KECCAK256 SWAP1 PUSH1 0x8 SWAP2 DUP3 DUP3 DIV ADD SWAP2 SWAP1 MOD PUSH1 0x4 MUL SWAP1 SLOAD SWAP1 PUSH2 0x100 EXP SWAP1 DIV PUSH1 0xE0 SHL PUSH1 0xD DUP3 DUP2 SLOAD DUP2 LT PUSH2 0x1CFB JUMPI PUSH2 0x1CFA PUSH2 0x626B JUMP JUMPDEST JUMPDEST SWAP1 PUSH1 0x0 MSTORE PUSH1 0x20 PUSH1 0x0 KECCAK256 SWAP1 PUSH1 0x8 SWAP2 DUP3 DUP3 DIV ADD SWAP2 SWAP1 MOD PUSH1 0x4 MUL PUSH2 0x100 EXP DUP2 SLOAD DUP2 PUSH4 0xFFFFFFFF MUL NOT AND SWAP1 DUP4 PUSH1 0xE0 SHR MUL OR SWAP1 SSTORE POP DUP1 DUP1 PUSH2 0x1D36 SWAP1 PUSH2 0x6050 JUMP JUMPDEST SWAP2 POP POP PUSH2 0x1C4B JUMP JUMPDEST POP DUP1 PUSH1 0xE PUSH1 0x0 DUP5 PUSH28 0xFFFFFFFFFFFFFFFFFFFFFFFFFFFFFFFFFFFFFFFFFFFFFFFFFFFFFFFF NOT AND PUSH28 0xFFFFFFFFFFFFFFFFFFFFFFFFFFFFFFFFFFFFFFFFFFFFFFFFFFFFFFFF NOT AND DUP2 MSTORE PUSH1 0x20 ADD SWAP1 DUP2 MSTORE PUSH1 0x20 ADD PUSH1 0x0 KECCAK256 PUSH1 0x0 DUP3 ADD MLOAD DUP2 PUSH1 0x0 ADD PUSH1 0x0 PUSH2 0x100 EXP DUP2 SLOAD DUP2 PUSH4 0xFFFFFFFF MUL NOT AND SWAP1 DUP4 PUSH1 0xE0 SHR MUL OR SWAP1 SSTORE POP PUSH1 0x20 DUP3 ADD MLOAD DUP2 PUSH1 0x0 ADD PUSH1 0x4 PUSH2 0x100 EXP DUP2 SLOAD DUP2 PUSH1 0xFF MUL NOT AND SWAP1 DUP4 ISZERO ISZERO MUL OR SWAP1 SSTORE POP PUSH1 0x40 DUP3 ADD MLOAD DUP2 PUSH1 0x1 ADD SSTORE PUSH1 0x60 DUP3 ADD MLOAD DUP2 PUSH1 0x2 ADD SSTORE PUSH1 0x80 DUP3 ADD MLOAD DUP2 PUSH1 0x3 ADD SWAP1 DUP1 MLOAD SWAP1 PUSH1 0x20 ADD SWAP1 PUSH2 0x1E05 SWAP3 SWAP2 SWAP1 PUSH2 0x45AA JUMP JUMPDEST POP PUSH1 0xA0 DUP3 ADD MLOAD DUP2 PUSH1 0x4 ADD SSTORE SWAP1 POP POP DUP2 PUSH28 0xFFFFFFFFFFFFFFFFFFFFFFFFFFFFFFFFFFFFFFFFFFFFFFFFFFFFFFFF NOT AND PUSH32 0xDAEA932DCFEC6084B0770111ACDA33CC55AA7D7F428C94A4D3EF6AF4786A4F69 DUP10 DUP10 DUP10 DUP9 PUSH1 0x40 MLOAD PUSH2 0x1E68 SWAP5 SWAP4 SWAP3 SWAP2 SWAP1 PUSH2 0x5646 JUMP JUMPDEST PUSH1 0x40 MLOAD DUP1 SWAP2 SUB SWAP1 LOG2 DUP2 SWAP3 POP POP POP SWAP6 SWAP5 POP POP POP POP POP JUMP JUMPDEST PUSH2 0x1E86 PUSH2 0x3C9A JUMP JUMPDEST PUSH20 0xFFFFFFFFFFFFFFFFFFFFFFFFFFFFFFFFFFFFFFFF AND PUSH1 0x0 DUP1 SLOAD SWAP1 PUSH2 0x100 EXP SWAP1 DIV PUSH20 0xFFFFFFFFFFFFFFFFFFFFFFFFFFFFFFFFFFFFFFFF AND PUSH20 0xFFFFFFFFFFFFFFFFFFFFFFFFFFFFFFFFFFFFFFFF AND EQ PUSH2 0x1F13 JUMPI PUSH1 0x40 MLOAD PUSH32 0x8C379A000000000000000000000000000000000000000000000000000000000 DUP2 MSTORE PUSH1 0x4 ADD PUSH2 0x1F0A SWAP1 PUSH2 0x58D2 JUMP JUMPDEST PUSH1 0x40 MLOAD DUP1 SWAP2 SUB SWAP1 REVERT JUMPDEST PUSH1 0x0 PUSH20 0xFFFFFFFFFFFFFFFFFFFFFFFFFFFFFFFFFFFFFFFF AND PUSH1 0x0 DUP1 SLOAD SWAP1 PUSH2 0x100 EXP SWAP1 DIV PUSH20 0xFFFFFFFFFFFFFFFFFFFFFFFFFFFFFFFFFFFFFFFF AND PUSH20 0xFFFFFFFFFFFFFFFFFFFFFFFFFFFFFFFFFFFFFFFF AND PUSH32 0x8BE0079C531659141344CD1FD0A4F28419497F9722A3DAAFE3B4186F6B6457E0 PUSH1 0x40 MLOAD PUSH1 0x40 MLOAD DUP1 SWAP2 SUB SWAP1 LOG3 PUSH1 0x0 DUP1 PUSH1 0x0 PUSH2 0x100 EXP DUP2 SLOAD DUP2 PUSH20 0xFFFFFFFFFFFFFFFFFFFFFFFFFFFFFFFFFFFFFFFF MUL NOT AND SWAP1 DUP4 PUSH20 0xFFFFFFFFFFFFFFFFFFFFFFFFFFFFFFFFFFFFFFFF AND MUL OR SWAP1 SSTORE POP JUMP JUMPDEST PUSH2 0x1FD9 PUSH2 0x3C9A JUMP JUMPDEST PUSH20 0xFFFFFFFFFFFFFFFFFFFFFFFFFFFFFFFFFFFFFFFF AND PUSH1 0x0 DUP1 SLOAD SWAP1 PUSH2 0x100 EXP SWAP1 DIV PUSH20 0xFFFFFFFFFFFFFFFFFFFFFFFFFFFFFFFFFFFFFFFF AND PUSH20 0xFFFFFFFFFFFFFFFFFFFFFFFFFFFFFFFFFFFFFFFF AND EQ PUSH2 0x2066 JUMPI PUSH1 0x40 MLOAD PUSH32 0x8C379A000000000000000000000000000000000000000000000000000000000 DUP2 MSTORE PUSH1 0x4 ADD PUSH2 0x205D SWAP1 PUSH2 0x58D2 JUMP JUMPDEST PUSH1 0x40 MLOAD DUP1 SWAP2 SUB SWAP1 REVERT JUMPDEST PUSH1 0xC PUSH1 0x0 SWAP1 SLOAD SWAP1 PUSH2 0x100 EXP SWAP1 DIV PUSH1 0xFF AND ISZERO PUSH1 0xC PUSH1 0x0 PUSH2 0x100 EXP DUP2 SLOAD DUP2 PUSH1 0xFF MUL NOT AND SWAP1 DUP4 ISZERO ISZERO MUL OR SWAP1 SSTORE POP PUSH32 0x3A7704BECD2600E61CC14E64588E9A21E4E8B78F5A2E230F016B830C2E764580 PUSH1 0xC PUSH1 0x0 SWAP1 SLOAD SWAP1 PUSH2 0x100 EXP SWAP1 DIV PUSH1 0xFF AND PUSH1 0x40 MLOAD PUSH2 0x20CE SWAP2 SWAP1 PUSH2 0x55B8 JUMP JUMPDEST PUSH1 0x40 MLOAD DUP1 SWAP2 SUB SWAP1 LOG1 JUMP JUMPDEST PUSH1 0x60 PUSH1 0xD DUP1 SLOAD DUP1 PUSH1 0x20 MUL PUSH1 0x20 ADD PUSH1 0x40 MLOAD SWAP1 DUP2 ADD PUSH1 0x40 MSTORE DUP1 SWAP3 SWAP2 SWAP1 DUP2 DUP2 MSTORE PUSH1 0x20 ADD DUP3 DUP1 SLOAD DUP1 ISZERO PUSH2 0x2168 JUMPI PUSH1 0x20 MUL DUP3 ADD SWAP2 SWAP1 PUSH1 0x0 MSTORE PUSH1 0x20 PUSH1 0x0 KECCAK256 SWAP1 PUSH1 0x0 SWAP1 JUMPDEST DUP3 DUP3 SWAP1 SLOAD SWAP1 PUSH2 0x100 EXP SWAP1 DIV PUSH1 0xE0 SHL PUSH28 0xFFFFFFFFFFFFFFFFFFFFFFFFFFFFFFFFFFFFFFFFFFFFFFFFFFFFFFFF NOT AND DUP2 MSTORE PUSH1 0x20 ADD SWAP1 PUSH1 0x4 ADD SWAP1 PUSH1 0x20 DUP3 PUSH1 0x3 ADD DIV SWAP3 DUP4 ADD SWAP3 PUSH1 0x1 SUB DUP3 MUL SWAP2 POP DUP1 DUP5 GT PUSH2 0x2115 JUMPI SWAP1 POP JUMPDEST POP POP POP POP POP SWAP1 POP SWAP1 JUMP JUMPDEST PUSH2 0x217A PUSH2 0x3C9A JUMP JUMPDEST PUSH20 0xFFFFFFFFFFFFFFFFFFFFFFFFFFFFFFFFFFFFFFFF AND PUSH1 0x0 DUP1 SLOAD SWAP1 PUSH2 0x100 EXP SWAP1 DIV PUSH20 0xFFFFFFFFFFFFFFFFFFFFFFFFFFFFFFFFFFFFFFFF AND PUSH20 0xFFFFFFFFFFFFFFFFFFFFFFFFFFFFFFFFFFFFFFFF AND EQ PUSH2 0x2207 JUMPI PUSH1 0x40 MLOAD PUSH32 0x8C379A000000000000000000000000000000000000000000000000000000000 DUP2 MSTORE PUSH1 0x4 ADD PUSH2 0x21FE SWAP1 PUSH2 0x58D2 JUMP JUMPDEST PUSH1 0x40 MLOAD DUP1 SWAP2 SUB SWAP1 REVERT JUMPDEST PUSH2 0x220F PUSH2 0x2C64 JUMP JUMPDEST ISZERO PUSH2 0x224F JUMPI PUSH1 0x40 MLOAD PUSH32 0x8C379A000000000000000000000000000000000000000000000000000000000 DUP2 MSTORE PUSH1 0x4 ADD PUSH2 0x2246 SWAP1 PUSH2 0x59B2 JUMP JUMPDEST PUSH1 0x40 MLOAD DUP1 SWAP2 SUB SWAP1 REVERT JUMPDEST PUSH1 0x1 ISZERO ISZERO PUSH1 0xE PUSH1 0x0 DUP4 PUSH28 0xFFFFFFFFFFFFFFFFFFFFFFFFFFFFFFFFFFFFFFFFFFFFFFFFFFFFFFFF NOT AND PUSH28 0xFFFFFFFFFFFFFFFFFFFFFFFFFFFFFFFFFFFFFFFFFFFFFFFFFFFFFFFF NOT AND DUP2 MSTORE PUSH1 0x20 ADD SWAP1 DUP2 MSTORE PUSH1 0x20 ADD PUSH1 0x0 KECCAK256 PUSH1 0x0 ADD PUSH1 0x4 SWAP1 SLOAD SWAP1 PUSH2 0x100 EXP SWAP1 DIV PUSH1 0xFF AND ISZERO ISZERO EQ PUSH2 0x22F7 JUMPI PUSH1 0x40 MLOAD PUSH32 0x8C379A000000000000000000000000000000000000000000000000000000000 DUP2 MSTORE PUSH1 0x4 ADD PUSH2 0x22EE SWAP1 PUSH2 0x57F2 JUMP JUMPDEST PUSH1 0x40 MLOAD DUP1 SWAP2 SUB SWAP1 REVERT JUMPDEST PUSH1 0x0 DUP1 PUSH1 0x0 SWAP1 POP PUSH1 0x0 JUMPDEST PUSH1 0xD DUP1 SLOAD SWAP1 POP DUP2 LT ISZERO PUSH2 0x23A9 JUMPI DUP4 PUSH28 0xFFFFFFFFFFFFFFFFFFFFFFFFFFFFFFFFFFFFFFFFFFFFFFFFFFFFFFFF NOT AND PUSH1 0xD DUP3 DUP2 SLOAD DUP2 LT PUSH2 0x2342 JUMPI PUSH2 0x2341 PUSH2 0x626B JUMP JUMPDEST JUMPDEST SWAP1 PUSH1 0x0 MSTORE PUSH1 0x20 PUSH1 0x0 KECCAK256 SWAP1 PUSH1 0x8 SWAP2 DUP3 DUP3 DIV ADD SWAP2 SWAP1 MOD PUSH1 0x4 MUL SWAP1 SLOAD SWAP1 PUSH2 0x100 EXP SWAP1 DIV PUSH1 0xE0 SHL PUSH28 0xFFFFFFFFFFFFFFFFFFFFFFFFFFFFFFFFFFFFFFFFFFFFFFFFFFFFFFFF NOT AND EQ ISZERO PUSH2 0x2396 JUMPI DUP1 SWAP3 POP PUSH1 0x1 SWAP2 POP PUSH2 0x23A9 JUMP JUMPDEST DUP1 DUP1 PUSH2 0x23A1 SWAP1 PUSH2 0x60DD JUMP JUMPDEST SWAP2 POP POP PUSH2 0x2301 JUMP JUMPDEST POP DUP1 PUSH2 0x23B4 JUMPI PUSH1 0x0 DUP1 REVERT JUMPDEST PUSH1 0x0 DUP3 SWAP1 POP JUMPDEST PUSH1 0x1 PUSH1 0xD DUP1 SLOAD SWAP1 POP PUSH2 0x23CC SWAP2 SWAP1 PUSH2 0x5ECF JUMP JUMPDEST DUP2 LT ISZERO PUSH2 0x246D JUMPI PUSH1 0xD PUSH1 0x1 DUP3 PUSH2 0x23E2 SWAP2 SWAP1 PUSH2 0x5C7D JUMP JUMPDEST DUP2 SLOAD DUP2 LT PUSH2 0x23F3 JUMPI PUSH2 0x23F2 PUSH2 0x626B JUMP JUMPDEST JUMPDEST SWAP1 PUSH1 0x0 MSTORE PUSH1 0x20 PUSH1 0x0 KECCAK256 SWAP1 PUSH1 0x8 SWAP2 DUP3 DUP3 DIV ADD SWAP2 SWAP1 MOD PUSH1 0x4 MUL SWAP1 SLOAD SWAP1 PUSH2 0x100 EXP SWAP1 DIV PUSH1 0xE0 SHL PUSH1 0xD DUP3 DUP2 SLOAD DUP2 LT PUSH2 0x242A JUMPI PUSH2 0x2429 PUSH2 0x626B JUMP JUMPDEST JUMPDEST SWAP1 PUSH1 0x0 MSTORE PUSH1 0x20 PUSH1 0x0 KECCAK256 SWAP1 PUSH1 0x8 SWAP2 DUP3 DUP3 DIV ADD SWAP2 SWAP1 MOD PUSH1 0x4 MUL PUSH2 0x100 EXP DUP2 SLOAD DUP2 PUSH4 0xFFFFFFFF MUL NOT AND SWAP1 DUP4 PUSH1 0xE0 SHR MUL OR SWAP1 SSTORE POP DUP1 DUP1 PUSH2 0x2465 SWAP1 PUSH2 0x60DD JUMP JUMPDEST SWAP2 POP POP PUSH2 0x23BA JUMP JUMPDEST POP PUSH1 0xD DUP1 SLOAD DUP1 PUSH2 0x2480 JUMPI PUSH2 0x247F PUSH2 0x623C JUMP JUMPDEST JUMPDEST PUSH1 0x1 SWAP1 SUB DUP2 DUP2 SWAP1 PUSH1 0x0 MSTORE PUSH1 0x20 PUSH1 0x0 KECCAK256 SWAP1 PUSH1 0x8 SWAP2 DUP3 DUP3 DIV ADD SWAP2 SWAP1 MOD PUSH1 0x4 MUL PUSH2 0x100 EXP DUP2 SLOAD SWAP1 PUSH4 0xFFFFFFFF MUL NOT AND SWAP1 SSTORE SWAP1 SSTORE PUSH1 0x0 PUSH1 0xE PUSH1 0x0 DUP6 PUSH28 0xFFFFFFFFFFFFFFFFFFFFFFFFFFFFFFFFFFFFFFFFFFFFFFFFFFFFFFFF NOT AND PUSH28 0xFFFFFFFFFFFFFFFFFFFFFFFFFFFFFFFFFFFFFFFFFFFFFFFFFFFFFFFF NOT AND DUP2 MSTORE PUSH1 0x20 ADD SWAP1 DUP2 MSTORE PUSH1 0x20 ADD PUSH1 0x0 KECCAK256 PUSH1 0x0 ADD PUSH1 0x4 PUSH2 0x100 EXP DUP2 SLOAD DUP2 PUSH1 0xFF MUL NOT AND SWAP1 DUP4 ISZERO ISZERO MUL OR SWAP1 SSTORE POP DUP3 PUSH28 0xFFFFFFFFFFFFFFFFFFFFFFFFFFFFFFFFFFFFFFFFFFFFFFFFFFFFFFFF NOT AND PUSH32 0xC20EAF21413E3E58F46C8B4D63A1A0371EE4EAB16F070518B3F50C629008A226 PUSH1 0x0 PUSH1 0x40 MLOAD PUSH2 0x256D SWAP2 SWAP1 PUSH2 0x55B8 JUMP JUMPDEST PUSH1 0x40 MLOAD DUP1 SWAP2 SUB SWAP1 LOG2 POP POP POP JUMP JUMPDEST PUSH2 0x2582 PUSH2 0x3C9A JUMP JUMPDEST PUSH20 0xFFFFFFFFFFFFFFFFFFFFFFFFFFFFFFFFFFFFFFFF AND PUSH1 0x0 DUP1 SLOAD SWAP1 PUSH2 0x100 EXP SWAP1 DIV PUSH20 0xFFFFFFFFFFFFFFFFFFFFFFFFFFFFFFFFFFFFFFFF AND PUSH20 0xFFFFFFFFFFFFFFFFFFFFFFFFFFFFFFFFFFFFFFFF AND EQ PUSH2 0x260F JUMPI PUSH1 0x40 MLOAD PUSH32 0x8C379A000000000000000000000000000000000000000000000000000000000 DUP2 MSTORE PUSH1 0x4 ADD PUSH2 0x2606 SWAP1 PUSH2 0x58D2 JUMP JUMPDEST PUSH1 0x40 MLOAD DUP1 SWAP2 SUB SWAP1 REVERT JUMPDEST PUSH1 0x4 PUSH1 0x0 SWAP1 SLOAD SWAP1 PUSH2 0x100 EXP SWAP1 DIV PUSH20 0xFFFFFFFFFFFFFFFFFFFFFFFFFFFFFFFFFFFFFFFF AND PUSH20 0xFFFFFFFFFFFFFFFFFFFFFFFFFFFFFFFFFFFFFFFF AND PUSH4 0x8C5CF30 ADDRESS PUSH1 0x40 MLOAD DUP3 PUSH4 0xFFFFFFFF AND PUSH1 0xE0 SHL DUP2 MSTORE PUSH1 0x4 ADD PUSH2 0x266A SWAP2 SWAP1 PUSH2 0x54D6 JUMP JUMPDEST PUSH1 0x0 PUSH1 0x40 MLOAD DUP1 DUP4 SUB DUP2 PUSH1 0x0 DUP8 DUP1 EXTCODESIZE ISZERO DUP1 ISZERO PUSH2 0x2684 JUMPI PUSH1 0x0 DUP1 REVERT JUMPDEST POP GAS CALL ISZERO DUP1 ISZERO PUSH2 0x2698 JUMPI RETURNDATASIZE PUSH1 0x0 DUP1 RETURNDATACOPY RETURNDATASIZE PUSH1 0x0 REVERT JUMPDEST POP POP POP POP JUMP JUMPDEST PUSH1 0x0 DUP1 PUSH1 0x0 SWAP1 SLOAD SWAP1 PUSH2 0x100 EXP SWAP1 DIV PUSH20 0xFFFFFFFFFFFFFFFFFFFFFFFFFFFFFFFFFFFFFFFF AND SWAP1 POP SWAP1 JUMP JUMPDEST PUSH2 0x26CF PUSH2 0x3C9A JUMP JUMPDEST PUSH20 0xFFFFFFFFFFFFFFFFFFFFFFFFFFFFFFFFFFFFFFFF AND PUSH1 0x0 DUP1 SLOAD SWAP1 PUSH2 0x100 EXP SWAP1 DIV PUSH20 0xFFFFFFFFFFFFFFFFFFFFFFFFFFFFFFFFFFFFFFFF AND PUSH20 0xFFFFFFFFFFFFFFFFFFFFFFFFFFFFFFFFFFFFFFFF AND EQ PUSH2 0x275C JUMPI PUSH1 0x40 MLOAD PUSH32 0x8C379A000000000000000000000000000000000000000000000000000000000 DUP2 MSTORE PUSH1 0x4 ADD PUSH2 0x2753 SWAP1 PUSH2 0x58D2 JUMP JUMPDEST PUSH1 0x40 MLOAD DUP1 SWAP2 SUB SWAP1 REVERT JUMPDEST PUSH2 0x2765 DUP3 PUSH2 0x2172 JUMP JUMPDEST PUSH2 0x276F DUP3 DUP3 PUSH2 0x2848 JUMP JUMPDEST POP POP JUMP JUMPDEST PUSH2 0x277B PUSH2 0x3C9A JUMP JUMPDEST PUSH20 0xFFFFFFFFFFFFFFFFFFFFFFFFFFFFFFFFFFFFFFFF AND PUSH1 0x0 DUP1 SLOAD SWAP1 PUSH2 0x100 EXP SWAP1 DIV PUSH20 0xFFFFFFFFFFFFFFFFFFFFFFFFFFFFFFFFFFFFFFFF AND PUSH20 0xFFFFFFFFFFFFFFFFFFFFFFFFFFFFFFFFFFFFFFFF AND EQ PUSH2 0x2808 JUMPI PUSH1 0x40 MLOAD PUSH32 0x8C379A000000000000000000000000000000000000000000000000000000000 DUP2 MSTORE PUSH1 0x4 ADD PUSH2 0x27FF SWAP1 PUSH2 0x58D2 JUMP JUMPDEST PUSH1 0x40 MLOAD DUP1 SWAP2 SUB SWAP1 REVERT JUMPDEST PUSH2 0x2810 PUSH2 0x41BA JUMP JUMPDEST JUMP JUMPDEST PUSH1 0x13 PUSH1 0x20 MSTORE DUP1 PUSH1 0x0 MSTORE PUSH1 0x40 PUSH1 0x0 KECCAK256 PUSH1 0x0 SWAP2 POP SWAP1 POP DUP1 PUSH1 0x0 ADD SLOAD SWAP1 DUP1 PUSH1 0x1 ADD SLOAD SWAP1 DUP1 PUSH1 0x2 ADD SLOAD SWAP1 DUP1 PUSH1 0x3 ADD SLOAD SWAP1 DUP1 PUSH1 0x4 ADD SLOAD SWAP1 POP DUP6 JUMP JUMPDEST PUSH2 0x2850 PUSH2 0x3C9A JUMP JUMPDEST PUSH20 0xFFFFFFFFFFFFFFFFFFFFFFFFFFFFFFFFFFFFFFFF AND PUSH1 0x0 DUP1 SLOAD SWAP1 PUSH2 0x100 EXP SWAP1 DIV PUSH20 0xFFFFFFFFFFFFFFFFFFFFFFFFFFFFFFFFFFFFFFFF AND PUSH20 0xFFFFFFFFFFFFFFFFFFFFFFFFFFFFFFFFFFFFFFFF AND EQ PUSH2 0x28DD JUMPI PUSH1 0x40 MLOAD PUSH32 0x8C379A000000000000000000000000000000000000000000000000000000000 DUP2 MSTORE PUSH1 0x4 ADD PUSH2 0x28D4 SWAP1 PUSH2 0x58D2 JUMP JUMPDEST PUSH1 0x40 MLOAD DUP1 SWAP2 SUB SWAP1 REVERT JUMPDEST PUSH2 0x28E5 PUSH2 0x2C64 JUMP JUMPDEST ISZERO PUSH2 0x2925 JUMPI PUSH1 0x40 MLOAD PUSH32 0x8C379A000000000000000000000000000000000000000000000000000000000 DUP2 MSTORE PUSH1 0x4 ADD PUSH2 0x291C SWAP1 PUSH2 0x5A12 JUMP JUMPDEST PUSH1 0x40 MLOAD DUP1 SWAP2 SUB SWAP1 REVERT JUMPDEST PUSH1 0xA PUSH1 0xD DUP1 SLOAD SWAP1 POP LT PUSH2 0x296D JUMPI PUSH1 0x40 MLOAD PUSH32 0x8C379A000000000000000000000000000000000000000000000000000000000 DUP2 MSTORE PUSH1 0x4 ADD PUSH2 0x2964 SWAP1 PUSH2 0x56B2 JUMP JUMPDEST PUSH1 0x40 MLOAD DUP1 SWAP2 SUB SWAP1 REVERT JUMPDEST PUSH1 0xD DUP1 SLOAD SWAP1 POP DUP2 GT ISZERO PUSH2 0x29B5 JUMPI PUSH1 0x40 MLOAD PUSH32 0x8C379A000000000000000000000000000000000000000000000000000000000 DUP2 MSTORE PUSH1 0x4 ADD PUSH2 0x29AC SWAP1 PUSH2 0x58B2 JUMP JUMPDEST PUSH1 0x40 MLOAD DUP1 SWAP2 SUB SWAP1 REVERT JUMPDEST PUSH1 0x0 ISZERO ISZERO PUSH1 0xE PUSH1 0x0 DUP5 PUSH28 0xFFFFFFFFFFFFFFFFFFFFFFFFFFFFFFFFFFFFFFFFFFFFFFFFFFFFFFFF NOT AND PUSH28 0xFFFFFFFFFFFFFFFFFFFFFFFFFFFFFFFFFFFFFFFFFFFFFFFFFFFFFFFF NOT AND DUP2 MSTORE PUSH1 0x20 ADD SWAP1 DUP2 MSTORE PUSH1 0x20 ADD PUSH1 0x0 KECCAK256 PUSH1 0x0 ADD PUSH1 0x4 SWAP1 SLOAD SWAP1 PUSH2 0x100 EXP SWAP1 DIV PUSH1 0xFF AND ISZERO ISZERO EQ PUSH2 0x2A5D JUMPI PUSH1 0x40 MLOAD PUSH32 0x8C379A000000000000000000000000000000000000000000000000000000000 DUP2 MSTORE PUSH1 0x4 ADD PUSH2 0x2A54 SWAP1 PUSH2 0x5932 JUMP JUMPDEST PUSH1 0x40 MLOAD DUP1 SWAP2 SUB SWAP1 REVERT JUMPDEST PUSH1 0xD PUSH1 0x1 DUP2 PUSH1 0x1 DUP2 SLOAD ADD DUP1 DUP3 SSTORE DUP1 SWAP2 POP POP SUB SWAP1 PUSH1 0x0 MSTORE PUSH1 0x20 PUSH1 0x0 KECCAK256 SWAP1 PUSH1 0x8 SWAP2 DUP3 DUP3 DIV ADD SWAP2 SWAP1 MOD PUSH1 0x4 MUL SWAP1 SLOAD SWAP1 PUSH2 0x100 EXP SWAP1 POP POP PUSH1 0x0 PUSH1 0x1 PUSH1 0xD DUP1 SLOAD SWAP1 POP PUSH2 0x2AA4 SWAP2 SWAP1 PUSH2 0x5ECF JUMP JUMPDEST SWAP1 POP JUMPDEST DUP2 DUP2 LT PUSH2 0x2B9A JUMPI DUP2 DUP2 EQ ISZERO PUSH2 0x2B00 JUMPI DUP3 PUSH1 0xD DUP3 DUP2 SLOAD DUP2 LT PUSH2 0x2ACB JUMPI PUSH2 0x2ACA PUSH2 0x626B JUMP JUMPDEST JUMPDEST SWAP1 PUSH1 0x0 MSTORE PUSH1 0x20 PUSH1 0x0 KECCAK256 SWAP1 PUSH1 0x8 SWAP2 DUP3 DUP3 DIV ADD SWAP2 SWAP1 MOD PUSH1 0x4 MUL PUSH2 0x100 EXP DUP2 SLOAD DUP2 PUSH4 0xFFFFFFFF MUL NOT AND SWAP1 DUP4 PUSH1 0xE0 SHR MUL OR SWAP1 SSTORE POP PUSH2 0x2B9A JUMP JUMPDEST PUSH1 0xD PUSH1 0x1 DUP3 PUSH2 0x2B0F SWAP2 SWAP1 PUSH2 0x5ECF JUMP JUMPDEST DUP2 SLOAD DUP2 LT PUSH2 0x2B20 JUMPI PUSH2 0x2B1F PUSH2 0x626B JUMP JUMPDEST JUMPDEST SWAP1 PUSH1 0x0 MSTORE PUSH1 0x20 PUSH1 0x0 KECCAK256 SWAP1 PUSH1 0x8 SWAP2 DUP3 DUP3 DIV ADD SWAP2 SWAP1 MOD PUSH1 0x4 MUL SWAP1 SLOAD SWAP1 PUSH2 0x100 EXP SWAP1 DIV PUSH1 0xE0 SHL PUSH1 0xD DUP3 DUP2 SLOAD DUP2 LT PUSH2 0x2B57 JUMPI PUSH2 0x2B56 PUSH2 0x626B JUMP JUMPDEST JUMPDEST SWAP1 PUSH1 0x0 MSTORE PUSH1 0x20 PUSH1 0x0 KECCAK256 SWAP1 PUSH1 0x8 SWAP2 DUP3 DUP3 DIV ADD SWAP2 SWAP1 MOD PUSH1 0x4 MUL PUSH2 0x100 EXP DUP2 SLOAD DUP2 PUSH4 0xFFFFFFFF MUL NOT AND SWAP1 DUP4 PUSH1 0xE0 SHR MUL OR SWAP1 SSTORE POP DUP1 DUP1 PUSH2 0x2B92 SWAP1 PUSH2 0x6050 JUMP JUMPDEST SWAP2 POP POP PUSH2 0x2AA7 JUMP JUMPDEST POP PUSH1 0x1 PUSH1 0xE PUSH1 0x0 DUP5 PUSH28 0xFFFFFFFFFFFFFFFFFFFFFFFFFFFFFFFFFFFFFFFFFFFFFFFFFFFFFFFF NOT AND PUSH28 0xFFFFFFFFFFFFFFFFFFFFFFFFFFFFFFFFFFFFFFFFFFFFFFFFFFFFFFFF NOT AND DUP2 MSTORE PUSH1 0x20 ADD SWAP1 DUP2 MSTORE PUSH1 0x20 ADD PUSH1 0x0 KECCAK256 PUSH1 0x0 ADD PUSH1 0x4 PUSH2 0x100 EXP DUP2 SLOAD DUP2 PUSH1 0xFF MUL NOT AND SWAP1 DUP4 ISZERO ISZERO MUL OR SWAP1 SSTORE POP DUP2 PUSH28 0xFFFFFFFFFFFFFFFFFFFFFFFFFFFFFFFFFFFFFFFFFFFFFFFFFFFFFFFF NOT AND PUSH32 0xC20EAF21413E3E58F46C8B4D63A1A0371EE4EAB16F070518B3F50C629008A226 PUSH1 0x1 PUSH1 0x40 MLOAD PUSH2 0x2C58 SWAP2 SWAP1 PUSH2 0x55B8 JUMP JUMPDEST PUSH1 0x40 MLOAD DUP1 SWAP2 SUB SWAP1 LOG2 POP POP JUMP JUMPDEST PUSH1 0x0 DUP1 PUSH1 0x3 PUSH1 0x0 PUSH1 0x1 SLOAD DUP2 MSTORE PUSH1 0x20 ADD SWAP1 DUP2 MSTORE PUSH1 0x20 ADD PUSH1 0x0 KECCAK256 PUSH1 0x0 ADD SLOAD EQ ISZERO SWAP1 POP SWAP1 JUMP JUMPDEST PUSH1 0x0 PUSH2 0x2C91 PUSH2 0x2C64 JUMP JUMPDEST PUSH2 0x2C9A JUMPI PUSH1 0x0 DUP1 REVERT JUMPDEST PUSH1 0x0 PUSH1 0x3 PUSH1 0x0 PUSH1 0x1 SLOAD DUP2 MSTORE PUSH1 0x20 ADD SWAP1 DUP2 MSTORE PUSH1 0x20 ADD PUSH1 0x0 KECCAK256 PUSH1 0x1 ADD SLOAD EQ PUSH2 0x2CC4 JUMPI PUSH1 0x1 SWAP1 POP DUP1 PUSH2 0x2CCA JUMP JUMPDEST PUSH1 0x0 SWAP1 POP DUP1 JUMPDEST POP SWAP1 JUMP JUMPDEST PUSH1 0x5 PUSH1 0x0 SWAP1 SLOAD SWAP1 PUSH2 0x100 EXP SWAP1 DIV PUSH20 0xFFFFFFFFFFFFFFFFFFFFFFFFFFFFFFFFFFFFFFFF AND PUSH20 0xFFFFFFFFFFFFFFFFFFFFFFFFFFFFFFFFFFFFFFFF AND PUSH4 0x23B872DD PUSH2 0x2D14 PUSH2 0x3C9A JUMP JUMPDEST ADDRESS DUP6 PUSH1 0x40 MLOAD DUP5 PUSH4 0xFFFFFFFF AND PUSH1 0xE0 SHL DUP2 MSTORE PUSH1 0x4 ADD PUSH2 0x2D34 SWAP4 SWAP3 SWAP2 SWAP1 PUSH2 0x54F1 JUMP JUMPDEST PUSH1 0x20 PUSH1 0x40 MLOAD DUP1 DUP4 SUB DUP2 PUSH1 0x0 DUP8 DUP1 EXTCODESIZE ISZERO DUP1 ISZERO PUSH2 0x2D4E JUMPI PUSH1 0x0 DUP1 REVERT JUMPDEST POP GAS CALL ISZERO DUP1 ISZERO PUSH2 0x2D62 JUMPI RETURNDATASIZE PUSH1 0x0 DUP1 RETURNDATACOPY RETURNDATASIZE PUSH1 0x0 REVERT JUMPDEST POP POP POP POP PUSH1 0x40 MLOAD RETURNDATASIZE PUSH1 0x1F NOT PUSH1 0x1F DUP3 ADD AND DUP3 ADD DUP1 PUSH1 0x40 MSTORE POP DUP2 ADD SWAP1 PUSH2 0x2D86 SWAP2 SWAP1 PUSH2 0x4886 JUMP JUMPDEST POP PUSH2 0x2DAC PUSH1 0x6 SLOAD PUSH1 0xA SLOAD DUP4 PUSH2 0x2D9B SWAP2 SWAP1 PUSH2 0x5E75 JUMP JUMPDEST PUSH2 0x2DA5 SWAP2 SWAP1 PUSH2 0x5CD3 JUMP JUMPDEST PUSH1 0x5 PUSH2 0x13C8 JUMP JUMPDEST PUSH1 0x9 PUSH1 0x0 DUP3 DUP3 SLOAD PUSH2 0x2DBD SWAP2 SWAP1 PUSH2 0x5C7D JUMP JUMPDEST SWAP3 POP POP DUP2 SWAP1 SSTORE POP PUSH2 0x2DE9 PUSH1 0x7 SLOAD PUSH1 0xA SLOAD DUP5 PUSH2 0x2DD8 SWAP2 SWAP1 PUSH2 0x5E75 JUMP JUMPDEST PUSH2 0x2DE2 SWAP2 SWAP1 PUSH2 0x5CD3 JUMP JUMPDEST PUSH1 0x5 PUSH2 0x13C8 JUMP JUMPDEST PUSH1 0x8 PUSH1 0x0 DUP3 DUP3 SLOAD PUSH2 0x2DFA SWAP2 SWAP1 PUSH2 0x5C7D JUMP JUMPDEST SWAP3 POP POP DUP2 SWAP1 SSTORE POP PUSH2 0x2E26 PUSH1 0x6 SLOAD PUSH1 0xA SLOAD DUP4 PUSH2 0x2E15 SWAP2 SWAP1 PUSH2 0x5E75 JUMP JUMPDEST PUSH2 0x2E1F SWAP2 SWAP1 PUSH2 0x5CD3 JUMP JUMPDEST PUSH1 0x5 PUSH2 0x13C8 JUMP JUMPDEST PUSH1 0x12 PUSH1 0x0 DUP3 DUP3 SLOAD PUSH2 0x2E37 SWAP2 SWAP1 PUSH2 0x5C7D JUMP JUMPDEST SWAP3 POP POP DUP2 SWAP1 SSTORE POP PUSH32 0x84DCE78A3B937F71CF704A18FC9037BEBF11379D6ABE88FA57DC5BC4D3912A8B DUP3 DUP3 PUSH1 0x40 MLOAD PUSH2 0x2E6F SWAP3 SWAP2 SWAP1 PUSH2 0x5A98 JUMP JUMPDEST PUSH1 0x40 MLOAD DUP1 SWAP2 SUB SWAP1 LOG1 POP POP JUMP JUMPDEST PUSH2 0x2E83 PUSH2 0x3C9A JUMP JUMPDEST PUSH20 0xFFFFFFFFFFFFFFFFFFFFFFFFFFFFFFFFFFFFFFFF AND PUSH1 0x0 DUP1 SLOAD SWAP1 PUSH2 0x100 EXP SWAP1 DIV PUSH20 0xFFFFFFFFFFFFFFFFFFFFFFFFFFFFFFFFFFFFFFFF AND PUSH20 0xFFFFFFFFFFFFFFFFFFFFFFFFFFFFFFFFFFFFFFFF AND EQ PUSH2 0x2F10 JUMPI PUSH1 0x40 MLOAD PUSH32 0x8C379A000000000000000000000000000000000000000000000000000000000 DUP2 MSTORE PUSH1 0x4 ADD PUSH2 0x2F07 SWAP1 PUSH2 0x58D2 JUMP JUMPDEST PUSH1 0x40 MLOAD DUP1 SWAP2 SUB SWAP1 REVERT JUMPDEST PUSH1 0x40 MLOAD DUP1 PUSH1 0xC0 ADD PUSH1 0x40 MSTORE DUP1 DUP7 PUSH28 0xFFFFFFFFFFFFFFFFFFFFFFFFFFFFFFFFFFFFFFFFFFFFFFFFFFFFFFFF NOT AND DUP2 MSTORE PUSH1 0x20 ADD PUSH1 0x1 ISZERO ISZERO DUP2 MSTORE PUSH1 0x20 ADD DUP5 DUP2 MSTORE PUSH1 0x20 ADD DUP4 DUP2 MSTORE PUSH1 0x20 ADD DUP6 DUP2 MSTORE PUSH1 0x20 ADD DUP3 DUP2 MSTORE POP PUSH1 0xE PUSH1 0x0 DUP8 PUSH28 0xFFFFFFFFFFFFFFFFFFFFFFFFFFFFFFFFFFFFFFFFFFFFFFFFFFFFFFFF NOT AND PUSH28 0xFFFFFFFFFFFFFFFFFFFFFFFFFFFFFFFFFFFFFFFFFFFFFFFFFFFFFFFF NOT AND DUP2 MSTORE PUSH1 0x20 ADD SWAP1 DUP2 MSTORE PUSH1 0x20 ADD PUSH1 0x0 KECCAK256 PUSH1 0x0 DUP3 ADD MLOAD DUP2 PUSH1 0x0 ADD PUSH1 0x0 PUSH2 0x100 EXP DUP2 SLOAD DUP2 PUSH4 0xFFFFFFFF MUL NOT AND SWAP1 DUP4 PUSH1 0xE0 SHR MUL OR SWAP1 SSTORE POP PUSH1 0x20 DUP3 ADD MLOAD DUP2 PUSH1 0x0 ADD PUSH1 0x4 PUSH2 0x100 EXP DUP2 SLOAD DUP2 PUSH1 0xFF MUL NOT AND SWAP1 DUP4 ISZERO ISZERO MUL OR SWAP1 SSTORE POP PUSH1 0x40 DUP3 ADD MLOAD DUP2 PUSH1 0x1 ADD SSTORE PUSH1 0x60 DUP3 ADD MLOAD DUP2 PUSH1 0x2 ADD SSTORE PUSH1 0x80 DUP3 ADD MLOAD DUP2 PUSH1 0x3 ADD SWAP1 DUP1 MLOAD SWAP1 PUSH1 0x20 ADD SWAP1 PUSH2 0x3024 SWAP3 SWAP2 SWAP1 PUSH2 0x45AA JUMP JUMPDEST POP PUSH1 0xA0 DUP3 ADD MLOAD DUP2 PUSH1 0x4 ADD SSTORE SWAP1 POP POP DUP5 PUSH28 0xFFFFFFFFFFFFFFFFFFFFFFFFFFFFFFFFFFFFFFFFFFFFFFFFFFFFFFFF NOT AND PUSH32 0xE0D9746306DD588E306D4ABF4FFF82EBC3629B10210A6826FFE468B4E6F1B3E DUP6 DUP6 DUP6 DUP6 PUSH1 0x40 MLOAD PUSH2 0x3087 SWAP5 SWAP4 SWAP3 SWAP2 SWAP1 PUSH2 0x5646 JUMP JUMPDEST PUSH1 0x40 MLOAD DUP1 SWAP2 SUB SWAP1 LOG2 POP POP POP POP POP JUMP JUMPDEST PUSH2 0x309E PUSH2 0x3C9A JUMP JUMPDEST PUSH20 0xFFFFFFFFFFFFFFFFFFFFFFFFFFFFFFFFFFFFFFFF AND PUSH1 0x0 DUP1 SLOAD SWAP1 PUSH2 0x100 EXP SWAP1 DIV PUSH20 0xFFFFFFFFFFFFFFFFFFFFFFFFFFFFFFFFFFFFFFFF AND PUSH20 0xFFFFFFFFFFFFFFFFFFFFFFFFFFFFFFFFFFFFFFFF AND EQ PUSH2 0x312B JUMPI PUSH1 0x40 MLOAD PUSH32 0x8C379A000000000000000000000000000000000000000000000000000000000 DUP2 MSTORE PUSH1 0x4 ADD PUSH2 0x3122 SWAP1 PUSH2 0x58D2 JUMP JUMPDEST PUSH1 0x40 MLOAD DUP1 SWAP2 SUB SWAP1 REVERT JUMPDEST PUSH1 0x0 TIMESTAMP SWAP1 POP PUSH2 0x3168 DUP9 DUP3 PUSH2 0x313F SWAP2 SWAP1 PUSH2 0x5C7D JUMP JUMPDEST DUP9 DUP4 PUSH2 0x314B SWAP2 SWAP1 PUSH2 0x5C7D JUMP JUMPDEST DUP9 DUP5 PUSH2 0x3157 SWAP2 SWAP1 PUSH2 0x5C7D JUMP JUMPDEST DUP9 DUP9 DUP9 DUP9 PUSH2 0x3163 PUSH2 0x20D8 JUMP JUMPDEST PUSH2 0x410C JUMP JUMPDEST PUSH1 0x1 SLOAD PUSH32 0xA9A6591C1360580311F20FB817026BB2390A593F2D4A39BC084DAB4E93B4BD08 DUP10 DUP4 PUSH2 0x3198 SWAP2 SWAP1 PUSH2 0x5C7D JUMP JUMPDEST DUP9 DUP5 PUSH2 0x31A4 SWAP2 SWAP1 PUSH2 0x5C7D JUMP JUMPDEST DUP8 PUSH1 0x1 PUSH1 0x40 MLOAD PUSH2 0x31B7 SWAP5 SWAP4 SWAP3 SWAP2 SWAP1 PUSH2 0x5AC1 JUMP JUMPDEST PUSH1 0x40 MLOAD DUP1 SWAP2 SUB SWAP1 LOG2 POP POP POP POP POP POP POP POP JUMP JUMPDEST PUSH1 0x5 PUSH1 0x0 SWAP1 SLOAD SWAP1 PUSH2 0x100 EXP SWAP1 DIV PUSH20 0xFFFFFFFFFFFFFFFFFFFFFFFFFFFFFFFFFFFFFFFF AND DUP2 JUMP JUMPDEST PUSH1 0x0 DUP1 PUSH1 0x0 PUSH2 0x31FD DUP5 PUSH2 0x76E JUMP JUMPDEST PUSH1 0xA0 ADD MLOAD SWAP1 POP PUSH2 0x320B PUSH2 0x1763 JUMP JUMPDEST ISZERO PUSH2 0x3356 JUMPI PUSH1 0x0 PUSH1 0x3 PUSH1 0x0 PUSH1 0x1 SLOAD DUP2 MSTORE PUSH1 0x20 ADD SWAP1 DUP2 MSTORE PUSH1 0x20 ADD PUSH1 0x0 KECCAK256 PUSH1 0x4 ADD PUSH1 0x2 SWAP1 SLOAD SWAP1 PUSH2 0x100 EXP SWAP1 DIV PUSH30 0xFFFFFFFFFFFFFFFFFFFFFFFFFFFFFFFFFFFFFFFFFFFFFFFFFFFFFFFFFFFF AND PUSH30 0xFFFFFFFFFFFFFFFFFFFFFFFFFFFFFFFFFFFFFFFFFFFFFFFFFFFFFFFFFFFF AND PUSH1 0x3 PUSH1 0x0 PUSH1 0x1 SLOAD DUP2 MSTORE PUSH1 0x20 ADD SWAP1 DUP2 MSTORE PUSH1 0x20 ADD PUSH1 0x0 KECCAK256 PUSH1 0x0 ADD SLOAD PUSH1 0x3 PUSH1 0x0 PUSH1 0x1 SLOAD DUP2 MSTORE PUSH1 0x20 ADD SWAP1 DUP2 MSTORE PUSH1 0x20 ADD PUSH1 0x0 KECCAK256 PUSH1 0x2 ADD SLOAD PUSH2 0x32B1 SWAP2 SWAP1 PUSH2 0x5ECF JUMP JUMPDEST PUSH2 0x32BB SWAP2 SWAP1 PUSH2 0x5CD3 JUMP JUMPDEST SWAP1 POP PUSH1 0x0 PUSH1 0x64 PUSH1 0x3 PUSH1 0x0 PUSH1 0x1 SLOAD DUP2 MSTORE PUSH1 0x20 ADD SWAP1 DUP2 MSTORE PUSH1 0x20 ADD PUSH1 0x0 KECCAK256 PUSH1 0x4 ADD PUSH1 0x0 SWAP1 SLOAD SWAP1 PUSH2 0x100 EXP SWAP1 DIV PUSH2 0xFFFF AND PUSH2 0xFFFF AND DUP5 PUSH2 0x32F7 SWAP2 SWAP1 PUSH2 0x5E75 JUMP JUMPDEST PUSH2 0x3301 SWAP2 SWAP1 PUSH2 0x5CD3 JUMP JUMPDEST DUP4 PUSH2 0x330C SWAP2 SWAP1 PUSH2 0x5ECF JUMP JUMPDEST SWAP1 POP PUSH1 0x0 DUP3 DUP3 DUP6 PUSH2 0x331D SWAP2 SWAP1 PUSH2 0x5ECF JUMP JUMPDEST PUSH2 0x3327 SWAP2 SWAP1 PUSH2 0x5CD3 JUMP JUMPDEST SWAP1 POP PUSH2 0x3331 PUSH2 0x39C5 JUMP JUMPDEST DUP2 PUSH2 0x333C SWAP2 SWAP1 PUSH2 0x5E75 JUMP JUMPDEST DUP3 PUSH2 0x3347 SWAP2 SWAP1 PUSH2 0x5C7D JUMP JUMPDEST PUSH1 0x1 SWAP6 POP SWAP6 POP POP POP POP POP PUSH2 0x335F JUMP JUMPDEST DUP1 PUSH1 0x0 SWAP3 POP SWAP3 POP POP JUMPDEST SWAP2 POP SWAP2 JUMP JUMPDEST PUSH1 0x0 DUP1 PUSH2 0x341B PUSH1 0x13 PUSH1 0x0 DUP6 PUSH20 0xFFFFFFFFFFFFFFFFFFFFFFFFFFFFFFFFFFFFFFFF AND PUSH20 0xFFFFFFFFFFFFFFFFFFFFFFFFFFFFFFFFFFFFFFFF AND DUP2 MSTORE PUSH1 0x20 ADD SWAP1 DUP2 MSTORE PUSH1 0x20 ADD PUSH1 0x0 KECCAK256 PUSH1 0x2 ADD SLOAD PUSH1 0xA SLOAD PUSH1 0x9 SLOAD PUSH1 0x13 PUSH1 0x0 DUP9 PUSH20 0xFFFFFFFFFFFFFFFFFFFFFFFFFFFFFFFFFFFFFFFF AND PUSH20 0xFFFFFFFFFFFFFFFFFFFFFFFFFFFFFFFFFFFFFFFF AND DUP2 MSTORE PUSH1 0x20 ADD SWAP1 DUP2 MSTORE PUSH1 0x20 ADD PUSH1 0x0 KECCAK256 PUSH1 0x0 ADD SLOAD PUSH2 0x3400 SWAP2 SWAP1 PUSH2 0x5E75 JUMP JUMPDEST PUSH2 0x340A SWAP2 SWAP1 PUSH2 0x5CD3 JUMP JUMPDEST PUSH2 0x3414 SWAP2 SWAP1 PUSH2 0x5ECF JUMP JUMPDEST PUSH1 0x5 PUSH2 0x13C8 JUMP JUMPDEST SWAP2 POP PUSH2 0x34D1 PUSH1 0x13 PUSH1 0x0 DUP6 PUSH20 0xFFFFFFFFFFFFFFFFFFFFFFFFFFFFFFFFFFFFFFFF AND PUSH20 0xFFFFFFFFFFFFFFFFFFFFFFFFFFFFFFFFFFFFFFFF AND DUP2 MSTORE PUSH1 0x20 ADD SWAP1 DUP2 MSTORE PUSH1 0x20 ADD PUSH1 0x0 KECCAK256 PUSH1 0x3 ADD SLOAD PUSH1 0xA SLOAD PUSH1 0x8 SLOAD PUSH1 0x13 PUSH1 0x0 DUP9 PUSH20 0xFFFFFFFFFFFFFFFFFFFFFFFFFFFFFFFFFFFFFFFF AND PUSH20 0xFFFFFFFFFFFFFFFFFFFFFFFFFFFFFFFFFFFFFFFF AND DUP2 MSTORE PUSH1 0x20 ADD SWAP1 DUP2 MSTORE PUSH1 0x20 ADD PUSH1 0x0 KECCAK256 PUSH1 0x1 ADD SLOAD PUSH2 0x34B6 SWAP2 SWAP1 PUSH2 0x5E75 JUMP JUMPDEST PUSH2 0x34C0 SWAP2 SWAP1 PUSH2 0x5CD3 JUMP JUMPDEST PUSH2 0x34CA SWAP2 SWAP1 PUSH2 0x5ECF JUMP JUMPDEST PUSH1 0x5 PUSH2 0x13C8 JUMP JUMPDEST SWAP1 POP SWAP2 POP SWAP2 JUMP JUMPDEST PUSH1 0x7 SLOAD DUP2 JUMP JUMPDEST PUSH1 0x0 DUP1 PUSH1 0x0 SWAP1 POP JUMPDEST PUSH1 0x0 DUP4 EQ PUSH2 0x3510 JUMPI PUSH1 0xA DUP4 PUSH2 0x34FB SWAP2 SWAP1 PUSH2 0x5CD3 JUMP JUMPDEST SWAP3 POP DUP1 DUP1 PUSH2 0x3508 SWAP1 PUSH2 0x6126 JUMP JUMPDEST SWAP2 POP POP PUSH2 0x34E6 JUMP JUMPDEST DUP1 SWAP2 POP POP SWAP2 SWAP1 POP JUMP JUMPDEST PUSH1 0x0 PUSH2 0x3523 PUSH2 0x3C9A JUMP JUMPDEST PUSH20 0xFFFFFFFFFFFFFFFFFFFFFFFFFFFFFFFFFFFFFFFF AND PUSH1 0x0 DUP1 SLOAD SWAP1 PUSH2 0x100 EXP SWAP1 DIV PUSH20 0xFFFFFFFFFFFFFFFFFFFFFFFFFFFFFFFFFFFFFFFF AND PUSH20 0xFFFFFFFFFFFFFFFFFFFFFFFFFFFFFFFFFFFFFFFF AND EQ PUSH2 0x35B0 JUMPI PUSH1 0x40 MLOAD PUSH32 0x8C379A000000000000000000000000000000000000000000000000000000000 DUP2 MSTORE PUSH1 0x4 ADD PUSH2 0x35A7 SWAP1 PUSH2 0x58D2 JUMP JUMPDEST PUSH1 0x40 MLOAD DUP1 SWAP2 SUB SWAP1 REVERT JUMPDEST PUSH2 0x35C2 DUP6 DUP6 DUP6 PUSH1 0xD DUP1 SLOAD SWAP1 POP DUP7 PUSH2 0x1A0E JUMP JUMPDEST SWAP1 POP SWAP5 SWAP4 POP POP POP POP JUMP JUMPDEST PUSH1 0x0 DUP1 PUSH2 0x35D8 DUP4 PUSH2 0x3364 JUMP JUMPDEST SWAP2 POP SWAP2 POP PUSH1 0x0 DUP3 EQ ISZERO DUP1 PUSH2 0x35ED JUMPI POP PUSH1 0x0 DUP2 EQ ISZERO JUMPDEST PUSH2 0x35F6 JUMPI PUSH1 0x0 DUP1 REVERT JUMPDEST PUSH1 0x0 PUSH2 0x36A0 PUSH1 0x13 PUSH1 0x0 DUP7 PUSH20 0xFFFFFFFFFFFFFFFFFFFFFFFFFFFFFFFFFFFFFFFF AND PUSH20 0xFFFFFFFFFFFFFFFFFFFFFFFFFFFFFFFFFFFFFFFF AND DUP2 MSTORE PUSH1 0x20 ADD SWAP1 DUP2 MSTORE PUSH1 0x20 ADD PUSH1 0x0 KECCAK256 PUSH1 0x0 ADD SLOAD PUSH1 0xA SLOAD PUSH1 0x13 PUSH1 0x0 DUP9 PUSH20 0xFFFFFFFFFFFFFFFFFFFFFFFFFFFFFFFFFFFFFFFF AND PUSH20 0xFFFFFFFFFFFFFFFFFFFFFFFFFFFFFFFFFFFFFFFF AND DUP2 MSTORE PUSH1 0x20 ADD SWAP1 DUP2 MSTORE PUSH1 0x20 ADD PUSH1 0x0 KECCAK256 PUSH1 0x1 ADD SLOAD PUSH2 0x368E SWAP2 SWAP1 PUSH2 0x5E75 JUMP JUMPDEST PUSH2 0x3698 SWAP2 SWAP1 PUSH2 0x5CD3 JUMP JUMPDEST PUSH1 0x11 SLOAD PUSH2 0x13C8 JUMP JUMPDEST SWAP1 POP DUP3 PUSH1 0x13 PUSH1 0x0 DUP7 PUSH20 0xFFFFFFFFFFFFFFFFFFFFFFFFFFFFFFFFFFFFFFFF AND PUSH20 0xFFFFFFFFFFFFFFFFFFFFFFFFFFFFFFFFFFFFFFFF AND DUP2 MSTORE PUSH1 0x20 ADD SWAP1 DUP2 MSTORE PUSH1 0x20 ADD PUSH1 0x0 KECCAK256 PUSH1 0x0 ADD PUSH1 0x0 DUP3 DUP3 SLOAD PUSH2 0x36F4 SWAP2 SWAP1 PUSH2 0x5C7D JUMP JUMPDEST SWAP3 POP POP DUP2 SWAP1 SSTORE POP PUSH2 0x371F PUSH1 0xA SLOAD DUP3 DUP6 PUSH2 0x370D SWAP2 SWAP1 PUSH2 0x5E75 JUMP JUMPDEST PUSH2 0x3717 SWAP2 SWAP1 PUSH2 0x5CD3 JUMP JUMPDEST PUSH1 0x11 SLOAD PUSH2 0x13C8 JUMP JUMPDEST PUSH1 0x13 PUSH1 0x0 DUP7 PUSH20 0xFFFFFFFFFFFFFFFFFFFFFFFFFFFFFFFFFFFFFFFF AND PUSH20 0xFFFFFFFFFFFFFFFFFFFFFFFFFFFFFFFFFFFFFFFF AND DUP2 MSTORE PUSH1 0x20 ADD SWAP1 DUP2 MSTORE PUSH1 0x20 ADD PUSH1 0x0 KECCAK256 PUSH1 0x1 ADD PUSH1 0x0 DUP3 DUP3 SLOAD PUSH2 0x3770 SWAP2 SWAP1 PUSH2 0x5C7D JUMP JUMPDEST SWAP3 POP POP DUP2 SWAP1 SSTORE POP PUSH2 0x37DF PUSH1 0xA SLOAD PUSH1 0x9 SLOAD PUSH1 0x13 PUSH1 0x0 DUP9 PUSH20 0xFFFFFFFFFFFFFFFFFFFFFFFFFFFFFFFFFFFFFFFF AND PUSH20 0xFFFFFFFFFFFFFFFFFFFFFFFFFFFFFFFFFFFFFFFF AND DUP2 MSTORE PUSH1 0x20 ADD SWAP1 DUP2 MSTORE PUSH1 0x20 ADD PUSH1 0x0 KECCAK256 PUSH1 0x0 ADD SLOAD PUSH2 0x37CD SWAP2 SWAP1 PUSH2 0x5E75 JUMP JUMPDEST PUSH2 0x37D7 SWAP2 SWAP1 PUSH2 0x5CD3 JUMP JUMPDEST PUSH1 0x11 SLOAD PUSH2 0x13C8 JUMP JUMPDEST PUSH1 0x13 PUSH1 0x0 DUP7 PUSH20 0xFFFFFFFFFFFFFFFFFFFFFFFFFFFFFFFFFFFFFFFF AND PUSH20 0xFFFFFFFFFFFFFFFFFFFFFFFFFFFFFFFFFFFFFFFF AND DUP2 MSTORE PUSH1 0x20 ADD SWAP1 DUP2 MSTORE PUSH1 0x20 ADD PUSH1 0x0 KECCAK256 PUSH1 0x2 ADD DUP2 SWAP1 SSTORE POP PUSH2 0x388D PUSH1 0xA SLOAD PUSH1 0x8 SLOAD PUSH1 0x13 PUSH1 0x0 DUP9 PUSH20 0xFFFFFFFFFFFFFFFFFFFFFFFFFFFFFFFFFFFFFFFF AND PUSH20 0xFFFFFFFFFFFFFFFFFFFFFFFFFFFFFFFFFFFFFFFF AND DUP2 MSTORE PUSH1 0x20 ADD SWAP1 DUP2 MSTORE PUSH1 0x20 ADD PUSH1 0x0 KECCAK256 PUSH1 0x1 ADD SLOAD PUSH2 0x387B SWAP2 SWAP1 PUSH2 0x5E75 JUMP JUMPDEST PUSH2 0x3885 SWAP2 SWAP1 PUSH2 0x5CD3 JUMP JUMPDEST PUSH1 0x11 SLOAD PUSH2 0x13C8 JUMP JUMPDEST PUSH1 0x13 PUSH1 0x0 DUP7 PUSH20 0xFFFFFFFFFFFFFFFFFFFFFFFFFFFFFFFFFFFFFFFF AND PUSH20 0xFFFFFFFFFFFFFFFFFFFFFFFFFFFFFFFFFFFFFFFF AND DUP2 MSTORE PUSH1 0x20 ADD SWAP1 DUP2 MSTORE PUSH1 0x20 ADD PUSH1 0x0 KECCAK256 PUSH1 0x3 ADD DUP2 SWAP1 SSTORE POP DUP3 PUSH1 0x6 PUSH1 0x0 DUP3 DUP3 SLOAD PUSH2 0x38E5 SWAP2 SWAP1 PUSH2 0x5C7D JUMP JUMPDEST SWAP3 POP POP DUP2 SWAP1 SSTORE POP PUSH2 0x3910 PUSH1 0xA SLOAD DUP3 DUP6 PUSH2 0x38FE SWAP2 SWAP1 PUSH2 0x5E75 JUMP JUMPDEST PUSH2 0x3908 SWAP2 SWAP1 PUSH2 0x5CD3 JUMP JUMPDEST PUSH1 0x11 SLOAD PUSH2 0x13C8 JUMP JUMPDEST PUSH1 0x7 PUSH1 0x0 DUP3 DUP3 SLOAD PUSH2 0x3921 SWAP2 SWAP1 PUSH2 0x5C7D JUMP JUMPDEST SWAP3 POP POP DUP2 SWAP1 SSTORE POP PUSH2 0x3975 DUP5 DUP4 PUSH1 0x5 PUSH1 0x0 SWAP1 SLOAD SWAP1 PUSH2 0x100 EXP SWAP1 DIV PUSH20 0xFFFFFFFFFFFFFFFFFFFFFFFFFFFFFFFFFFFFFFFF AND PUSH20 0xFFFFFFFFFFFFFFFFFFFFFFFFFFFFFFFFFFFFFFFF AND PUSH2 0x41D4 SWAP1 SWAP3 SWAP2 SWAP1 PUSH4 0xFFFFFFFF AND JUMP JUMPDEST POP POP POP POP POP JUMP JUMPDEST PUSH1 0x0 PUSH1 0x10 PUSH1 0x0 DUP4 PUSH20 0xFFFFFFFFFFFFFFFFFFFFFFFFFFFFFFFFFFFFFFFF AND PUSH20 0xFFFFFFFFFFFFFFFFFFFFFFFFFFFFFFFFFFFFFFFF AND DUP2 MSTORE PUSH1 0x20 ADD SWAP1 DUP2 MSTORE PUSH1 0x20 ADD PUSH1 0x0 KECCAK256 SLOAD SWAP1 POP SWAP2 SWAP1 POP JUMP JUMPDEST PUSH1 0x0 PUSH1 0x3 PUSH1 0x0 PUSH1 0x1 SLOAD DUP2 MSTORE PUSH1 0x20 ADD SWAP1 DUP2 MSTORE PUSH1 0x20 ADD PUSH1 0x0 KECCAK256 PUSH1 0x4 ADD PUSH1 0x2 SWAP1 SLOAD SWAP1 PUSH2 0x100 EXP SWAP1 DIV PUSH30 0xFFFFFFFFFFFFFFFFFFFFFFFFFFFFFFFFFFFFFFFFFFFFFFFFFFFFFFFFFFFF AND PUSH30 0xFFFFFFFFFFFFFFFFFFFFFFFFFFFFFFFFFFFFFFFFFFFFFFFFFFFFFFFFFFFF AND PUSH1 0x3 PUSH1 0x0 PUSH1 0x1 SLOAD DUP2 MSTORE PUSH1 0x20 ADD SWAP1 DUP2 MSTORE PUSH1 0x20 ADD PUSH1 0x0 KECCAK256 PUSH1 0x0 ADD SLOAD TIMESTAMP PUSH2 0x3A4E SWAP2 SWAP1 PUSH2 0x5ECF JUMP JUMPDEST PUSH2 0x3A58 SWAP2 SWAP1 PUSH2 0x5CD3 JUMP JUMPDEST SWAP1 POP SWAP1 JUMP JUMPDEST PUSH2 0x3A65 PUSH2 0x3C9A JUMP JUMPDEST PUSH20 0xFFFFFFFFFFFFFFFFFFFFFFFFFFFFFFFFFFFFFFFF AND PUSH1 0x0 DUP1 SLOAD SWAP1 PUSH2 0x100 EXP SWAP1 DIV PUSH20 0xFFFFFFFFFFFFFFFFFFFFFFFFFFFFFFFFFFFFFFFF AND PUSH20 0xFFFFFFFFFFFFFFFFFFFFFFFFFFFFFFFFFFFFFFFF AND EQ PUSH2 0x3AF2 JUMPI PUSH1 0x40 MLOAD PUSH32 0x8C379A000000000000000000000000000000000000000000000000000000000 DUP2 MSTORE PUSH1 0x4 ADD PUSH2 0x3AE9 SWAP1 PUSH2 0x58D2 JUMP JUMPDEST PUSH1 0x40 MLOAD DUP1 SWAP2 SUB SWAP1 REVERT JUMPDEST PUSH1 0x0 PUSH20 0xFFFFFFFFFFFFFFFFFFFFFFFFFFFFFFFFFFFFFFFF AND DUP2 PUSH20 0xFFFFFFFFFFFFFFFFFFFFFFFFFFFFFFFFFFFFFFFF AND EQ ISZERO PUSH2 0x3B62 JUMPI PUSH1 0x40 MLOAD PUSH32 0x8C379A000000000000000000000000000000000000000000000000000000000 DUP2 MSTORE PUSH1 0x4 ADD PUSH2 0x3B59 SWAP1 PUSH2 0x5712 JUMP JUMPDEST PUSH1 0x40 MLOAD DUP1 SWAP2 SUB SWAP1 REVERT JUMPDEST DUP1 PUSH20 0xFFFFFFFFFFFFFFFFFFFFFFFFFFFFFFFFFFFFFFFF AND PUSH1 0x0 DUP1 SLOAD SWAP1 PUSH2 0x100 EXP SWAP1 DIV PUSH20 0xFFFFFFFFFFFFFFFFFFFFFFFFFFFFFFFFFFFFFFFF AND PUSH20 0xFFFFFFFFFFFFFFFFFFFFFFFFFFFFFFFFFFFFFFFF AND PUSH32 0x8BE0079C531659141344CD1FD0A4F28419497F9722A3DAAFE3B4186F6B6457E0 PUSH1 0x40 MLOAD PUSH1 0x40 MLOAD DUP1 SWAP2 SUB SWAP1 LOG3 DUP1 PUSH1 0x0 DUP1 PUSH2 0x100 EXP DUP2 SLOAD DUP2 PUSH20 0xFFFFFFFFFFFFFFFFFFFFFFFFFFFFFFFFFFFFFFFF MUL NOT AND SWAP1 DUP4 PUSH20 0xFFFFFFFFFFFFFFFFFFFFFFFFFFFFFFFFFFFFFFFF AND MUL OR SWAP1 SSTORE POP POP JUMP JUMPDEST PUSH1 0x0 DUP1 DUP4 EQ ISZERO PUSH2 0x3C32 JUMPI PUSH1 0x0 SWAP1 POP PUSH2 0x3C94 JUMP JUMPDEST PUSH1 0x0 DUP3 DUP5 PUSH2 0x3C40 SWAP2 SWAP1 PUSH2 0x5E75 JUMP JUMPDEST SWAP1 POP DUP3 DUP5 DUP3 PUSH2 0x3C4F SWAP2 SWAP1 PUSH2 0x5CD3 JUMP JUMPDEST EQ PUSH2 0x3C8F JUMPI PUSH1 0x40 MLOAD PUSH32 0x8C379A000000000000000000000000000000000000000000000000000000000 DUP2 MSTORE PUSH1 0x4 ADD PUSH2 0x3C86 SWAP1 PUSH2 0x5892 JUMP JUMPDEST PUSH1 0x40 MLOAD DUP1 SWAP2 SUB SWAP1 REVERT JUMPDEST DUP1 SWAP2 POP POP JUMPDEST SWAP3 SWAP2 POP POP JUMP JUMPDEST PUSH1 0x0 CALLER SWAP1 POP SWAP1 JUMP JUMPDEST PUSH1 0x0 DUP3 PUSH2 0x3CAF DUP6 DUP5 PUSH2 0x425A JUMP JUMPDEST EQ SWAP1 POP SWAP4 SWAP3 POP POP POP JUMP JUMPDEST PUSH1 0x0 DUP1 DUP3 DUP5 PUSH2 0x3CC8 SWAP2 SWAP1 PUSH2 0x5C7D JUMP JUMPDEST SWAP1 POP DUP4 DUP2 LT ISZERO PUSH2 0x3D0D JUMPI PUSH1 0x40 MLOAD PUSH32 0x8C379A000000000000000000000000000000000000000000000000000000000 DUP2 MSTORE PUSH1 0x4 ADD PUSH2 0x3D04 SWAP1 PUSH2 0x5772 JUMP JUMPDEST PUSH1 0x40 MLOAD DUP1 SWAP2 SUB SWAP1 REVERT JUMPDEST DUP1 SWAP2 POP POP SWAP3 SWAP2 POP POP JUMP JUMPDEST PUSH1 0x0 TIMESTAMP SWAP1 POP DUP1 DUP8 LT ISZERO PUSH2 0x3D5F JUMPI PUSH1 0x40 MLOAD PUSH32 0x8C379A000000000000000000000000000000000000000000000000000000000 DUP2 MSTORE PUSH1 0x4 ADD PUSH2 0x3D56 SWAP1 PUSH2 0x5832 JUMP JUMPDEST PUSH1 0x40 MLOAD DUP1 SWAP2 SUB SWAP1 REVERT JUMPDEST DUP7 DUP7 GT PUSH2 0x3DA1 JUMPI PUSH1 0x40 MLOAD PUSH32 0x8C379A000000000000000000000000000000000000000000000000000000000 DUP2 MSTORE PUSH1 0x4 ADD PUSH2 0x3D98 SWAP1 PUSH2 0x5852 JUMP JUMPDEST PUSH1 0x40 MLOAD DUP1 SWAP2 SUB SWAP1 REVERT JUMPDEST DUP7 DUP7 PUSH2 0x3DAD SWAP2 SWAP1 PUSH2 0x5ECF JUMP JUMPDEST DUP5 PUSH30 0xFFFFFFFFFFFFFFFFFFFFFFFFFFFFFFFFFFFFFFFFFFFFFFFFFFFFFFFFFFFF AND LT PUSH2 0x3E0E JUMPI PUSH1 0x40 MLOAD PUSH32 0x8C379A000000000000000000000000000000000000000000000000000000000 DUP2 MSTORE PUSH1 0x4 ADD PUSH2 0x3E05 SWAP1 PUSH2 0x56D2 JUMP JUMPDEST PUSH1 0x40 MLOAD DUP1 SWAP2 SUB SWAP1 REVERT JUMPDEST PUSH1 0x0 DUP5 PUSH30 0xFFFFFFFFFFFFFFFFFFFFFFFFFFFFFFFFFFFFFFFFFFFFFFFFFFFFFFFFFFFF AND DUP9 DUP9 PUSH2 0x3E3D SWAP2 SWAP1 PUSH2 0x5ECF JUMP JUMPDEST PUSH2 0x3E47 SWAP2 SWAP1 PUSH2 0x617E JUMP JUMPDEST EQ PUSH2 0x3E87 JUMPI PUSH1 0x40 MLOAD PUSH32 0x8C379A000000000000000000000000000000000000000000000000000000000 DUP2 MSTORE PUSH1 0x4 ADD PUSH2 0x3E7E SWAP1 PUSH2 0x5792 JUMP JUMPDEST PUSH1 0x40 MLOAD DUP1 SWAP2 SUB SWAP1 REVERT JUMPDEST PUSH1 0x64 DUP6 PUSH2 0xFFFF AND GT ISZERO DUP1 ISZERO PUSH2 0x3EA0 JUMPI POP PUSH1 0x0 DUP6 PUSH2 0xFFFF AND GT JUMPDEST PUSH2 0x3EDF JUMPI PUSH1 0x40 MLOAD PUSH32 0x8C379A000000000000000000000000000000000000000000000000000000000 DUP2 MSTORE PUSH1 0x4 ADD PUSH2 0x3ED6 SWAP1 PUSH2 0x5952 JUMP JUMPDEST PUSH1 0x40 MLOAD DUP1 SWAP2 SUB SWAP1 REVERT JUMPDEST PUSH2 0x3EE7 PUSH2 0x2C64 JUMP JUMPDEST ISZERO PUSH2 0x3F27 JUMPI PUSH1 0x40 MLOAD PUSH32 0x8C379A000000000000000000000000000000000000000000000000000000000 DUP2 MSTORE PUSH1 0x4 ADD PUSH2 0x3F1E SWAP1 PUSH2 0x5872 JUMP JUMPDEST PUSH1 0x40 MLOAD DUP1 SWAP2 SUB SWAP1 REVERT JUMPDEST DUP3 MLOAD DUP3 MLOAD EQ PUSH2 0x3F6B JUMPI PUSH1 0x40 MLOAD PUSH32 0x8C379A000000000000000000000000000000000000000000000000000000000 DUP2 MSTORE PUSH1 0x4 ADD PUSH2 0x3F62 SWAP1 PUSH2 0x5972 JUMP JUMPDEST PUSH1 0x40 MLOAD DUP1 SWAP2 SUB SWAP1 REVERT JUMPDEST DUP7 PUSH1 0x3 PUSH1 0x0 PUSH1 0x1 SLOAD DUP2 MSTORE PUSH1 0x20 ADD SWAP1 DUP2 MSTORE PUSH1 0x20 ADD PUSH1 0x0 KECCAK256 PUSH1 0x0 ADD DUP2 SWAP1 SSTORE POP DUP6 PUSH1 0x3 PUSH1 0x0 PUSH1 0x1 SLOAD DUP2 MSTORE PUSH1 0x20 ADD SWAP1 DUP2 MSTORE PUSH1 0x20 ADD PUSH1 0x0 KECCAK256 PUSH1 0x2 ADD DUP2 SWAP1 SSTORE POP DUP5 PUSH1 0x3 PUSH1 0x0 PUSH1 0x1 SLOAD DUP2 MSTORE PUSH1 0x20 ADD SWAP1 DUP2 MSTORE PUSH1 0x20 ADD PUSH1 0x0 KECCAK256 PUSH1 0x4 ADD PUSH1 0x0 PUSH2 0x100 EXP DUP2 SLOAD DUP2 PUSH2 0xFFFF MUL NOT AND SWAP1 DUP4 PUSH2 0xFFFF AND MUL OR SWAP1 SSTORE POP DUP4 PUSH1 0x3 PUSH1 0x0 PUSH1 0x1 SLOAD DUP2 MSTORE PUSH1 0x20 ADD SWAP1 DUP2 MSTORE PUSH1 0x20 ADD PUSH1 0x0 KECCAK256 PUSH1 0x4 ADD PUSH1 0x2 PUSH2 0x100 EXP DUP2 SLOAD DUP2 PUSH30 0xFFFFFFFFFFFFFFFFFFFFFFFFFFFFFFFFFFFFFFFFFFFFFFFFFFFFFFFFFFFF MUL NOT AND SWAP1 DUP4 PUSH30 0xFFFFFFFFFFFFFFFFFFFFFFFFFFFFFFFFFFFFFFFFFFFFFFFFFFFFFFFFFFFF AND MUL OR SWAP1 SSTORE POP PUSH1 0x0 JUMPDEST DUP3 MLOAD DUP2 LT ISZERO PUSH2 0x4102 JUMPI DUP4 DUP2 DUP2 MLOAD DUP2 LT PUSH2 0x4062 JUMPI PUSH2 0x4061 PUSH2 0x626B JUMP JUMPDEST JUMPDEST PUSH1 0x20 MUL PUSH1 0x20 ADD ADD MLOAD PUSH1 0x3 PUSH1 0x0 PUSH1 0x1 SLOAD DUP2 MSTORE PUSH1 0x20 ADD SWAP1 DUP2 MSTORE PUSH1 0x20 ADD PUSH1 0x0 KECCAK256 PUSH1 0x5 ADD PUSH1 0x0 DUP6 DUP5 DUP2 MLOAD DUP2 LT PUSH2 0x4097 JUMPI PUSH2 0x4096 PUSH2 0x626B JUMP JUMPDEST JUMPDEST PUSH1 0x20 MUL PUSH1 0x20 ADD ADD MLOAD PUSH28 0xFFFFFFFFFFFFFFFFFFFFFFFFFFFFFFFFFFFFFFFFFFFFFFFFFFFFFFFF NOT AND PUSH28 0xFFFFFFFFFFFFFFFFFFFFFFFFFFFFFFFFFFFFFFFFFFFFFFFFFFFFFFFF NOT AND DUP2 MSTORE PUSH1 0x20 ADD SWAP1 DUP2 MSTORE PUSH1 0x20 ADD PUSH1 0x0 KECCAK256 DUP2 SWAP1 SSTORE POP DUP1 DUP1 PUSH2 0x40FA SWAP1 PUSH2 0x60DD JUMP JUMPDEST SWAP2 POP POP PUSH2 0x4046 JUMP JUMPDEST POP POP POP POP POP POP POP POP JUMP JUMPDEST DUP8 DUP8 GT PUSH2 0x4118 JUMPI PUSH1 0x0 DUP1 REVERT JUMPDEST DUP6 DUP8 GT ISZERO PUSH2 0x4125 JUMPI PUSH1 0x0 DUP1 REVERT JUMPDEST PUSH1 0x0 DUP4 PUSH30 0xFFFFFFFFFFFFFFFFFFFFFFFFFFFFFFFFFFFFFFFFFFFFFFFFFFFFFFFFFFFF AND DUP10 DUP10 PUSH2 0x4154 SWAP2 SWAP1 PUSH2 0x5ECF JUMP JUMPDEST PUSH2 0x415E SWAP2 SWAP1 PUSH2 0x617E JUMP JUMPDEST EQ PUSH2 0x4168 JUMPI PUSH1 0x0 DUP1 REVERT JUMPDEST PUSH2 0x4176 DUP9 DUP8 DUP7 DUP7 DUP7 DUP7 PUSH2 0x3D17 JUMP JUMPDEST DUP7 PUSH1 0x3 PUSH1 0x0 PUSH1 0x1 SLOAD DUP2 MSTORE PUSH1 0x20 ADD SWAP1 DUP2 MSTORE PUSH1 0x20 ADD PUSH1 0x0 KECCAK256 PUSH1 0x1 ADD DUP2 SWAP1 SSTORE POP DUP5 PUSH1 0x3 PUSH1 0x0 PUSH1 0x1 SLOAD DUP2 MSTORE PUSH1 0x20 ADD SWAP1 DUP2 MSTORE PUSH1 0x20 ADD PUSH1 0x0 KECCAK256 PUSH1 0x3 ADD DUP2 SWAP1 SSTORE POP POP POP POP POP POP POP POP POP JUMP JUMPDEST PUSH1 0x1 PUSH1 0x0 DUP2 SLOAD DUP1 SWAP3 SWAP2 SWAP1 PUSH2 0x41CD SWAP1 PUSH2 0x60DD JUMP JUMPDEST SWAP2 SWAP1 POP SSTORE POP JUMP JUMPDEST PUSH2 0x4255 DUP4 PUSH4 0xA9059CBB PUSH1 0xE0 SHL DUP5 DUP5 PUSH1 0x40 MLOAD PUSH1 0x24 ADD PUSH2 0x41F3 SWAP3 SWAP2 SWAP1 PUSH2 0x556D JUMP JUMPDEST PUSH1 0x40 MLOAD PUSH1 0x20 DUP2 DUP4 SUB SUB DUP2 MSTORE SWAP1 PUSH1 0x40 MSTORE SWAP1 PUSH28 0xFFFFFFFFFFFFFFFFFFFFFFFFFFFFFFFFFFFFFFFFFFFFFFFFFFFFFFFF NOT AND PUSH1 0x20 DUP3 ADD DUP1 MLOAD PUSH28 0xFFFFFFFFFFFFFFFFFFFFFFFFFFFFFFFFFFFFFFFFFFFFFFFFFFFFFFFF DUP4 DUP2 DUP4 AND OR DUP4 MSTORE POP POP POP POP PUSH2 0x42CF JUMP JUMPDEST POP POP POP JUMP JUMPDEST PUSH1 0x0 DUP1 DUP3 SWAP1 POP PUSH1 0x0 JUMPDEST DUP5 MLOAD DUP2 LT ISZERO PUSH2 0x42C4 JUMPI PUSH1 0x0 DUP6 DUP3 DUP2 MLOAD DUP2 LT PUSH2 0x4281 JUMPI PUSH2 0x4280 PUSH2 0x626B JUMP JUMPDEST JUMPDEST PUSH1 0x20 MUL PUSH1 0x20 ADD ADD MLOAD SWAP1 POP DUP1 DUP4 GT PUSH2 0x42A3 JUMPI PUSH2 0x429C DUP4 DUP3 PUSH2 0x4396 JUMP JUMPDEST SWAP3 POP PUSH2 0x42B0 JUMP JUMPDEST PUSH2 0x42AD DUP2 DUP5 PUSH2 0x4396 JUMP JUMPDEST SWAP3 POP JUMPDEST POP DUP1 DUP1 PUSH2 0x42BC SWAP1 PUSH2 0x60DD JUMP JUMPDEST SWAP2 POP POP PUSH2 0x4263 JUMP JUMPDEST POP DUP1 SWAP2 POP POP SWAP3 SWAP2 POP POP JUMP JUMPDEST PUSH1 0x0 PUSH2 0x4331 DUP3 PUSH1 0x40 MLOAD DUP1 PUSH1 0x40 ADD PUSH1 0x40 MSTORE DUP1 PUSH1 0x20 DUP2 MSTORE PUSH1 0x20 ADD PUSH32 0x5361666545524332303A206C6F772D6C6576656C2063616C6C206661696C6564 DUP2 MSTORE POP DUP6 PUSH20 0xFFFFFFFFFFFFFFFFFFFFFFFFFFFFFFFFFFFFFFFF AND PUSH2 0x43AD SWAP1 SWAP3 SWAP2 SWAP1 PUSH4 0xFFFFFFFF AND JUMP JUMPDEST SWAP1 POP PUSH1 0x0 DUP2 MLOAD GT ISZERO PUSH2 0x4391 JUMPI DUP1 DUP1 PUSH1 0x20 ADD SWAP1 MLOAD DUP2 ADD SWAP1 PUSH2 0x4351 SWAP2 SWAP1 PUSH2 0x4886 JUMP JUMPDEST PUSH2 0x4390 JUMPI PUSH1 0x40 MLOAD PUSH32 0x8C379A000000000000000000000000000000000000000000000000000000000 DUP2 MSTORE PUSH1 0x4 ADD PUSH2 0x4387 SWAP1 PUSH2 0x59F2 JUMP JUMPDEST PUSH1 0x40 MLOAD DUP1 SWAP2 SUB SWAP1 REVERT JUMPDEST JUMPDEST POP POP POP JUMP JUMPDEST PUSH1 0x0 DUP3 PUSH1 0x0 MSTORE DUP2 PUSH1 0x20 MSTORE PUSH1 0x40 PUSH1 0x0 KECCAK256 SWAP1 POP SWAP3 SWAP2 POP POP JUMP JUMPDEST PUSH1 0x60 PUSH2 0x43BC DUP5 DUP5 PUSH1 0x0 DUP6 PUSH2 0x43C5 JUMP JUMPDEST SWAP1 POP SWAP4 SWAP3 POP POP POP JUMP JUMPDEST PUSH1 0x60 DUP3 SELFBALANCE LT ISZERO PUSH2 0x440A JUMPI PUSH1 0x40 MLOAD PUSH32 0x8C379A000000000000000000000000000000000000000000000000000000000 DUP2 MSTORE PUSH1 0x4 ADD PUSH2 0x4401 SWAP1 PUSH2 0x57B2 JUMP JUMPDEST PUSH1 0x40 MLOAD DUP1 SWAP2 SUB SWAP1 REVERT JUMPDEST PUSH2 0x4413 DUP6 PUSH2 0x44D9 JUMP JUMPDEST PUSH2 0x4452 JUMPI PUSH1 0x40 MLOAD PUSH32 0x8C379A000000000000000000000000000000000000000000000000000000000 DUP2 MSTORE PUSH1 0x4 ADD PUSH2 0x4449 SWAP1 PUSH2 0x5992 JUMP JUMPDEST PUSH1 0x40 MLOAD DUP1 SWAP2 SUB SWAP1 REVERT JUMPDEST PUSH1 0x0 DUP1 DUP7 PUSH20 0xFFFFFFFFFFFFFFFFFFFFFFFFFFFFFFFFFFFFFFFF AND DUP6 DUP8 PUSH1 0x40 MLOAD PUSH2 0x447B SWAP2 SWAP1 PUSH2 0x5475 JUMP JUMPDEST PUSH1 0x0 PUSH1 0x40 MLOAD DUP1 DUP4 SUB DUP2 DUP6 DUP8 GAS CALL SWAP3 POP POP POP RETURNDATASIZE DUP1 PUSH1 0x0 DUP2 EQ PUSH2 0x44B8 JUMPI PUSH1 0x40 MLOAD SWAP2 POP PUSH1 0x1F NOT PUSH1 0x3F RETURNDATASIZE ADD AND DUP3 ADD PUSH1 0x40 MSTORE RETURNDATASIZE DUP3 MSTORE RETURNDATASIZE PUSH1 0x0 PUSH1 0x20 DUP5 ADD RETURNDATACOPY PUSH2 0x44BD JUMP JUMPDEST PUSH1 0x60 SWAP2 POP JUMPDEST POP SWAP2 POP SWAP2 POP PUSH2 0x44CD DUP3 DUP3 DUP7 PUSH2 0x44EC JUMP JUMPDEST SWAP3 POP POP POP SWAP5 SWAP4 POP POP POP POP JUMP JUMPDEST PUSH1 0x0 DUP1 DUP3 EXTCODESIZE SWAP1 POP PUSH1 0x0 DUP2 GT SWAP2 POP POP SWAP2 SWAP1 POP JUMP JUMPDEST PUSH1 0x60 DUP4 ISZERO PUSH2 0x44FC JUMPI DUP3 SWAP1 POP PUSH2 0x454C JUMP JUMPDEST PUSH1 0x0 DUP4 MLOAD GT ISZERO PUSH2 0x450F JUMPI DUP3 MLOAD DUP1 DUP5 PUSH1 0x20 ADD REVERT JUMPDEST DUP2 PUSH1 0x40 MLOAD PUSH32 0x8C379A000000000000000000000000000000000000000000000000000000000 DUP2 MSTORE PUSH1 0x4 ADD PUSH2 0x4543 SWAP2 SWAP1 PUSH2 0x5624 JUMP JUMPDEST PUSH1 0x40 MLOAD DUP1 SWAP2 SUB SWAP1 REVERT JUMPDEST SWAP4 SWAP3 POP POP POP JUMP JUMPDEST PUSH1 0x40 MLOAD DUP1 PUSH1 0xC0 ADD PUSH1 0x40 MSTORE DUP1 PUSH1 0x0 PUSH28 0xFFFFFFFFFFFFFFFFFFFFFFFFFFFFFFFFFFFFFFFFFFFFFFFFFFFFFFFF NOT AND DUP2 MSTORE PUSH1 0x20 ADD PUSH1 0x0 ISZERO ISZERO DUP2 MSTORE PUSH1 0x20 ADD PUSH1 0x0 DUP2 MSTORE PUSH1 0x20 ADD PUSH1 0x0 DUP2 MSTORE PUSH1 0x20 ADD PUSH1 0x60 DUP2 MSTORE PUSH1 0x20 ADD PUSH1 0x0 DUP2 MSTORE POP SWAP1 JUMP JUMPDEST DUP3 DUP1 SLOAD PUSH2 0x45B6 SWAP1 PUSH2 0x607A JUMP JUMPDEST SWAP1 PUSH1 0x0 MSTORE PUSH1 0x20 PUSH1 0x0 KECCAK256 SWAP1 PUSH1 0x1F ADD PUSH1 0x20 SWAP1 DIV DUP2 ADD SWAP3 DUP3 PUSH2 0x45D8 JUMPI PUSH1 0x0 DUP6 SSTORE PUSH2 0x461F JUMP JUMPDEST DUP3 PUSH1 0x1F LT PUSH2 0x45F1 JUMPI DUP1 MLOAD PUSH1 0xFF NOT AND DUP4 DUP1 ADD OR DUP6 SSTORE PUSH2 0x461F JUMP JUMPDEST DUP3 DUP1 ADD PUSH1 0x1 ADD DUP6 SSTORE DUP3 ISZERO PUSH2 0x461F JUMPI SWAP2 DUP3 ADD JUMPDEST DUP3 DUP2 GT ISZERO PUSH2 0x461E JUMPI DUP3 MLOAD DUP3 SSTORE SWAP2 PUSH1 0x20 ADD SWAP2 SWAP1 PUSH1 0x1 ADD SWAP1 PUSH2 0x4603 JUMP JUMPDEST JUMPDEST POP SWAP1 POP PUSH2 0x462C SWAP2 SWAP1 PUSH2 0x4630 JUMP JUMPDEST POP SWAP1 JUMP JUMPDEST JUMPDEST DUP1 DUP3 GT ISZERO PUSH2 0x4649 JUMPI PUSH1 0x0 DUP2 PUSH1 0x0 SWAP1 SSTORE POP PUSH1 0x1 ADD PUSH2 0x4631 JUMP JUMPDEST POP SWAP1 JUMP JUMPDEST PUSH1 0x0 PUSH2 0x4660 PUSH2 0x465B DUP5 PUSH2 0x5B99 JUMP JUMPDEST PUSH2 0x5B74 JUMP JUMPDEST SWAP1 POP DUP1 DUP4 DUP3 MSTORE PUSH1 0x20 DUP3 ADD SWAP1 POP DUP3 DUP6 PUSH1 0x20 DUP7 MUL DUP3 ADD GT ISZERO PUSH2 0x4683 JUMPI PUSH2 0x4682 PUSH2 0x62D3 JUMP JUMPDEST JUMPDEST PUSH1 0x0 JUMPDEST DUP6 DUP2 LT ISZERO PUSH2 0x46B3 JUMPI DUP2 PUSH2 0x4699 DUP9 DUP3 PUSH2 0x482F JUMP JUMPDEST DUP5 MSTORE PUSH1 0x20 DUP5 ADD SWAP4 POP PUSH1 0x20 DUP4 ADD SWAP3 POP POP PUSH1 0x1 DUP2 ADD SWAP1 POP PUSH2 0x4686 JUMP JUMPDEST POP POP POP SWAP4 SWAP3 POP POP POP JUMP JUMPDEST PUSH1 0x0 PUSH2 0x46D0 PUSH2 0x46CB DUP5 PUSH2 0x5BC5 JUMP JUMPDEST PUSH2 0x5B74 JUMP JUMPDEST SWAP1 POP DUP3 DUP2 MSTORE PUSH1 0x20 DUP2 ADD DUP5 DUP5 DUP5 ADD GT ISZERO PUSH2 0x46EC JUMPI PUSH2 0x46EB PUSH2 0x62D8 JUMP JUMPDEST JUMPDEST PUSH2 0x46F7 DUP5 DUP3 DUP6 PUSH2 0x600E JUMP JUMPDEST POP SWAP4 SWAP3 POP POP POP JUMP JUMPDEST PUSH1 0x0 DUP2 CALLDATALOAD SWAP1 POP PUSH2 0x470E DUP2 PUSH2 0x6C77 JUMP JUMPDEST SWAP3 SWAP2 POP POP JUMP JUMPDEST PUSH1 0x0 DUP1 DUP4 PUSH1 0x1F DUP5 ADD SLT PUSH2 0x472A JUMPI PUSH2 0x4729 PUSH2 0x62CE JUMP JUMPDEST JUMPDEST DUP3 CALLDATALOAD SWAP1 POP PUSH8 0xFFFFFFFFFFFFFFFF DUP2 GT ISZERO PUSH2 0x4747 JUMPI PUSH2 0x4746 PUSH2 0x62C9 JUMP JUMPDEST JUMPDEST PUSH1 0x20 DUP4 ADD SWAP2 POP DUP4 PUSH1 0x20 DUP3 MUL DUP4 ADD GT ISZERO PUSH2 0x4763 JUMPI PUSH2 0x4762 PUSH2 0x62D3 JUMP JUMPDEST JUMPDEST SWAP3 POP SWAP3 SWAP1 POP JUMP JUMPDEST PUSH1 0x0 DUP3 PUSH1 0x1F DUP4 ADD SLT PUSH2 0x477F JUMPI PUSH2 0x477E PUSH2 0x62CE JUMP JUMPDEST JUMPDEST DUP2 CALLDATALOAD PUSH2 0x478F DUP5 DUP3 PUSH1 0x20 DUP7 ADD PUSH2 0x464D JUMP JUMPDEST SWAP2 POP POP SWAP3 SWAP2 POP POP JUMP JUMPDEST PUSH1 0x0 DUP2 MLOAD SWAP1 POP PUSH2 0x47A7 DUP2 PUSH2 0x6C8E JUMP JUMPDEST SWAP3 SWAP2 POP POP JUMP JUMPDEST PUSH1 0x0 DUP2 CALLDATALOAD SWAP1 POP PUSH2 0x47BC DUP2 PUSH2 0x6CA5 JUMP JUMPDEST SWAP3 SWAP2 POP POP JUMP JUMPDEST PUSH1 0x0 DUP2 CALLDATALOAD SWAP1 POP PUSH2 0x47D1 DUP2 PUSH2 0x6CBC JUMP JUMPDEST SWAP3 SWAP2 POP POP JUMP JUMPDEST PUSH1 0x0 DUP3 PUSH1 0x1F DUP4 ADD SLT PUSH2 0x47EC JUMPI PUSH2 0x47EB PUSH2 0x62CE JUMP JUMPDEST JUMPDEST DUP2 CALLDATALOAD PUSH2 0x47FC DUP5 DUP3 PUSH1 0x20 DUP7 ADD PUSH2 0x46BD JUMP JUMPDEST SWAP2 POP POP SWAP3 SWAP2 POP POP JUMP JUMPDEST PUSH1 0x0 DUP2 CALLDATALOAD SWAP1 POP PUSH2 0x4814 DUP2 PUSH2 0x6CD3 JUMP JUMPDEST SWAP3 SWAP2 POP POP JUMP JUMPDEST PUSH1 0x0 DUP2 CALLDATALOAD SWAP1 POP PUSH2 0x4829 DUP2 PUSH2 0x6CEA JUMP JUMPDEST SWAP3 SWAP2 POP POP JUMP JUMPDEST PUSH1 0x0 DUP2 CALLDATALOAD SWAP1 POP PUSH2 0x483E DUP2 PUSH2 0x6D01 JUMP JUMPDEST SWAP3 SWAP2 POP POP JUMP JUMPDEST PUSH1 0x0 DUP2 MLOAD SWAP1 POP PUSH2 0x4853 DUP2 PUSH2 0x6D01 JUMP JUMPDEST SWAP3 SWAP2 POP POP JUMP JUMPDEST PUSH1 0x0 PUSH1 0x20 DUP3 DUP5 SUB SLT ISZERO PUSH2 0x486F JUMPI PUSH2 0x486E PUSH2 0x62E2 JUMP JUMPDEST JUMPDEST PUSH1 0x0 PUSH2 0x487D DUP5 DUP3 DUP6 ADD PUSH2 0x46FF JUMP JUMPDEST SWAP2 POP POP SWAP3 SWAP2 POP POP JUMP JUMPDEST PUSH1 0x0 PUSH1 0x20 DUP3 DUP5 SUB SLT ISZERO PUSH2 0x489C JUMPI PUSH2 0x489B PUSH2 0x62E2 JUMP JUMPDEST JUMPDEST PUSH1 0x0 PUSH2 0x48AA DUP5 DUP3 DUP6 ADD PUSH2 0x4798 JUMP JUMPDEST SWAP2 POP POP SWAP3 SWAP2 POP POP JUMP JUMPDEST PUSH1 0x0 PUSH1 0x20 DUP3 DUP5 SUB SLT ISZERO PUSH2 0x48C9 JUMPI PUSH2 0x48C8 PUSH2 0x62E2 JUMP JUMPDEST JUMPDEST PUSH1 0x0 PUSH2 0x48D7 DUP5 DUP3 DUP6 ADD PUSH2 0x47C2 JUMP JUMPDEST SWAP2 POP POP SWAP3 SWAP2 POP POP JUMP JUMPDEST PUSH1 0x0 DUP1 PUSH1 0x0 DUP1 PUSH1 0x0 PUSH1 0xA0 DUP7 DUP9 SUB SLT ISZERO PUSH2 0x48FC JUMPI PUSH2 0x48FB PUSH2 0x62E2 JUMP JUMPDEST JUMPDEST PUSH1 0x0 PUSH2 0x490A DUP9 DUP3 DUP10 ADD PUSH2 0x47C2 JUMP JUMPDEST SWAP6 POP POP PUSH1 0x20 DUP7 ADD CALLDATALOAD PUSH8 0xFFFFFFFFFFFFFFFF DUP2 GT ISZERO PUSH2 0x492B JUMPI PUSH2 0x492A PUSH2 0x62DD JUMP JUMPDEST JUMPDEST PUSH2 0x4937 DUP9 DUP3 DUP10 ADD PUSH2 0x47D7 JUMP JUMPDEST SWAP5 POP POP PUSH1 0x40 PUSH2 0x4948 DUP9 DUP3 DUP10 ADD PUSH2 0x482F JUMP JUMPDEST SWAP4 POP POP PUSH1 0x60 PUSH2 0x4959 DUP9 DUP3 DUP10 ADD PUSH2 0x482F JUMP JUMPDEST SWAP3 POP POP PUSH1 0x80 PUSH2 0x496A DUP9 DUP3 DUP10 ADD PUSH2 0x482F JUMP JUMPDEST SWAP2 POP POP SWAP3 SWAP6 POP SWAP3 SWAP6 SWAP1 SWAP4 POP JUMP JUMPDEST PUSH1 0x0 DUP1 PUSH1 0x40 DUP4 DUP6 SUB SLT ISZERO PUSH2 0x498E JUMPI PUSH2 0x498D PUSH2 0x62E2 JUMP JUMPDEST JUMPDEST PUSH1 0x0 PUSH2 0x499C DUP6 DUP3 DUP7 ADD PUSH2 0x47C2 JUMP JUMPDEST SWAP3 POP POP PUSH1 0x20 PUSH2 0x49AD DUP6 DUP3 DUP7 ADD PUSH2 0x482F JUMP JUMPDEST SWAP2 POP POP SWAP3 POP SWAP3 SWAP1 POP JUMP JUMPDEST PUSH1 0x0 DUP1 PUSH1 0x0 DUP1 PUSH1 0x60 DUP6 DUP8 SUB SLT ISZERO PUSH2 0x49D1 JUMPI PUSH2 0x49D0 PUSH2 0x62E2 JUMP JUMPDEST JUMPDEST PUSH1 0x0 PUSH2 0x49DF DUP8 DUP3 DUP9 ADD PUSH2 0x47C2 JUMP JUMPDEST SWAP5 POP POP PUSH1 0x20 PUSH2 0x49F0 DUP8 DUP3 DUP9 ADD PUSH2 0x482F JUMP JUMPDEST SWAP4 POP POP PUSH1 0x40 DUP6 ADD CALLDATALOAD PUSH8 0xFFFFFFFFFFFFFFFF DUP2 GT ISZERO PUSH2 0x4A11 JUMPI PUSH2 0x4A10 PUSH2 0x62DD JUMP JUMPDEST JUMPDEST PUSH2 0x4A1D DUP8 DUP3 DUP9 ADD PUSH2 0x4714 JUMP JUMPDEST SWAP3 POP SWAP3 POP POP SWAP3 SWAP6 SWAP2 SWAP5 POP SWAP3 POP JUMP JUMPDEST PUSH1 0x0 PUSH1 0x20 DUP3 DUP5 SUB SLT ISZERO PUSH2 0x4A41 JUMPI PUSH2 0x4A40 PUSH2 0x62E2 JUMP JUMPDEST JUMPDEST PUSH1 0x0 DUP3 ADD CALLDATALOAD PUSH8 0xFFFFFFFFFFFFFFFF DUP2 GT ISZERO PUSH2 0x4A5F JUMPI PUSH2 0x4A5E PUSH2 0x62DD JUMP JUMPDEST JUMPDEST PUSH2 0x4A6B DUP5 DUP3 DUP6 ADD PUSH2 0x47D7 JUMP JUMPDEST SWAP2 POP POP SWAP3 SWAP2 POP POP JUMP JUMPDEST PUSH1 0x0 DUP1 PUSH1 0x0 DUP1 PUSH1 0x80 DUP6 DUP8 SUB SLT ISZERO PUSH2 0x4A8E JUMPI PUSH2 0x4A8D PUSH2 0x62E2 JUMP JUMPDEST JUMPDEST PUSH1 0x0 DUP6 ADD CALLDATALOAD PUSH8 0xFFFFFFFFFFFFFFFF DUP2 GT ISZERO PUSH2 0x4AAC JUMPI PUSH2 0x4AAB PUSH2 0x62DD JUMP JUMPDEST JUMPDEST PUSH2 0x4AB8 DUP8 DUP3 DUP9 ADD PUSH2 0x47D7 JUMP JUMPDEST SWAP5 POP POP PUSH1 0x20 PUSH2 0x4AC9 DUP8 DUP3 DUP9 ADD PUSH2 0x482F JUMP JUMPDEST SWAP4 POP POP PUSH1 0x40 PUSH2 0x4ADA DUP8 DUP3 DUP9 ADD PUSH2 0x482F JUMP JUMPDEST SWAP3 POP POP PUSH1 0x60 PUSH2 0x4AEB DUP8 DUP3 DUP9 ADD PUSH2 0x482F JUMP JUMPDEST SWAP2 POP POP SWAP3 SWAP6 SWAP2 SWAP5 POP SWAP3 POP JUMP JUMPDEST PUSH1 0x0 DUP1 PUSH1 0x0 DUP1 PUSH1 0x0 PUSH1 0xA0 DUP7 DUP9 SUB SLT ISZERO PUSH2 0x4B13 JUMPI PUSH2 0x4B12 PUSH2 0x62E2 JUMP JUMPDEST JUMPDEST PUSH1 0x0 DUP7 ADD CALLDATALOAD PUSH8 0xFFFFFFFFFFFFFFFF DUP2 GT ISZERO PUSH2 0x4B31 JUMPI PUSH2 0x4B30 PUSH2 0x62DD JUMP JUMPDEST JUMPDEST PUSH2 0x4B3D DUP9 DUP3 DUP10 ADD PUSH2 0x47D7 JUMP JUMPDEST SWAP6 POP POP PUSH1 0x20 PUSH2 0x4B4E DUP9 DUP3 DUP10 ADD PUSH2 0x482F JUMP JUMPDEST SWAP5 POP POP PUSH1 0x40 PUSH2 0x4B5F DUP9 DUP3 DUP10 ADD PUSH2 0x482F JUMP JUMPDEST SWAP4 POP POP PUSH1 0x60 PUSH2 0x4B70 DUP9 DUP3 DUP10 ADD PUSH2 0x482F JUMP JUMPDEST SWAP3 POP POP PUSH1 0x80 PUSH2 0x4B81 DUP9 DUP3 DUP10 ADD PUSH2 0x482F JUMP JUMPDEST SWAP2 POP POP SWAP3 SWAP6 POP SWAP3 SWAP6 SWAP1 SWAP4 POP JUMP JUMPDEST PUSH1 0x0 PUSH1 0x20 DUP3 DUP5 SUB SLT ISZERO PUSH2 0x4BA4 JUMPI PUSH2 0x4BA3 PUSH2 0x62E2 JUMP JUMPDEST JUMPDEST PUSH1 0x0 PUSH2 0x4BB2 DUP5 DUP3 DUP6 ADD PUSH2 0x482F JUMP JUMPDEST SWAP2 POP POP SWAP3 SWAP2 POP POP JUMP JUMPDEST PUSH1 0x0 PUSH1 0x20 DUP3 DUP5 SUB SLT ISZERO PUSH2 0x4BD1 JUMPI PUSH2 0x4BD0 PUSH2 0x62E2 JUMP JUMPDEST JUMPDEST PUSH1 0x0 PUSH2 0x4BDF DUP5 DUP3 DUP6 ADD PUSH2 0x4844 JUMP JUMPDEST SWAP2 POP POP SWAP3 SWAP2 POP POP JUMP JUMPDEST PUSH1 0x0 DUP1 PUSH1 0x40 DUP4 DUP6 SUB SLT ISZERO PUSH2 0x4BFF JUMPI PUSH2 0x4BFE PUSH2 0x62E2 JUMP JUMPDEST JUMPDEST PUSH1 0x0 PUSH2 0x4C0D DUP6 DUP3 DUP7 ADD PUSH2 0x482F JUMP JUMPDEST SWAP3 POP POP PUSH1 0x20 PUSH2 0x4C1E DUP6 DUP3 DUP7 ADD PUSH2 0x46FF JUMP JUMPDEST SWAP2 POP POP SWAP3 POP SWAP3 SWAP1 POP JUMP JUMPDEST PUSH1 0x0 DUP1 PUSH1 0x40 DUP4 DUP6 SUB SLT ISZERO PUSH2 0x4C3F JUMPI PUSH2 0x4C3E PUSH2 0x62E2 JUMP JUMPDEST JUMPDEST PUSH1 0x0 PUSH2 0x4C4D DUP6 DUP3 DUP7 ADD PUSH2 0x482F JUMP JUMPDEST SWAP3 POP POP PUSH1 0x20 PUSH2 0x4C5E DUP6 DUP3 DUP7 ADD PUSH2 0x482F JUMP JUMPDEST SWAP2 POP POP SWAP3 POP SWAP3 SWAP1 POP JUMP JUMPDEST PUSH1 0x0 DUP1 PUSH1 0x0 DUP1 PUSH1 0x0 PUSH1 0xA0 DUP7 DUP9 SUB SLT ISZERO PUSH2 0x4C84 JUMPI PUSH2 0x4C83 PUSH2 0x62E2 JUMP JUMPDEST JUMPDEST PUSH1 0x0 PUSH2 0x4C92 DUP9 DUP3 DUP10 ADD PUSH2 0x482F JUMP JUMPDEST SWAP6 POP POP PUSH1 0x20 PUSH2 0x4CA3 DUP9 DUP3 DUP10 ADD PUSH2 0x482F JUMP JUMPDEST SWAP5 POP POP PUSH1 0x40 PUSH2 0x4CB4 DUP9 DUP3 DUP10 ADD PUSH2 0x4805 JUMP JUMPDEST SWAP4 POP POP PUSH1 0x60 PUSH2 0x4CC5 DUP9 DUP3 DUP10 ADD PUSH2 0x481A JUMP JUMPDEST SWAP3 POP POP PUSH1 0x80 DUP7 ADD CALLDATALOAD PUSH8 0xFFFFFFFFFFFFFFFF DUP2 GT ISZERO PUSH2 0x4CE6 JUMPI PUSH2 0x4CE5 PUSH2 0x62DD JUMP JUMPDEST JUMPDEST PUSH2 0x4CF2 DUP9 DUP3 DUP10 ADD PUSH2 0x476A JUMP JUMPDEST SWAP2 POP POP SWAP3 SWAP6 POP SWAP3 SWAP6 SWAP1 SWAP4 POP JUMP JUMPDEST PUSH1 0x0 DUP1 PUSH1 0x0 DUP1 PUSH1 0x0 DUP1 PUSH1 0x0 PUSH1 0xE0 DUP9 DUP11 SUB SLT ISZERO PUSH2 0x4D1E JUMPI PUSH2 0x4D1D PUSH2 0x62E2 JUMP JUMPDEST JUMPDEST PUSH1 0x0 PUSH2 0x4D2C DUP11 DUP3 DUP12 ADD PUSH2 0x482F JUMP JUMPDEST SWAP8 POP POP PUSH1 0x20 PUSH2 0x4D3D DUP11 DUP3 DUP12 ADD PUSH2 0x482F JUMP JUMPDEST SWAP7 POP POP PUSH1 0x40 PUSH2 0x4D4E DUP11 DUP3 DUP12 ADD PUSH2 0x482F JUMP JUMPDEST SWAP6 POP POP PUSH1 0x60 PUSH2 0x4D5F DUP11 DUP3 DUP12 ADD PUSH2 0x47AD JUMP JUMPDEST SWAP5 POP POP PUSH1 0x80 PUSH2 0x4D70 DUP11 DUP3 DUP12 ADD PUSH2 0x4805 JUMP JUMPDEST SWAP4 POP POP PUSH1 0xA0 PUSH2 0x4D81 DUP11 DUP3 DUP12 ADD PUSH2 0x481A JUMP JUMPDEST SWAP3 POP POP PUSH1 0xC0 DUP9 ADD CALLDATALOAD PUSH8 0xFFFFFFFFFFFFFFFF DUP2 GT ISZERO PUSH2 0x4DA2 JUMPI PUSH2 0x4DA1 PUSH2 0x62DD JUMP JUMPDEST JUMPDEST PUSH2 0x4DAE DUP11 DUP3 DUP12 ADD PUSH2 0x476A JUMP JUMPDEST SWAP2 POP POP SWAP3 SWAP6 SWAP9 SWAP2 SWAP5 SWAP8 POP SWAP3 SWAP6 POP JUMP JUMPDEST PUSH1 0x0 PUSH2 0x4DC9 DUP4 DUP4 PUSH2 0x4E77 JUMP JUMPDEST PUSH1 0x20 DUP4 ADD SWAP1 POP SWAP3 SWAP2 POP POP JUMP JUMPDEST PUSH2 0x4DDE DUP2 PUSH2 0x5F03 JUMP JUMPDEST DUP3 MSTORE POP POP JUMP JUMPDEST PUSH2 0x4DF5 PUSH2 0x4DF0 DUP3 PUSH2 0x5F03 JUMP JUMPDEST PUSH2 0x6150 JUMP JUMPDEST DUP3 MSTORE POP POP JUMP JUMPDEST PUSH1 0x0 PUSH2 0x4E06 DUP3 PUSH2 0x5C06 JUMP JUMPDEST PUSH2 0x4E10 DUP2 DUP6 PUSH2 0x5C34 JUMP JUMPDEST SWAP4 POP PUSH2 0x4E1B DUP4 PUSH2 0x5BF6 JUMP JUMPDEST DUP1 PUSH1 0x0 JUMPDEST DUP4 DUP2 LT ISZERO PUSH2 0x4E4C JUMPI DUP2 MLOAD PUSH2 0x4E33 DUP9 DUP3 PUSH2 0x4DBD JUMP JUMPDEST SWAP8 POP PUSH2 0x4E3E DUP4 PUSH2 0x5C27 JUMP JUMPDEST SWAP3 POP POP PUSH1 0x1 DUP2 ADD SWAP1 POP PUSH2 0x4E1F JUMP JUMPDEST POP DUP6 SWAP4 POP POP POP POP SWAP3 SWAP2 POP POP JUMP JUMPDEST PUSH2 0x4E62 DUP2 PUSH2 0x5F15 JUMP JUMPDEST DUP3 MSTORE POP POP JUMP JUMPDEST PUSH2 0x4E71 DUP2 PUSH2 0x5F15 JUMP JUMPDEST DUP3 MSTORE POP POP JUMP JUMPDEST PUSH2 0x4E80 DUP2 PUSH2 0x5F2B JUMP JUMPDEST DUP3 MSTORE POP POP JUMP JUMPDEST PUSH2 0x4E8F DUP2 PUSH2 0x5F2B JUMP JUMPDEST DUP3 MSTORE POP POP JUMP JUMPDEST PUSH1 0x0 PUSH2 0x4EA0 DUP3 PUSH2 0x5C11 JUMP JUMPDEST PUSH2 0x4EAA DUP2 DUP6 PUSH2 0x5C45 JUMP JUMPDEST SWAP4 POP PUSH2 0x4EBA DUP2 DUP6 PUSH1 0x20 DUP7 ADD PUSH2 0x601D JUMP JUMPDEST DUP1 DUP5 ADD SWAP2 POP POP SWAP3 SWAP2 POP POP JUMP JUMPDEST PUSH2 0x4ECF DUP2 PUSH2 0x5FC6 JUMP JUMPDEST DUP3 MSTORE POP POP JUMP JUMPDEST PUSH2 0x4EDE DUP2 PUSH2 0x5FD8 JUMP JUMPDEST DUP3 MSTORE POP POP JUMP JUMPDEST PUSH1 0x0 PUSH2 0x4EEF DUP3 PUSH2 0x5C1C JUMP JUMPDEST PUSH2 0x4EF9 DUP2 DUP6 PUSH2 0x5C50 JUMP JUMPDEST SWAP4 POP PUSH2 0x4F09 DUP2 DUP6 PUSH1 0x20 DUP7 ADD PUSH2 0x601D JUMP JUMPDEST PUSH2 0x4F12 DUP2 PUSH2 0x62E7 JUMP JUMPDEST DUP5 ADD SWAP2 POP POP SWAP3 SWAP2 POP POP JUMP JUMPDEST PUSH1 0x0 PUSH2 0x4F28 DUP3 PUSH2 0x5C1C JUMP JUMPDEST PUSH2 0x4F32 DUP2 DUP6 PUSH2 0x5C61 JUMP JUMPDEST SWAP4 POP PUSH2 0x4F42 DUP2 DUP6 PUSH1 0x20 DUP7 ADD PUSH2 0x601D JUMP JUMPDEST PUSH2 0x4F4B DUP2 PUSH2 0x62E7 JUMP JUMPDEST DUP5 ADD SWAP2 POP POP SWAP3 SWAP2 POP POP JUMP JUMPDEST PUSH1 0x0 PUSH2 0x4F61 DUP3 PUSH2 0x5C1C JUMP JUMPDEST PUSH2 0x4F6B DUP2 DUP6 PUSH2 0x5C72 JUMP JUMPDEST SWAP4 POP PUSH2 0x4F7B DUP2 DUP6 PUSH1 0x20 DUP7 ADD PUSH2 0x601D JUMP JUMPDEST DUP1 DUP5 ADD SWAP2 POP POP SWAP3 SWAP2 POP POP JUMP JUMPDEST PUSH1 0x0 PUSH2 0x4F94 PUSH1 0x39 DUP4 PUSH2 0x5C61 JUMP JUMPDEST SWAP2 POP PUSH2 0x4F9F DUP3 PUSH2 0x6312 JUMP JUMPDEST PUSH1 0x40 DUP3 ADD SWAP1 POP SWAP2 SWAP1 POP JUMP JUMPDEST PUSH1 0x0 PUSH2 0x4FB7 PUSH1 0x5A DUP4 PUSH2 0x5C61 JUMP JUMPDEST SWAP2 POP PUSH2 0x4FC2 DUP3 PUSH2 0x6361 JUMP JUMPDEST PUSH1 0x60 DUP3 ADD SWAP1 POP SWAP2 SWAP1 POP JUMP JUMPDEST PUSH1 0x0 PUSH2 0x4FDA PUSH1 0x45 DUP4 PUSH2 0x5C61 JUMP JUMPDEST SWAP2 POP PUSH2 0x4FE5 DUP3 PUSH2 0x63D6 JUMP JUMPDEST PUSH1 0x60 DUP3 ADD SWAP1 POP SWAP2 SWAP1 POP JUMP JUMPDEST PUSH1 0x0 PUSH2 0x4FFD PUSH1 0x32 DUP4 PUSH2 0x5C61 JUMP JUMPDEST SWAP2 POP PUSH2 0x5008 DUP3 PUSH2 0x644B JUMP JUMPDEST PUSH1 0x40 DUP3 ADD SWAP1 POP SWAP2 SWAP1 POP JUMP JUMPDEST PUSH1 0x0 PUSH2 0x5020 PUSH1 0x26 DUP4 PUSH2 0x5C61 JUMP JUMPDEST SWAP2 POP PUSH2 0x502B DUP3 PUSH2 0x649A JUMP JUMPDEST PUSH1 0x40 DUP3 ADD SWAP1 POP SWAP2 SWAP1 POP JUMP JUMPDEST PUSH1 0x0 PUSH2 0x5043 PUSH1 0x35 DUP4 PUSH2 0x5C61 JUMP JUMPDEST SWAP2 POP PUSH2 0x504E DUP3 PUSH2 0x64E9 JUMP JUMPDEST PUSH1 0x40 DUP3 ADD SWAP1 POP SWAP2 SWAP1 POP JUMP JUMPDEST PUSH1 0x0 PUSH2 0x5066 PUSH1 0x25 DUP4 PUSH2 0x5C61 JUMP JUMPDEST SWAP2 POP PUSH2 0x5071 DUP3 PUSH2 0x6538 JUMP JUMPDEST PUSH1 0x40 DUP3 ADD SWAP1 POP SWAP2 SWAP1 POP JUMP JUMPDEST PUSH1 0x0 PUSH2 0x5089 PUSH1 0x1B DUP4 PUSH2 0x5C61 JUMP JUMPDEST SWAP2 POP PUSH2 0x5094 DUP3 PUSH2 0x6587 JUMP JUMPDEST PUSH1 0x20 DUP3 ADD SWAP1 POP SWAP2 SWAP1 POP JUMP JUMPDEST PUSH1 0x0 PUSH2 0x50AC PUSH1 0x4F DUP4 PUSH2 0x5C61 JUMP JUMPDEST SWAP2 POP PUSH2 0x50B7 DUP3 PUSH2 0x65B0 JUMP JUMPDEST PUSH1 0x60 DUP3 ADD SWAP1 POP SWAP2 SWAP1 POP JUMP JUMPDEST PUSH1 0x0 PUSH2 0x50CF PUSH1 0x26 DUP4 PUSH2 0x5C61 JUMP JUMPDEST SWAP2 POP PUSH2 0x50DA DUP3 PUSH2 0x6625 JUMP JUMPDEST PUSH1 0x40 DUP3 ADD SWAP1 POP SWAP2 SWAP1 POP JUMP JUMPDEST PUSH1 0x0 PUSH2 0x50F2 PUSH1 0x35 DUP4 PUSH2 0x5C61 JUMP JUMPDEST SWAP2 POP PUSH2 0x50FD DUP3 PUSH2 0x6674 JUMP JUMPDEST PUSH1 0x40 DUP3 ADD SWAP1 POP SWAP2 SWAP1 POP JUMP JUMPDEST PUSH1 0x0 PUSH2 0x5115 PUSH1 0x28 DUP4 PUSH2 0x5C61 JUMP JUMPDEST SWAP2 POP PUSH2 0x5120 DUP3 PUSH2 0x66C3 JUMP JUMPDEST PUSH1 0x40 DUP3 ADD SWAP1 POP SWAP2 SWAP1 POP JUMP JUMPDEST PUSH1 0x0 PUSH2 0x5138 PUSH1 0x24 DUP4 PUSH2 0x5C61 JUMP JUMPDEST SWAP2 POP PUSH2 0x5143 DUP3 PUSH2 0x6712 JUMP JUMPDEST PUSH1 0x40 DUP3 ADD SWAP1 POP SWAP2 SWAP1 POP JUMP JUMPDEST PUSH1 0x0 PUSH2 0x515B PUSH1 0x44 DUP4 PUSH2 0x5C61 JUMP JUMPDEST SWAP2 POP PUSH2 0x5166 DUP3 PUSH2 0x6761 JUMP JUMPDEST PUSH1 0x60 DUP3 ADD SWAP1 POP SWAP2 SWAP1 POP JUMP JUMPDEST PUSH1 0x0 PUSH2 0x517E PUSH1 0x42 DUP4 PUSH2 0x5C61 JUMP JUMPDEST SWAP2 POP PUSH2 0x5189 DUP3 PUSH2 0x67D6 JUMP JUMPDEST PUSH1 0x60 DUP3 ADD SWAP1 POP SWAP2 SWAP1 POP JUMP JUMPDEST PUSH1 0x0 PUSH2 0x51A1 PUSH1 0x37 DUP4 PUSH2 0x5C61 JUMP JUMPDEST SWAP2 POP PUSH2 0x51AC DUP3 PUSH2 0x684B JUMP JUMPDEST PUSH1 0x40 DUP3 ADD SWAP1 POP SWAP2 SWAP1 POP JUMP JUMPDEST PUSH1 0x0 PUSH2 0x51C4 PUSH1 0x21 DUP4 PUSH2 0x5C61 JUMP JUMPDEST SWAP2 POP PUSH2 0x51CF DUP3 PUSH2 0x689A JUMP JUMPDEST PUSH1 0x40 DUP3 ADD SWAP1 POP SWAP2 SWAP1 POP JUMP JUMPDEST PUSH1 0x0 PUSH2 0x51E7 PUSH1 0x22 DUP4 PUSH2 0x5C61 JUMP JUMPDEST SWAP2 POP PUSH2 0x51F2 DUP3 PUSH2 0x68E9 JUMP JUMPDEST PUSH1 0x40 DUP3 ADD SWAP1 POP SWAP2 SWAP1 POP JUMP JUMPDEST PUSH1 0x0 PUSH2 0x520A PUSH1 0x20 DUP4 PUSH2 0x5C61 JUMP JUMPDEST SWAP2 POP PUSH2 0x5215 DUP3 PUSH2 0x6938 JUMP JUMPDEST PUSH1 0x20 DUP3 ADD SWAP1 POP SWAP2 SWAP1 POP JUMP JUMPDEST PUSH1 0x0 PUSH2 0x522D PUSH1 0x25 DUP4 PUSH2 0x5C61 JUMP JUMPDEST SWAP2 POP PUSH2 0x5238 DUP3 PUSH2 0x6961 JUMP JUMPDEST PUSH1 0x40 DUP3 ADD SWAP1 POP SWAP2 SWAP1 POP JUMP JUMPDEST PUSH1 0x0 PUSH2 0x5250 PUSH1 0x26 DUP4 PUSH2 0x5C61 JUMP JUMPDEST SWAP2 POP PUSH2 0x525B DUP3 PUSH2 0x69B0 JUMP JUMPDEST PUSH1 0x40 DUP3 ADD SWAP1 POP SWAP2 SWAP1 POP JUMP JUMPDEST PUSH1 0x0 PUSH2 0x5273 PUSH1 0x26 DUP4 PUSH2 0x5C61 JUMP JUMPDEST SWAP2 POP PUSH2 0x527E DUP3 PUSH2 0x69FF JUMP JUMPDEST PUSH1 0x40 DUP3 ADD SWAP1 POP SWAP2 SWAP1 POP JUMP JUMPDEST PUSH1 0x0 PUSH2 0x5296 PUSH1 0x36 DUP4 PUSH2 0x5C61 JUMP JUMPDEST SWAP2 POP PUSH2 0x52A1 DUP3 PUSH2 0x6A4E JUMP JUMPDEST PUSH1 0x40 DUP3 ADD SWAP1 POP SWAP2 SWAP1 POP JUMP JUMPDEST PUSH1 0x0 PUSH2 0x52B9 PUSH1 0x3A DUP4 PUSH2 0x5C61 JUMP JUMPDEST SWAP2 POP PUSH2 0x52C4 DUP3 PUSH2 0x6A9D JUMP JUMPDEST PUSH1 0x40 DUP3 ADD SWAP1 POP SWAP2 SWAP1 POP JUMP JUMPDEST PUSH1 0x0 PUSH2 0x52DC PUSH1 0x1D DUP4 PUSH2 0x5C61 JUMP JUMPDEST SWAP2 POP PUSH2 0x52E7 DUP3 PUSH2 0x6AEC JUMP JUMPDEST PUSH1 0x20 DUP3 ADD SWAP1 POP SWAP2 SWAP1 POP JUMP JUMPDEST PUSH1 0x0 PUSH2 0x52FF PUSH1 0x3C DUP4 PUSH2 0x5C61 JUMP JUMPDEST SWAP2 POP PUSH2 0x530A DUP3 PUSH2 0x6B15 JUMP JUMPDEST PUSH1 0x40 DUP3 ADD SWAP1 POP SWAP2 SWAP1 POP JUMP JUMPDEST PUSH1 0x0 PUSH2 0x5322 PUSH1 0x44 DUP4 PUSH2 0x5C61 JUMP JUMPDEST SWAP2 POP PUSH2 0x532D DUP3 PUSH2 0x6B64 JUMP JUMPDEST PUSH1 0x60 DUP3 ADD SWAP1 POP SWAP2 SWAP1 POP JUMP JUMPDEST PUSH1 0x0 PUSH2 0x5345 PUSH1 0x2A DUP4 PUSH2 0x5C61 JUMP JUMPDEST SWAP2 POP PUSH2 0x5350 DUP3 PUSH2 0x6BD9 JUMP JUMPDEST PUSH1 0x40 DUP3 ADD SWAP1 POP SWAP2 SWAP1 POP JUMP JUMPDEST PUSH1 0x0 PUSH2 0x5368 PUSH1 0x3A DUP4 PUSH2 0x5C61 JUMP JUMPDEST SWAP2 POP PUSH2 0x5373 DUP3 PUSH2 0x6C28 JUMP JUMPDEST PUSH1 0x40 DUP3 ADD SWAP1 POP SWAP2 SWAP1 POP JUMP JUMPDEST PUSH1 0x0 PUSH1 0xC0 DUP4 ADD PUSH1 0x0 DUP4 ADD MLOAD PUSH2 0x5396 PUSH1 0x0 DUP7 ADD DUP3 PUSH2 0x4E77 JUMP JUMPDEST POP PUSH1 0x20 DUP4 ADD MLOAD PUSH2 0x53A9 PUSH1 0x20 DUP7 ADD DUP3 PUSH2 0x4E59 JUMP JUMPDEST POP PUSH1 0x40 DUP4 ADD MLOAD PUSH2 0x53BC PUSH1 0x40 DUP7 ADD DUP3 PUSH2 0x5416 JUMP JUMPDEST POP PUSH1 0x60 DUP4 ADD MLOAD PUSH2 0x53CF PUSH1 0x60 DUP7 ADD DUP3 PUSH2 0x5416 JUMP JUMPDEST POP PUSH1 0x80 DUP4 ADD MLOAD DUP5 DUP3 SUB PUSH1 0x80 DUP7 ADD MSTORE PUSH2 0x53E7 DUP3 DUP3 PUSH2 0x4EE4 JUMP JUMPDEST SWAP2 POP POP PUSH1 0xA0 DUP4 ADD MLOAD PUSH2 0x53FC PUSH1 0xA0 DUP7 ADD DUP3 PUSH2 0x5416 JUMP JUMPDEST POP DUP1 SWAP2 POP POP SWAP3 SWAP2 POP POP JUMP JUMPDEST PUSH2 0x5410 DUP2 PUSH2 0x5F57 JUMP JUMPDEST DUP3 MSTORE POP POP JUMP JUMPDEST PUSH2 0x541F DUP2 PUSH2 0x5FAF JUMP JUMPDEST DUP3 MSTORE POP POP JUMP JUMPDEST PUSH2 0x542E DUP2 PUSH2 0x5FAF JUMP JUMPDEST DUP3 MSTORE POP POP JUMP JUMPDEST PUSH2 0x5445 PUSH2 0x5440 DUP3 PUSH2 0x5FAF JUMP JUMPDEST PUSH2 0x6174 JUMP JUMPDEST DUP3 MSTORE POP POP JUMP JUMPDEST PUSH2 0x5454 DUP2 PUSH2 0x5FB9 JUMP JUMPDEST DUP3 MSTORE POP POP JUMP JUMPDEST PUSH1 0x0 PUSH2 0x5466 DUP3 DUP5 PUSH2 0x4DE4 JUMP JUMPDEST PUSH1 0x14 DUP3 ADD SWAP2 POP DUP2 SWAP1 POP SWAP3 SWAP2 POP POP JUMP JUMPDEST PUSH1 0x0 PUSH2 0x5481 DUP3 DUP5 PUSH2 0x4E95 JUMP JUMPDEST SWAP2 POP DUP2 SWAP1 POP SWAP3 SWAP2 POP POP JUMP JUMPDEST PUSH1 0x0 PUSH2 0x5498 DUP3 DUP8 PUSH2 0x4F56 JUMP JUMPDEST SWAP2 POP PUSH2 0x54A4 DUP3 DUP7 PUSH2 0x5434 JUMP JUMPDEST PUSH1 0x20 DUP3 ADD SWAP2 POP PUSH2 0x54B4 DUP3 DUP6 PUSH2 0x5434 JUMP JUMPDEST PUSH1 0x20 DUP3 ADD SWAP2 POP PUSH2 0x54C4 DUP3 DUP5 PUSH2 0x5434 JUMP JUMPDEST PUSH1 0x20 DUP3 ADD SWAP2 POP DUP2 SWAP1 POP SWAP6 SWAP5 POP POP POP POP POP JUMP JUMPDEST PUSH1 0x0 PUSH1 0x20 DUP3 ADD SWAP1 POP PUSH2 0x54EB PUSH1 0x0 DUP4 ADD DUP5 PUSH2 0x4DD5 JUMP JUMPDEST SWAP3 SWAP2 POP POP JUMP JUMPDEST PUSH1 0x0 PUSH1 0x60 DUP3 ADD SWAP1 POP PUSH2 0x5506 PUSH1 0x0 DUP4 ADD DUP7 PUSH2 0x4DD5 JUMP JUMPDEST PUSH2 0x5513 PUSH1 0x20 DUP4 ADD DUP6 PUSH2 0x4DD5 JUMP JUMPDEST PUSH2 0x5520 PUSH1 0x40 DUP4 ADD DUP5 PUSH2 0x5425 JUMP JUMPDEST SWAP5 SWAP4 POP POP POP POP JUMP JUMPDEST PUSH1 0x0 PUSH1 0x80 DUP3 ADD SWAP1 POP PUSH2 0x553D PUSH1 0x0 DUP4 ADD DUP8 PUSH2 0x4DD5 JUMP JUMPDEST PUSH2 0x554A PUSH1 0x20 DUP4 ADD DUP7 PUSH2 0x4E86 JUMP JUMPDEST PUSH2 0x5557 PUSH1 0x40 DUP4 ADD DUP6 PUSH2 0x5425 JUMP JUMPDEST PUSH2 0x5564 PUSH1 0x60 DUP4 ADD DUP5 PUSH2 0x5425 JUMP JUMPDEST SWAP6 SWAP5 POP POP POP POP POP JUMP JUMPDEST PUSH1 0x0 PUSH1 0x40 DUP3 ADD SWAP1 POP PUSH2 0x5582 PUSH1 0x0 DUP4 ADD DUP6 PUSH2 0x4DD5 JUMP JUMPDEST PUSH2 0x558F PUSH1 0x20 DUP4 ADD DUP5 PUSH2 0x5425 JUMP JUMPDEST SWAP4 SWAP3 POP POP POP JUMP JUMPDEST PUSH1 0x0 PUSH1 0x20 DUP3 ADD SWAP1 POP DUP2 DUP2 SUB PUSH1 0x0 DUP4 ADD MSTORE PUSH2 0x55B0 DUP2 DUP5 PUSH2 0x4DFB JUMP JUMPDEST SWAP1 POP SWAP3 SWAP2 POP POP JUMP JUMPDEST PUSH1 0x0 PUSH1 0x20 DUP3 ADD SWAP1 POP PUSH2 0x55CD PUSH1 0x0 DUP4 ADD DUP5 PUSH2 0x4E68 JUMP JUMPDEST SWAP3 SWAP2 POP POP JUMP JUMPDEST PUSH1 0x0 PUSH1 0x20 DUP3 ADD SWAP1 POP PUSH2 0x55E8 PUSH1 0x0 DUP4 ADD DUP5 PUSH2 0x4E86 JUMP JUMPDEST SWAP3 SWAP2 POP POP JUMP JUMPDEST PUSH1 0x0 PUSH1 0x20 DUP3 ADD SWAP1 POP PUSH2 0x5603 PUSH1 0x0 DUP4 ADD DUP5 PUSH2 0x4EC6 JUMP JUMPDEST SWAP3 SWAP2 POP POP JUMP JUMPDEST PUSH1 0x0 PUSH1 0x20 DUP3 ADD SWAP1 POP PUSH2 0x561E PUSH1 0x0 DUP4 ADD DUP5 PUSH2 0x4ED5 JUMP JUMPDEST SWAP3 SWAP2 POP POP JUMP JUMPDEST PUSH1 0x0 PUSH1 0x20 DUP3 ADD SWAP1 POP DUP2 DUP2 SUB PUSH1 0x0 DUP4 ADD MSTORE PUSH2 0x563E DUP2 DUP5 PUSH2 0x4F1D JUMP JUMPDEST SWAP1 POP SWAP3 SWAP2 POP POP JUMP JUMPDEST PUSH1 0x0 PUSH1 0x80 DUP3 ADD SWAP1 POP DUP2 DUP2 SUB PUSH1 0x0 DUP4 ADD MSTORE PUSH2 0x5660 DUP2 DUP8 PUSH2 0x4F1D JUMP JUMPDEST SWAP1 POP PUSH2 0x566F PUSH1 0x20 DUP4 ADD DUP7 PUSH2 0x5425 JUMP JUMPDEST PUSH2 0x567C PUSH1 0x40 DUP4 ADD DUP6 PUSH2 0x5425 JUMP JUMPDEST PUSH2 0x5689 PUSH1 0x60 DUP4 ADD DUP5 PUSH2 0x5425 JUMP JUMPDEST SWAP6 SWAP5 POP POP POP POP POP JUMP JUMPDEST PUSH1 0x0 PUSH1 0x20 DUP3 ADD SWAP1 POP DUP2 DUP2 SUB PUSH1 0x0 DUP4 ADD MSTORE PUSH2 0x56AB DUP2 PUSH2 0x4F87 JUMP JUMPDEST SWAP1 POP SWAP2 SWAP1 POP JUMP JUMPDEST PUSH1 0x0 PUSH1 0x20 DUP3 ADD SWAP1 POP DUP2 DUP2 SUB PUSH1 0x0 DUP4 ADD MSTORE PUSH2 0x56CB DUP2 PUSH2 0x4FAA JUMP JUMPDEST SWAP1 POP SWAP2 SWAP1 POP JUMP JUMPDEST PUSH1 0x0 PUSH1 0x20 DUP3 ADD SWAP1 POP DUP2 DUP2 SUB PUSH1 0x0 DUP4 ADD MSTORE PUSH2 0x56EB DUP2 PUSH2 0x4FCD JUMP JUMPDEST SWAP1 POP SWAP2 SWAP1 POP JUMP JUMPDEST PUSH1 0x0 PUSH1 0x20 DUP3 ADD SWAP1 POP DUP2 DUP2 SUB PUSH1 0x0 DUP4 ADD MSTORE PUSH2 0x570B DUP2 PUSH2 0x4FF0 JUMP JUMPDEST SWAP1 POP SWAP2 SWAP1 POP JUMP JUMPDEST PUSH1 0x0 PUSH1 0x20 DUP3 ADD SWAP1 POP DUP2 DUP2 SUB PUSH1 0x0 DUP4 ADD MSTORE PUSH2 0x572B DUP2 PUSH2 0x5013 JUMP JUMPDEST SWAP1 POP SWAP2 SWAP1 POP JUMP JUMPDEST PUSH1 0x0 PUSH1 0x20 DUP3 ADD SWAP1 POP DUP2 DUP2 SUB PUSH1 0x0 DUP4 ADD MSTORE PUSH2 0x574B DUP2 PUSH2 0x5036 JUMP JUMPDEST SWAP1 POP SWAP2 SWAP1 POP JUMP JUMPDEST PUSH1 0x0 PUSH1 0x20 DUP3 ADD SWAP1 POP DUP2 DUP2 SUB PUSH1 0x0 DUP4 ADD MSTORE PUSH2 0x576B DUP2 PUSH2 0x5059 JUMP JUMPDEST SWAP1 POP SWAP2 SWAP1 POP JUMP JUMPDEST PUSH1 0x0 PUSH1 0x20 DUP3 ADD SWAP1 POP DUP2 DUP2 SUB PUSH1 0x0 DUP4 ADD MSTORE PUSH2 0x578B DUP2 PUSH2 0x507C JUMP JUMPDEST SWAP1 POP SWAP2 SWAP1 POP JUMP JUMPDEST PUSH1 0x0 PUSH1 0x20 DUP3 ADD SWAP1 POP DUP2 DUP2 SUB PUSH1 0x0 DUP4 ADD MSTORE PUSH2 0x57AB DUP2 PUSH2 0x509F JUMP JUMPDEST SWAP1 POP SWAP2 SWAP1 POP JUMP JUMPDEST PUSH1 0x0 PUSH1 0x20 DUP3 ADD SWAP1 POP DUP2 DUP2 SUB PUSH1 0x0 DUP4 ADD MSTORE PUSH2 0x57CB DUP2 PUSH2 0x50C2 JUMP JUMPDEST SWAP1 POP SWAP2 SWAP1 POP JUMP JUMPDEST PUSH1 0x0 PUSH1 0x20 DUP3 ADD SWAP1 POP DUP2 DUP2 SUB PUSH1 0x0 DUP4 ADD MSTORE PUSH2 0x57EB DUP2 PUSH2 0x50E5 JUMP JUMPDEST SWAP1 POP SWAP2 SWAP1 POP JUMP JUMPDEST PUSH1 0x0 PUSH1 0x20 DUP3 ADD SWAP1 POP DUP2 DUP2 SUB PUSH1 0x0 DUP4 ADD MSTORE PUSH2 0x580B DUP2 PUSH2 0x5108 JUMP JUMPDEST SWAP1 POP SWAP2 SWAP1 POP JUMP JUMPDEST PUSH1 0x0 PUSH1 0x20 DUP3 ADD SWAP1 POP DUP2 DUP2 SUB PUSH1 0x0 DUP4 ADD MSTORE PUSH2 0x582B DUP2 PUSH2 0x512B JUMP JUMPDEST SWAP1 POP SWAP2 SWAP1 POP JUMP JUMPDEST PUSH1 0x0 PUSH1 0x20 DUP3 ADD SWAP1 POP DUP2 DUP2 SUB PUSH1 0x0 DUP4 ADD MSTORE PUSH2 0x584B DUP2 PUSH2 0x514E JUMP JUMPDEST SWAP1 POP SWAP2 SWAP1 POP JUMP JUMPDEST PUSH1 0x0 PUSH1 0x20 DUP3 ADD SWAP1 POP DUP2 DUP2 SUB PUSH1 0x0 DUP4 ADD MSTORE PUSH2 0x586B DUP2 PUSH2 0x5171 JUMP JUMPDEST SWAP1 POP SWAP2 SWAP1 POP JUMP JUMPDEST PUSH1 0x0 PUSH1 0x20 DUP3 ADD SWAP1 POP DUP2 DUP2 SUB PUSH1 0x0 DUP4 ADD MSTORE PUSH2 0x588B DUP2 PUSH2 0x5194 JUMP JUMPDEST SWAP1 POP SWAP2 SWAP1 POP JUMP JUMPDEST PUSH1 0x0 PUSH1 0x20 DUP3 ADD SWAP1 POP DUP2 DUP2 SUB PUSH1 0x0 DUP4 ADD MSTORE PUSH2 0x58AB DUP2 PUSH2 0x51B7 JUMP JUMPDEST SWAP1 POP SWAP2 SWAP1 POP JUMP JUMPDEST PUSH1 0x0 PUSH1 0x20 DUP3 ADD SWAP1 POP DUP2 DUP2 SUB PUSH1 0x0 DUP4 ADD MSTORE PUSH2 0x58CB DUP2 PUSH2 0x51DA JUMP JUMPDEST SWAP1 POP SWAP2 SWAP1 POP JUMP JUMPDEST PUSH1 0x0 PUSH1 0x20 DUP3 ADD SWAP1 POP DUP2 DUP2 SUB PUSH1 0x0 DUP4 ADD MSTORE PUSH2 0x58EB DUP2 PUSH2 0x51FD JUMP JUMPDEST SWAP1 POP SWAP2 SWAP1 POP JUMP JUMPDEST PUSH1 0x0 PUSH1 0x20 DUP3 ADD SWAP1 POP DUP2 DUP2 SUB PUSH1 0x0 DUP4 ADD MSTORE PUSH2 0x590B DUP2 PUSH2 0x5220 JUMP JUMPDEST SWAP1 POP SWAP2 SWAP1 POP JUMP JUMPDEST PUSH1 0x0 PUSH1 0x20 DUP3 ADD SWAP1 POP DUP2 DUP2 SUB PUSH1 0x0 DUP4 ADD MSTORE PUSH2 0x592B DUP2 PUSH2 0x5243 JUMP JUMPDEST SWAP1 POP SWAP2 SWAP1 POP JUMP JUMPDEST PUSH1 0x0 PUSH1 0x20 DUP3 ADD SWAP1 POP DUP2 DUP2 SUB PUSH1 0x0 DUP4 ADD MSTORE PUSH2 0x594B DUP2 PUSH2 0x5266 JUMP JUMPDEST SWAP1 POP SWAP2 SWAP1 POP JUMP JUMPDEST PUSH1 0x0 PUSH1 0x20 DUP3 ADD SWAP1 POP DUP2 DUP2 SUB PUSH1 0x0 DUP4 ADD MSTORE PUSH2 0x596B DUP2 PUSH2 0x5289 JUMP JUMPDEST SWAP1 POP SWAP2 SWAP1 POP JUMP JUMPDEST PUSH1 0x0 PUSH1 0x20 DUP3 ADD SWAP1 POP DUP2 DUP2 SUB PUSH1 0x0 DUP4 ADD MSTORE PUSH2 0x598B DUP2 PUSH2 0x52AC JUMP JUMPDEST SWAP1 POP SWAP2 SWAP1 POP JUMP JUMPDEST PUSH1 0x0 PUSH1 0x20 DUP3 ADD SWAP1 POP DUP2 DUP2 SUB PUSH1 0x0 DUP4 ADD MSTORE PUSH2 0x59AB DUP2 PUSH2 0x52CF JUMP JUMPDEST SWAP1 POP SWAP2 SWAP1 POP JUMP JUMPDEST PUSH1 0x0 PUSH1 0x20 DUP3 ADD SWAP1 POP DUP2 DUP2 SUB PUSH1 0x0 DUP4 ADD MSTORE PUSH2 0x59CB DUP2 PUSH2 0x52F2 JUMP JUMPDEST SWAP1 POP SWAP2 SWAP1 POP JUMP JUMPDEST PUSH1 0x0 PUSH1 0x20 DUP3 ADD SWAP1 POP DUP2 DUP2 SUB PUSH1 0x0 DUP4 ADD MSTORE PUSH2 0x59EB DUP2 PUSH2 0x5315 JUMP JUMPDEST SWAP1 POP SWAP2 SWAP1 POP JUMP JUMPDEST PUSH1 0x0 PUSH1 0x20 DUP3 ADD SWAP1 POP DUP2 DUP2 SUB PUSH1 0x0 DUP4 ADD MSTORE PUSH2 0x5A0B DUP2 PUSH2 0x5338 JUMP JUMPDEST SWAP1 POP SWAP2 SWAP1 POP JUMP JUMPDEST PUSH1 0x0 PUSH1 0x20 DUP3 ADD SWAP1 POP DUP2 DUP2 SUB PUSH1 0x0 DUP4 ADD MSTORE PUSH2 0x5A2B DUP2 PUSH2 0x535B JUMP JUMPDEST SWAP1 POP SWAP2 SWAP1 POP JUMP JUMPDEST PUSH1 0x0 PUSH1 0x20 DUP3 ADD SWAP1 POP DUP2 DUP2 SUB PUSH1 0x0 DUP4 ADD MSTORE PUSH2 0x5A4C DUP2 DUP5 PUSH2 0x537E JUMP JUMPDEST SWAP1 POP SWAP3 SWAP2 POP POP JUMP JUMPDEST PUSH1 0x0 PUSH1 0x20 DUP3 ADD SWAP1 POP PUSH2 0x5A69 PUSH1 0x0 DUP4 ADD DUP5 PUSH2 0x5425 JUMP JUMPDEST SWAP3 SWAP2 POP POP JUMP JUMPDEST PUSH1 0x0 PUSH1 0x40 DUP3 ADD SWAP1 POP PUSH2 0x5A84 PUSH1 0x0 DUP4 ADD DUP6 PUSH2 0x5425 JUMP JUMPDEST PUSH2 0x5A91 PUSH1 0x20 DUP4 ADD DUP5 PUSH2 0x4E68 JUMP JUMPDEST SWAP4 SWAP3 POP POP POP JUMP JUMPDEST PUSH1 0x0 PUSH1 0x40 DUP3 ADD SWAP1 POP PUSH2 0x5AAD PUSH1 0x0 DUP4 ADD DUP6 PUSH2 0x5425 JUMP JUMPDEST PUSH2 0x5ABA PUSH1 0x20 DUP4 ADD DUP5 PUSH2 0x5425 JUMP JUMPDEST SWAP4 SWAP3 POP POP POP JUMP JUMPDEST PUSH1 0x0 PUSH1 0x80 DUP3 ADD SWAP1 POP PUSH2 0x5AD6 PUSH1 0x0 DUP4 ADD DUP8 PUSH2 0x5425 JUMP JUMPDEST PUSH2 0x5AE3 PUSH1 0x20 DUP4 ADD DUP7 PUSH2 0x5425 JUMP JUMPDEST PUSH2 0x5AF0 PUSH1 0x40 DUP4 ADD DUP6 PUSH2 0x5407 JUMP JUMPDEST PUSH2 0x5AFD PUSH1 0x60 DUP4 ADD DUP5 PUSH2 0x4E68 JUMP JUMPDEST SWAP6 SWAP5 POP POP POP POP POP JUMP JUMPDEST PUSH1 0x0 PUSH1 0xA0 DUP3 ADD SWAP1 POP PUSH2 0x5B1B PUSH1 0x0 DUP4 ADD DUP9 PUSH2 0x5425 JUMP JUMPDEST PUSH2 0x5B28 PUSH1 0x20 DUP4 ADD DUP8 PUSH2 0x5425 JUMP JUMPDEST PUSH2 0x5B35 PUSH1 0x40 DUP4 ADD DUP7 PUSH2 0x5425 JUMP JUMPDEST PUSH2 0x5B42 PUSH1 0x60 DUP4 ADD DUP6 PUSH2 0x5425 JUMP JUMPDEST PUSH2 0x5B4F PUSH1 0x80 DUP4 ADD DUP5 PUSH2 0x5425 JUMP JUMPDEST SWAP7 SWAP6 POP POP POP POP POP POP JUMP JUMPDEST PUSH1 0x0 PUSH1 0x20 DUP3 ADD SWAP1 POP PUSH2 0x5B6E PUSH1 0x0 DUP4 ADD DUP5 PUSH2 0x544B JUMP JUMPDEST SWAP3 SWAP2 POP POP JUMP JUMPDEST PUSH1 0x0 PUSH2 0x5B7E PUSH2 0x5B8F JUMP JUMPDEST SWAP1 POP PUSH2 0x5B8A DUP3 DUP3 PUSH2 0x60AC JUMP JUMPDEST SWAP2 SWAP1 POP JUMP JUMPDEST PUSH1 0x0 PUSH1 0x40 MLOAD SWAP1 POP SWAP1 JUMP JUMPDEST PUSH1 0x0 PUSH8 0xFFFFFFFFFFFFFFFF DUP3 GT ISZERO PUSH2 0x5BB4 JUMPI PUSH2 0x5BB3 PUSH2 0x629A JUMP JUMPDEST JUMPDEST PUSH1 0x20 DUP3 MUL SWAP1 POP PUSH1 0x20 DUP2 ADD SWAP1 POP SWAP2 SWAP1 POP JUMP JUMPDEST PUSH1 0x0 PUSH8 0xFFFFFFFFFFFFFFFF DUP3 GT ISZERO PUSH2 0x5BE0 JUMPI PUSH2 0x5BDF PUSH2 0x629A JUMP JUMPDEST JUMPDEST PUSH2 0x5BE9 DUP3 PUSH2 0x62E7 JUMP JUMPDEST SWAP1 POP PUSH1 0x20 DUP2 ADD SWAP1 POP SWAP2 SWAP1 POP JUMP JUMPDEST PUSH1 0x0 DUP2 SWAP1 POP PUSH1 0x20 DUP3 ADD SWAP1 POP SWAP2 SWAP1 POP JUMP JUMPDEST PUSH1 0x0 DUP2 MLOAD SWAP1 POP SWAP2 SWAP1 POP JUMP JUMPDEST PUSH1 0x0 DUP2 MLOAD SWAP1 POP SWAP2 SWAP1 POP JUMP JUMPDEST PUSH1 0x0 DUP2 MLOAD SWAP1 POP SWAP2 SWAP1 POP JUMP JUMPDEST PUSH1 0x0 PUSH1 0x20 DUP3 ADD SWAP1 POP SWAP2 SWAP1 POP JUMP JUMPDEST PUSH1 0x0 DUP3 DUP3 MSTORE PUSH1 0x20 DUP3 ADD SWAP1 POP SWAP3 SWAP2 POP POP JUMP JUMPDEST PUSH1 0x0 DUP2 SWAP1 POP SWAP3 SWAP2 POP POP JUMP JUMPDEST PUSH1 0x0 DUP3 DUP3 MSTORE PUSH1 0x20 DUP3 ADD SWAP1 POP SWAP3 SWAP2 POP POP JUMP JUMPDEST PUSH1 0x0 DUP3 DUP3 MSTORE PUSH1 0x20 DUP3 ADD SWAP1 POP SWAP3 SWAP2 POP POP JUMP JUMPDEST PUSH1 0x0 DUP2 SWAP1 POP SWAP3 SWAP2 POP POP JUMP JUMPDEST PUSH1 0x0 PUSH2 0x5C88 DUP3 PUSH2 0x5FAF JUMP JUMPDEST SWAP2 POP PUSH2 0x5C93 DUP4 PUSH2 0x5FAF JUMP JUMPDEST SWAP3 POP DUP3 PUSH32 0xFFFFFFFFFFFFFFFFFFFFFFFFFFFFFFFFFFFFFFFFFFFFFFFFFFFFFFFFFFFFFFFF SUB DUP3 GT ISZERO PUSH2 0x5CC8 JUMPI PUSH2 0x5CC7 PUSH2 0x61AF JUMP JUMPDEST JUMPDEST DUP3 DUP3 ADD SWAP1 POP SWAP3 SWAP2 POP POP JUMP JUMPDEST PUSH1 0x0 PUSH2 0x5CDE DUP3 PUSH2 0x5FAF JUMP JUMPDEST SWAP2 POP PUSH2 0x5CE9 DUP4 PUSH2 0x5FAF JUMP JUMPDEST SWAP3 POP DUP3 PUSH2 0x5CF9 JUMPI PUSH2 0x5CF8 PUSH2 0x61DE JUMP JUMPDEST JUMPDEST DUP3 DUP3 DIV SWAP1 POP SWAP3 SWAP2 POP POP JUMP JUMPDEST PUSH1 0x0 DUP1 DUP3 SWAP2 POP DUP4 SWAP1 POP JUMPDEST PUSH1 0x1 DUP6 GT ISZERO PUSH2 0x5D4E JUMPI DUP1 DUP7 DIV DUP2 GT ISZERO PUSH2 0x5D2A JUMPI PUSH2 0x5D29 PUSH2 0x61AF JUMP JUMPDEST JUMPDEST PUSH1 0x1 DUP6 AND ISZERO PUSH2 0x5D39 JUMPI DUP1 DUP3 MUL SWAP2 POP JUMPDEST DUP1 DUP2 MUL SWAP1 POP PUSH2 0x5D47 DUP6 PUSH2 0x6305 JUMP JUMPDEST SWAP5 POP PUSH2 0x5D0E JUMP JUMPDEST SWAP5 POP SWAP5 SWAP3 POP POP POP JUMP JUMPDEST PUSH1 0x0 PUSH2 0x5D62 DUP3 PUSH2 0x5FAF JUMP JUMPDEST SWAP2 POP PUSH2 0x5D6D DUP4 PUSH2 0x5FAF JUMP JUMPDEST SWAP3 POP PUSH2 0x5D9A PUSH32 0xFFFFFFFFFFFFFFFFFFFFFFFFFFFFFFFFFFFFFFFFFFFFFFFFFFFFFFFFFFFFFFFF DUP5 DUP5 PUSH2 0x5DA2 JUMP JUMPDEST SWAP1 POP SWAP3 SWAP2 POP POP JUMP JUMPDEST PUSH1 0x0 DUP3 PUSH2 0x5DB2 JUMPI PUSH1 0x1 SWAP1 POP PUSH2 0x5E6E JUMP JUMPDEST DUP2 PUSH2 0x5DC0 JUMPI PUSH1 0x0 SWAP1 POP PUSH2 0x5E6E JUMP JUMPDEST DUP2 PUSH1 0x1 DUP2 EQ PUSH2 0x5DD6 JUMPI PUSH1 0x2 DUP2 EQ PUSH2 0x5DE0 JUMPI PUSH2 0x5E0F JUMP JUMPDEST PUSH1 0x1 SWAP2 POP POP PUSH2 0x5E6E JUMP JUMPDEST PUSH1 0xFF DUP5 GT ISZERO PUSH2 0x5DF2 JUMPI PUSH2 0x5DF1 PUSH2 0x61AF JUMP JUMPDEST JUMPDEST DUP4 PUSH1 0x2 EXP SWAP2 POP DUP5 DUP3 GT ISZERO PUSH2 0x5E09 JUMPI PUSH2 0x5E08 PUSH2 0x61AF JUMP JUMPDEST JUMPDEST POP PUSH2 0x5E6E JUMP JUMPDEST POP PUSH1 0x20 DUP4 LT PUSH2 0x133 DUP4 LT AND PUSH1 0x4E DUP5 LT PUSH1 0xB DUP5 LT AND OR ISZERO PUSH2 0x5E44 JUMPI DUP3 DUP3 EXP SWAP1 POP DUP4 DUP2 GT ISZERO PUSH2 0x5E3F JUMPI PUSH2 0x5E3E PUSH2 0x61AF JUMP JUMPDEST JUMPDEST PUSH2 0x5E6E JUMP JUMPDEST PUSH2 0x5E51 DUP5 DUP5 DUP5 PUSH1 0x1 PUSH2 0x5D04 JUMP JUMPDEST SWAP3 POP SWAP1 POP DUP2 DUP5 DIV DUP2 GT ISZERO PUSH2 0x5E68 JUMPI PUSH2 0x5E67 PUSH2 0x61AF JUMP JUMPDEST JUMPDEST DUP2 DUP2 MUL SWAP1 POP JUMPDEST SWAP4 SWAP3 POP POP POP JUMP JUMPDEST PUSH1 0x0 PUSH2 0x5E80 DUP3 PUSH2 0x5FAF JUMP JUMPDEST SWAP2 POP PUSH2 0x5E8B DUP4 PUSH2 0x5FAF JUMP JUMPDEST SWAP3 POP DUP2 PUSH32 0xFFFFFFFFFFFFFFFFFFFFFFFFFFFFFFFFFFFFFFFFFFFFFFFFFFFFFFFFFFFFFFFF DIV DUP4 GT DUP3 ISZERO ISZERO AND ISZERO PUSH2 0x5EC4 JUMPI PUSH2 0x5EC3 PUSH2 0x61AF JUMP JUMPDEST JUMPDEST DUP3 DUP3 MUL SWAP1 POP SWAP3 SWAP2 POP POP JUMP JUMPDEST PUSH1 0x0 PUSH2 0x5EDA DUP3 PUSH2 0x5FAF JUMP JUMPDEST SWAP2 POP PUSH2 0x5EE5 DUP4 PUSH2 0x5FAF JUMP JUMPDEST SWAP3 POP DUP3 DUP3 LT ISZERO PUSH2 0x5EF8 JUMPI PUSH2 0x5EF7 PUSH2 0x61AF JUMP JUMPDEST JUMPDEST DUP3 DUP3 SUB SWAP1 POP SWAP3 SWAP2 POP POP JUMP JUMPDEST PUSH1 0x0 PUSH2 0x5F0E DUP3 PUSH2 0x5F65 JUMP JUMPDEST SWAP1 POP SWAP2 SWAP1 POP JUMP JUMPDEST PUSH1 0x0 DUP2 ISZERO ISZERO SWAP1 POP SWAP2 SWAP1 POP JUMP JUMPDEST PUSH1 0x0 DUP2 SWAP1 POP SWAP2 SWAP1 POP JUMP JUMPDEST PUSH1 0x0 PUSH32 0xFFFFFFFF00000000000000000000000000000000000000000000000000000000 DUP3 AND SWAP1 POP SWAP2 SWAP1 POP JUMP JUMPDEST PUSH1 0x0 PUSH2 0xFFFF DUP3 AND SWAP1 POP SWAP2 SWAP1 POP JUMP JUMPDEST PUSH1 0x0 PUSH20 0xFFFFFFFFFFFFFFFFFFFFFFFFFFFFFFFFFFFFFFFF DUP3 AND SWAP1 POP SWAP2 SWAP1 POP JUMP JUMPDEST PUSH1 0x0 PUSH30 0xFFFFFFFFFFFFFFFFFFFFFFFFFFFFFFFFFFFFFFFFFFFFFFFFFFFFFFFFFFFF DUP3 AND SWAP1 POP SWAP2 SWAP1 POP JUMP JUMPDEST PUSH1 0x0 DUP2 SWAP1 POP SWAP2 SWAP1 POP JUMP JUMPDEST PUSH1 0x0 PUSH1 0xFF DUP3 AND SWAP1 POP SWAP2 SWAP1 POP JUMP JUMPDEST PUSH1 0x0 PUSH2 0x5FD1 DUP3 PUSH2 0x5FEA JUMP JUMPDEST SWAP1 POP SWAP2 SWAP1 POP JUMP JUMPDEST PUSH1 0x0 PUSH2 0x5FE3 DUP3 PUSH2 0x5FEA JUMP JUMPDEST SWAP1 POP SWAP2 SWAP1 POP JUMP JUMPDEST PUSH1 0x0 PUSH2 0x5FF5 DUP3 PUSH2 0x5FFC JUMP JUMPDEST SWAP1 POP SWAP2 SWAP1 POP JUMP JUMPDEST PUSH1 0x0 PUSH2 0x6007 DUP3 PUSH2 0x5F65 JUMP JUMPDEST SWAP1 POP SWAP2 SWAP1 POP JUMP JUMPDEST DUP3 DUP2 DUP4 CALLDATACOPY PUSH1 0x0 DUP4 DUP4 ADD MSTORE POP POP POP JUMP JUMPDEST PUSH1 0x0 JUMPDEST DUP4 DUP2 LT ISZERO PUSH2 0x603B JUMPI DUP1 DUP3 ADD MLOAD DUP2 DUP5 ADD MSTORE PUSH1 0x20 DUP2 ADD SWAP1 POP PUSH2 0x6020 JUMP JUMPDEST DUP4 DUP2 GT ISZERO PUSH2 0x604A JUMPI PUSH1 0x0 DUP5 DUP5 ADD MSTORE JUMPDEST POP POP POP POP JUMP JUMPDEST PUSH1 0x0 PUSH2 0x605B DUP3 PUSH2 0x5FAF JUMP JUMPDEST SWAP2 POP PUSH1 0x0 DUP3 EQ ISZERO PUSH2 0x606F JUMPI PUSH2 0x606E PUSH2 0x61AF JUMP JUMPDEST JUMPDEST PUSH1 0x1 DUP3 SUB SWAP1 POP SWAP2 SWAP1 POP JUMP JUMPDEST PUSH1 0x0 PUSH1 0x2 DUP3 DIV SWAP1 POP PUSH1 0x1 DUP3 AND DUP1 PUSH2 0x6092 JUMPI PUSH1 0x7F DUP3 AND SWAP2 POP JUMPDEST PUSH1 0x20 DUP3 LT DUP2 EQ ISZERO PUSH2 0x60A6 JUMPI PUSH2 0x60A5 PUSH2 0x620D JUMP JUMPDEST JUMPDEST POP SWAP2 SWAP1 POP JUMP JUMPDEST PUSH2 0x60B5 DUP3 PUSH2 0x62E7 JUMP JUMPDEST DUP2 ADD DUP2 DUP2 LT PUSH8 0xFFFFFFFFFFFFFFFF DUP3 GT OR ISZERO PUSH2 0x60D4 JUMPI PUSH2 0x60D3 PUSH2 0x629A JUMP JUMPDEST JUMPDEST DUP1 PUSH1 0x40 MSTORE POP POP POP JUMP JUMPDEST PUSH1 0x0 PUSH2 0x60E8 DUP3 PUSH2 0x5FAF JUMP JUMPDEST SWAP2 POP PUSH32 0xFFFFFFFFFFFFFFFFFFFFFFFFFFFFFFFFFFFFFFFFFFFFFFFFFFFFFFFFFFFFFFFF DUP3 EQ ISZERO PUSH2 0x611B JUMPI PUSH2 0x611A PUSH2 0x61AF JUMP JUMPDEST JUMPDEST PUSH1 0x1 DUP3 ADD SWAP1 POP SWAP2 SWAP1 POP JUMP JUMPDEST PUSH1 0x0 PUSH2 0x6131 DUP3 PUSH2 0x5FB9 JUMP JUMPDEST SWAP2 POP PUSH1 0xFF DUP3 EQ ISZERO PUSH2 0x6145 JUMPI PUSH2 0x6144 PUSH2 0x61AF JUMP JUMPDEST JUMPDEST PUSH1 0x1 DUP3 ADD SWAP1 POP SWAP2 SWAP1 POP JUMP JUMPDEST PUSH1 0x0 PUSH2 0x615B DUP3 PUSH2 0x6162 JUMP JUMPDEST SWAP1 POP SWAP2 SWAP1 POP JUMP JUMPDEST PUSH1 0x0 PUSH2 0x616D DUP3 PUSH2 0x62F8 JUMP JUMPDEST SWAP1 POP SWAP2 SWAP1 POP JUMP JUMPDEST PUSH1 0x0 DUP2 SWAP1 POP SWAP2 SWAP1 POP JUMP JUMPDEST PUSH1 0x0 PUSH2 0x6189 DUP3 PUSH2 0x5FAF JUMP JUMPDEST SWAP2 POP PUSH2 0x6194 DUP4 PUSH2 0x5FAF JUMP JUMPDEST SWAP3 POP DUP3 PUSH2 0x61A4 JUMPI PUSH2 0x61A3 PUSH2 0x61DE JUMP JUMPDEST JUMPDEST DUP3 DUP3 MOD SWAP1 POP SWAP3 SWAP2 POP POP JUMP JUMPDEST PUSH32 0x4E487B7100000000000000000000000000000000000000000000000000000000 PUSH1 0x0 MSTORE PUSH1 0x11 PUSH1 0x4 MSTORE PUSH1 0x24 PUSH1 0x0 REVERT JUMPDEST PUSH32 0x4E487B7100000000000000000000000000000000000000000000000000000000 PUSH1 0x0 MSTORE PUSH1 0x12 PUSH1 0x4 MSTORE PUSH1 0x24 PUSH1 0x0 REVERT JUMPDEST PUSH32 0x4E487B7100000000000000000000000000000000000000000000000000000000 PUSH1 0x0 MSTORE PUSH1 0x22 PUSH1 0x4 MSTORE PUSH1 0x24 PUSH1 0x0 REVERT JUMPDEST PUSH32 0x4E487B7100000000000000000000000000000000000000000000000000000000 PUSH1 0x0 MSTORE PUSH1 0x31 PUSH1 0x4 MSTORE PUSH1 0x24 PUSH1 0x0 REVERT JUMPDEST PUSH32 0x4E487B7100000000000000000000000000000000000000000000000000000000 PUSH1 0x0 MSTORE PUSH1 0x32 PUSH1 0x4 MSTORE PUSH1 0x24 PUSH1 0x0 REVERT JUMPDEST PUSH32 0x4E487B7100000000000000000000000000000000000000000000000000000000 PUSH1 0x0 MSTORE PUSH1 0x41 PUSH1 0x4 MSTORE PUSH1 0x24 PUSH1 0x0 REVERT JUMPDEST PUSH1 0x0 DUP1 REVERT JUMPDEST PUSH1 0x0 DUP1 REVERT JUMPDEST PUSH1 0x0 DUP1 REVERT JUMPDEST PUSH1 0x0 DUP1 REVERT JUMPDEST PUSH1 0x0 DUP1 REVERT JUMPDEST PUSH1 0x0 DUP1 REVERT JUMPDEST PUSH1 0x0 PUSH1 0x1F NOT PUSH1 0x1F DUP4 ADD AND SWAP1 POP SWAP2 SWAP1 POP JUMP JUMPDEST PUSH1 0x0 DUP2 PUSH1 0x60 SHL SWAP1 POP SWAP2 SWAP1 POP JUMP JUMPDEST PUSH1 0x0 DUP2 PUSH1 0x1 SHR SWAP1 POP SWAP2 SWAP1 POP JUMP JUMPDEST PUSH32 0x426F6E64204D616E616765723A204372656174696F6E20746F20746865207A65 PUSH1 0x0 DUP3 ADD MSTORE PUSH32 0x726F20616464726573732069732070726F686962697465642E00000000000000 PUSH1 0x20 DUP3 ADD MSTORE POP JUMP JUMPDEST PUSH32 0x426F6E64204D616E616765723A20457863656564696E6720746865206D617869 PUSH1 0x0 DUP3 ADD MSTORE PUSH32 0x6D756D20616D6F756E74206F6620426F6E64206C6576656C732E205472792064 PUSH1 0x20 DUP3 ADD MSTORE PUSH32 0x6561637469766174696E672061206C6576656C2066697273742E000000000000 PUSH1 0x40 DUP3 ADD MSTORE POP JUMP JUMPDEST PUSH32 0x426F6E6420446973636F756E7461626C653A2055706461746520667265717565 PUSH1 0x0 DUP3 ADD MSTORE PUSH32 0x6E6379206D757374206265203C207468616E20646973636F756E742064757261 PUSH1 0x20 DUP3 ADD MSTORE PUSH32 0x74696F6E2E000000000000000000000000000000000000000000000000000000 PUSH1 0x40 DUP3 ADD MSTORE POP JUMP JUMPDEST PUSH32 0x426F6E64204D616E616765723A20457863656564696E6720426F6E64206C6576 PUSH1 0x0 DUP3 ADD MSTORE PUSH32 0x656C206D6178696D756D20737570706C792E0000000000000000000000000000 PUSH1 0x20 DUP3 ADD MSTORE POP JUMP JUMPDEST PUSH32 0x4F776E61626C653A206E6577206F776E657220697320746865207A65726F2061 PUSH1 0x0 DUP3 ADD MSTORE PUSH32 0x6464726573730000000000000000000000000000000000000000000000000000 PUSH1 0x20 DUP3 ADD MSTORE POP JUMP JUMPDEST PUSH32 0x426F6E64204D616E616765723A20596F75722062616C616E63652063616E2774 PUSH1 0x0 DUP3 ADD MSTORE PUSH32 0x20636F76657220746865206D696E7420636F73742E0000000000000000000000 PUSH1 0x20 DUP3 ADD MSTORE POP JUMP JUMPDEST PUSH32 0x426F6E64204D616E616765723A20496E76616C696420616D6F756E7420746F20 PUSH1 0x0 DUP3 ADD MSTORE PUSH32 0x6D696E742E000000000000000000000000000000000000000000000000000000 PUSH1 0x20 DUP3 ADD MSTORE POP JUMP JUMPDEST PUSH32 0x536166654D6174683A206164646974696F6E206F766572666C6F770000000000 PUSH1 0x0 DUP3 ADD MSTORE POP JUMP JUMPDEST PUSH32 0x426F6E6420446973636F756E7461626C653A20446973636F756E742064757261 PUSH1 0x0 DUP3 ADD MSTORE PUSH32 0x74696F6E206D75737420626520646976697369626C6520627920746865207570 PUSH1 0x20 DUP3 ADD MSTORE PUSH32 0x64617465206672657175656E63792E0000000000000000000000000000000000 PUSH1 0x40 DUP3 ADD MSTORE POP JUMP JUMPDEST PUSH32 0x416464726573733A20696E73756666696369656E742062616C616E636520666F PUSH1 0x0 DUP3 ADD MSTORE PUSH32 0x722063616C6C0000000000000000000000000000000000000000000000000000 PUSH1 0x20 DUP3 ADD MSTORE POP JUMP JUMPDEST PUSH32 0x426F6E64204D616E616765723A2043616E27742061646420626F6E64206C6576 PUSH1 0x0 DUP3 ADD MSTORE PUSH32 0x656C20647572696E67206120646973636F756E742E0000000000000000000000 PUSH1 0x20 DUP3 ADD MSTORE POP JUMP JUMPDEST PUSH32 0x426F6E64204D616E616765723A204C6576656C20697320616C72656164792069 PUSH1 0x0 DUP3 ADD MSTORE PUSH32 0x6E6163746976652E000000000000000000000000000000000000000000000000 PUSH1 0x20 DUP3 ADD MSTORE POP JUMP JUMPDEST PUSH32 0x426F6E64204D616E616765723A20426F6E642073616C6520697320696E616374 PUSH1 0x0 DUP3 ADD MSTORE PUSH32 0x6976652E00000000000000000000000000000000000000000000000000000000 PUSH1 0x20 DUP3 ADD MSTORE POP JUMP JUMPDEST PUSH32 0x426F6E6420446973636F756E7461626C653A2053746172742074696D65737461 PUSH1 0x0 DUP3 ADD MSTORE PUSH32 0x6D70206D757374206265203E207468616E2063757272656E742074696D657374 PUSH1 0x20 DUP3 ADD MSTORE PUSH32 0x616D702E00000000000000000000000000000000000000000000000000000000 PUSH1 0x40 DUP3 ADD MSTORE POP JUMP JUMPDEST PUSH32 0x426F6E6420446973636F756E7461626C653A20456E642074696D657374616D70 PUSH1 0x0 DUP3 ADD MSTORE PUSH32 0x206D757374206265203E207468616E2063757272656E742074696D657374616D PUSH1 0x20 DUP3 ADD MSTORE PUSH32 0x702E000000000000000000000000000000000000000000000000000000000000 PUSH1 0x40 DUP3 ADD MSTORE POP JUMP JUMPDEST PUSH32 0x426F6E6420446973636F756E7461626C653A20546865726520697320616C7265 PUSH1 0x0 DUP3 ADD MSTORE PUSH32 0x616479206120706C616E6E656420646973636F756E742E000000000000000000 PUSH1 0x20 DUP3 ADD MSTORE POP JUMP JUMPDEST PUSH32 0x536166654D6174683A206D756C7469706C69636174696F6E206F766572666C6F PUSH1 0x0 DUP3 ADD MSTORE PUSH32 0x7700000000000000000000000000000000000000000000000000000000000000 PUSH1 0x20 DUP3 ADD MSTORE POP JUMP JUMPDEST PUSH32 0x426F6E64204D616E616765723A20496E646578206F7574206F6620626F756E64 PUSH1 0x0 DUP3 ADD MSTORE PUSH32 0x732E000000000000000000000000000000000000000000000000000000000000 PUSH1 0x20 DUP3 ADD MSTORE POP JUMP JUMPDEST PUSH32 0x4F776E61626C653A2063616C6C6572206973206E6F7420746865206F776E6572 PUSH1 0x0 DUP3 ADD MSTORE POP JUMP JUMPDEST PUSH32 0x426F6E64204D616E616765723A20426F6E64206C6576656C20697320696E6163 PUSH1 0x0 DUP3 ADD MSTORE PUSH32 0x746976652E000000000000000000000000000000000000000000000000000000 PUSH1 0x20 DUP3 ADD MSTORE POP JUMP JUMPDEST PUSH32 0x426F6E64204D616E616765723A20596F7520617265206E6F742077686974656C PUSH1 0x0 DUP3 ADD MSTORE PUSH32 0x69737465642E0000000000000000000000000000000000000000000000000000 PUSH1 0x20 DUP3 ADD MSTORE POP JUMP JUMPDEST PUSH32 0x426F6E64204D616E616765723A204C6576656C20697320616C72656164792061 PUSH1 0x0 DUP3 ADD MSTORE PUSH32 0x63746976652E0000000000000000000000000000000000000000000000000000 PUSH1 0x20 DUP3 ADD MSTORE POP JUMP JUMPDEST PUSH32 0x426F6E6420446973636F756E7461626C653A20446973636F756E742072617465 PUSH1 0x0 DUP3 ADD MSTORE PUSH32 0x206D75737420626520612070657263656E746167652E00000000000000000000 PUSH1 0x20 DUP3 ADD MSTORE POP JUMP JUMPDEST PUSH32 0x426F6E6420446973636F756E7461626C653A20496E76616C696420616D6F756E PUSH1 0x0 DUP3 ADD MSTORE PUSH32 0x74206F6620706172616D20617272617920656C656D656E74732E000000000000 PUSH1 0x20 DUP3 ADD MSTORE POP JUMP JUMPDEST PUSH32 0x416464726573733A2063616C6C20746F206E6F6E2D636F6E7472616374000000 PUSH1 0x0 DUP3 ADD MSTORE POP JUMP JUMPDEST PUSH32 0x426F6E64204D616E616765723A2043616E277420646561637469766174652062 PUSH1 0x0 DUP3 ADD MSTORE PUSH32 0x6F6E64206C6576656C20647572696E67206120646973636F756E742E00000000 PUSH1 0x20 DUP3 ADD MSTORE POP JUMP JUMPDEST PUSH32 0x426F6E64204D616E616765723A20546F6F206D616E7920626F6E6473206D696E PUSH1 0x0 DUP3 ADD MSTORE PUSH32 0x74656420647572696E6720746869732070726963652075706461746520706572 PUSH1 0x20 DUP3 ADD MSTORE PUSH32 0x696F642E00000000000000000000000000000000000000000000000000000000 PUSH1 0x40 DUP3 ADD MSTORE POP JUMP JUMPDEST PUSH32 0x5361666545524332303A204552433230206F7065726174696F6E20646964206E PUSH1 0x0 DUP3 ADD MSTORE PUSH32 0x6F74207375636365656400000000000000000000000000000000000000000000 PUSH1 0x20 DUP3 ADD MSTORE POP JUMP JUMPDEST PUSH32 0x426F6E64204D616E616765723A2043616E277420616374697661746520626F6E PUSH1 0x0 DUP3 ADD MSTORE PUSH32 0x64206C6576656C20647572696E67206120646973636F756E742E000000000000 PUSH1 0x20 DUP3 ADD MSTORE POP JUMP JUMPDEST PUSH2 0x6C80 DUP2 PUSH2 0x5F03 JUMP JUMPDEST DUP2 EQ PUSH2 0x6C8B JUMPI PUSH1 0x0 DUP1 REVERT JUMPDEST POP JUMP JUMPDEST PUSH2 0x6C97 DUP2 PUSH2 0x5F15 JUMP JUMPDEST DUP2 EQ PUSH2 0x6CA2 JUMPI PUSH1 0x0 DUP1 REVERT JUMPDEST POP JUMP JUMPDEST PUSH2 0x6CAE DUP2 PUSH2 0x5F21 JUMP JUMPDEST DUP2 EQ PUSH2 0x6CB9 JUMPI PUSH1 0x0 DUP1 REVERT JUMPDEST POP JUMP JUMPDEST PUSH2 0x6CC5 DUP2 PUSH2 0x5F2B JUMP JUMPDEST DUP2 EQ PUSH2 0x6CD0 JUMPI PUSH1 0x0 DUP1 REVERT JUMPDEST POP JUMP JUMPDEST PUSH2 0x6CDC DUP2 PUSH2 0x5F57 JUMP JUMPDEST DUP2 EQ PUSH2 0x6CE7 JUMPI PUSH1 0x0 DUP1 REVERT JUMPDEST POP JUMP JUMPDEST PUSH2 0x6CF3 DUP2 PUSH2 0x5F85 JUMP JUMPDEST DUP2 EQ PUSH2 0x6CFE JUMPI PUSH1 0x0 DUP1 REVERT JUMPDEST POP JUMP JUMPDEST PUSH2 0x6D0A DUP2 PUSH2 0x5FAF JUMP JUMPDEST DUP2 EQ PUSH2 0x6D15 JUMPI PUSH1 0x0 DUP1 REVERT JUMPDEST POP JUMP INVALID LOG2 PUSH5 0x6970667358 0x22 SLT KECCAK256 CALLCODE 0xEB SWAP14 PUSH13 0xC7847FA36A509B342D9CAA4792 0xCB SELFBALANCE PUSH10 0x58F74A743678D00A865 COINBASE DUP14 PUSH5 0x736F6C6343 STOP ADDMOD SMOD STOP CALLER "
		},
		"gasEstimates": {
			"creation": {
				"codeDepositCost": "5596400",
				"executionCost": "infinite",
				"totalCost": "infinite"
			},
			"external": {
				"accRewardsPerWS()": "2476",
				"accSharesPerUS()": "2498",
				"activateBondLevel(bytes4,uint256)": "infinite",
				"addBondLevel(string,uint256,uint256,uint256)": "infinite",
				"addBondLevelAtIndex(string,uint256,uint256,uint256,uint256)": "infinite",
				"baseToken()": "2667",
				"bond()": "2712",
				"changeBondLevel(bytes4,string,uint256,uint256,uint256)": "infinite",
				"claim(uint256,address)": "infinite",
				"createMultipleBondsWithTokens(bytes4,uint256,bytes32[])": "infinite",
				"deactivateBondLevel(bytes4)": "infinite",
				"deactivateDiscount()": "26842",
				"depositRewards(uint256,uint256)": "infinite",
				"getActiveBondLevels()": "infinite",
				"getBondLevel(bytes4)": "infinite",
				"getClaimableAmounts(address)": "infinite",
				"getDiscountUpdateFactor()": "infinite",
				"getPrice(bytes4)": "infinite",
				"getUserXP(address)": "2951",
				"index()": "2475",
				"isDiscountActive()": "13406",
				"isDiscountPlanned()": "4703",
				"isDiscountWhitelisted()": "9100",
				"isSaleActive()": "2517",
				"linkBondManager()": "infinite",
				"numDigits(uint256)": "infinite",
				"owner()": "2590",
				"rearrangeBondLevel(bytes4,uint256)": "infinite",
				"renounceOwnership()": "30358",
				"setBaseURI(string)": "infinite",
				"setUserXP(uint256,address)": "25105",
				"startDiscountAt(uint256,uint256,uint16,uint240,uint256[])": "infinite",
				"startDiscountIn(uint256,uint256,uint16,uint240,uint256[])": "infinite",
				"startWhitelistedDiscountAt(uint256,uint256,uint256,bytes32,uint16,uint240,uint256[])": "infinite",
				"startWhitelistedDiscountIn(uint256,uint256,uint256,bytes32,uint16,uint240,uint256[])": "infinite",
				"toFixed(uint256,uint256)": "infinite",
				"toggleSale()": "32174",
				"totalUnweightedShares()": "2541",
				"totalWeightedShares()": "2562",
				"transferOwnership(address)": "30794",
				"users(address)": "infinite"
			}
		},
		"methodIdentifiers": {
			"accRewardsPerWS()": "0266f812",
			"accSharesPerUS()": "0714fe87",
			"activateBondLevel(bytes4,uint256)": "a98e5f3c",
			"addBondLevel(string,uint256,uint256,uint256)": "dc68a424",
			"addBondLevelAtIndex(string,uint256,uint256,uint256,uint256)": "6a28d6fd",
			"baseToken()": "c55dae63",
			"bond()": "64c9ec6f",
			"changeBondLevel(bytes4,string,uint256,uint256,uint256)": "bf5a62f0",
			"claim(uint256,address)": "ddd5e1b2",
			"createMultipleBondsWithTokens(bytes4,uint256,bytes32[])": "20c319ed",
			"deactivateBondLevel(bytes4)": "82048ce4",
			"deactivateDiscount()": "97e881b4",
			"depositRewards(uint256,uint256)": "bdd071fb",
			"getActiveBondLevels()": "81880061",
			"getBondLevel(bytes4)": "20375ba6",
			"getClaimableAmounts(address)": "d62a853a",
			"getDiscountUpdateFactor()": "ecb6021c",
			"getPrice(bytes4)": "c66f4c0a",
			"getUserXP(address)": "e9e7eb35",
			"index()": "2986c0e5",
			"isDiscountActive()": "5b1a540a",
			"isDiscountPlanned()": "aa90493a",
			"isDiscountWhitelisted()": "b0e134b1",
			"isSaleActive()": "564566a8",
			"linkBondManager()": "8d07d936",
			"numDigits(uint256)": "db9d28d5",
			"owner()": "8da5cb5b",
			"rearrangeBondLevel(bytes4,uint256)": "8f7ee417",
			"renounceOwnership()": "715018a6",
			"setBaseURI(string)": "55f804b3",
			"setUserXP(uint256,address)": "30b2c504",
			"startDiscountAt(uint256,uint256,uint16,uint240,uint256[])": "4becadb9",
			"startDiscountIn(uint256,uint256,uint16,uint240,uint256[])": "5f8f6235",
			"startWhitelistedDiscountAt(uint256,uint256,uint256,bytes32,uint16,uint240,uint256[])": "6a156fb1",
			"startWhitelistedDiscountIn(uint256,uint256,uint256,bytes32,uint16,uint240,uint256[])": "c0f96004",
			"toFixed(uint256,uint256)": "22e230f3",
			"toggleSale()": "7d8966e4",
			"totalUnweightedShares()": "5404f202",
			"totalWeightedShares()": "dabbcf07",
			"transferOwnership(address)": "f2fde38b",
			"users(address)": "a87430ba"
		}
	},
	"abi": [
		{
			"inputs": [
				{
					"internalType": "address",
					"name": "_bond",
					"type": "address"
				},
				{
					"internalType": "address",
					"name": "_baseToken",
					"type": "address"
				}
			],
			"stateMutability": "nonpayable",
			"type": "constructor"
		},
		{
			"anonymous": false,
			"inputs": [
				{
					"indexed": true,
					"internalType": "bytes4",
					"name": "levelID",
					"type": "bytes4"
				},
				{
					"indexed": false,
					"internalType": "string",
					"name": "name",
					"type": "string"
				},
				{
					"indexed": false,
					"internalType": "uint256",
					"name": "weight",
					"type": "uint256"
				},
				{
					"indexed": false,
					"internalType": "uint256",
					"name": "maxSupply",
					"type": "uint256"
				},
				{
					"indexed": false,
					"internalType": "uint256",
					"name": "price",
					"type": "uint256"
				}
			],
			"name": "BOND_LEVEL_CHANGED",
			"type": "event"
		},
		{
			"anonymous": false,
			"inputs": [
				{
					"indexed": true,
					"internalType": "bytes4",
					"name": "levelID",
					"type": "bytes4"
				},
				{
					"indexed": false,
					"internalType": "string",
					"name": "name",
					"type": "string"
				},
				{
					"indexed": false,
					"internalType": "uint256",
					"name": "weight",
					"type": "uint256"
				},
				{
					"indexed": false,
					"internalType": "uint256",
					"name": "maxSupply",
					"type": "uint256"
				},
				{
					"indexed": false,
					"internalType": "uint256",
					"name": "price",
					"type": "uint256"
				}
			],
			"name": "BOND_LEVEL_CREATED",
			"type": "event"
		},
		{
			"anonymous": false,
			"inputs": [
				{
					"indexed": true,
					"internalType": "bytes4",
					"name": "levelID",
					"type": "bytes4"
				},
				{
					"indexed": false,
					"internalType": "bool",
					"name": "activated",
					"type": "bool"
				}
			],
			"name": "BOND_LEVEL_TOGGLED",
			"type": "event"
		},
		{
			"anonymous": false,
			"inputs": [
				{
					"indexed": true,
					"internalType": "uint256",
					"name": "discountIndex",
					"type": "uint256"
				},
				{
					"indexed": false,
					"internalType": "uint256",
					"name": "startTime",
					"type": "uint256"
				},
				{
					"indexed": false,
					"internalType": "uint256",
					"name": "endTime",
					"type": "uint256"
				},
				{
					"indexed": false,
					"internalType": "uint16",
					"name": "discountRate",
					"type": "uint16"
				},
				{
					"indexed": false,
					"internalType": "bool",
					"name": "whitelist",
					"type": "bool"
				}
			],
			"name": "DISCOUNT_CREATED",
			"type": "event"
		},
		{
			"anonymous": false,
			"inputs": [
				{
					"indexed": true,
					"internalType": "address",
					"name": "previousOwner",
					"type": "address"
				},
				{
					"indexed": true,
					"internalType": "address",
					"name": "newOwner",
					"type": "address"
				}
			],
			"name": "OwnershipTransferred",
			"type": "event"
		},
		{
			"anonymous": false,
			"inputs": [
				{
					"indexed": false,
					"internalType": "uint256",
					"name": "issuedRewards",
					"type": "uint256"
				},
				{
					"indexed": false,
					"internalType": "uint256",
					"name": "issuedShares",
					"type": "uint256"
				}
			],
			"name": "REWARDS_DEPOSIT",
			"type": "event"
		},
		{
			"anonymous": false,
			"inputs": [
				{
					"indexed": false,
					"internalType": "bool",
					"name": "activated",
					"type": "bool"
				}
			],
			"name": "SALE_TOGGLED",
			"type": "event"
		},
		{
			"anonymous": false,
			"inputs": [
				{
					"indexed": false,
					"internalType": "bool",
					"name": "isSaleActive",
					"type": "bool"
				}
			],
			"name": "Set",
			"type": "event"
		},
		{
			"anonymous": false,
			"inputs": [
				{
					"indexed": false,
					"internalType": "uint256",
					"name": "issuedRewards",
					"type": "uint256"
				},
				{
					"indexed": false,
					"internalType": "uint256",
					"name": "issuedShares",
					"type": "uint256"
				}
			],
			"name": "Update",
			"type": "event"
		},
		{
			"inputs": [],
			"name": "accRewardsPerWS",
			"outputs": [
				{
					"internalType": "uint256",
					"name": "",
					"type": "uint256"
				}
			],
			"stateMutability": "view",
			"type": "function"
		},
		{
			"inputs": [],
			"name": "accSharesPerUS",
			"outputs": [
				{
					"internalType": "uint256",
					"name": "",
					"type": "uint256"
				}
			],
			"stateMutability": "view",
			"type": "function"
		},
		{
			"inputs": [
				{
					"internalType": "bytes4",
					"name": "levelID",
					"type": "bytes4"
				},
				{
					"internalType": "uint256",
					"name": "index",
					"type": "uint256"
				}
			],
			"name": "activateBondLevel",
			"outputs": [],
			"stateMutability": "nonpayable",
			"type": "function"
		},
		{
			"inputs": [
				{
					"internalType": "string",
					"name": "name",
					"type": "string"
				},
				{
					"internalType": "uint256",
					"name": "weight",
					"type": "uint256"
				},
				{
					"internalType": "uint256",
					"name": "maxSupply",
					"type": "uint256"
				},
				{
					"internalType": "uint256",
					"name": "price",
					"type": "uint256"
				}
			],
			"name": "addBondLevel",
			"outputs": [
				{
					"internalType": "bytes4",
					"name": "",
					"type": "bytes4"
				}
			],
			"stateMutability": "nonpayable",
			"type": "function"
		},
		{
			"inputs": [
				{
					"internalType": "string",
					"name": "name",
					"type": "string"
				},
				{
					"internalType": "uint256",
					"name": "weight",
					"type": "uint256"
				},
				{
					"internalType": "uint256",
					"name": "maxSupply",
					"type": "uint256"
				},
				{
					"internalType": "uint256",
					"name": "index",
					"type": "uint256"
				},
				{
					"internalType": "uint256",
					"name": "price",
					"type": "uint256"
				}
			],
			"name": "addBondLevelAtIndex",
			"outputs": [
				{
					"internalType": "bytes4",
					"name": "",
					"type": "bytes4"
				}
			],
			"stateMutability": "nonpayable",
			"type": "function"
		},
		{
			"inputs": [],
			"name": "baseToken",
			"outputs": [
				{
					"internalType": "contract IERC20",
					"name": "",
					"type": "address"
				}
			],
			"stateMutability": "view",
			"type": "function"
		},
		{
			"inputs": [],
			"name": "bond",
			"outputs": [
				{
					"internalType": "contract IFNFTBond",
					"name": "",
					"type": "address"
				}
			],
			"stateMutability": "view",
			"type": "function"
		},
		{
			"inputs": [
				{
					"internalType": "bytes4",
					"name": "levelID",
					"type": "bytes4"
				},
				{
					"internalType": "string",
					"name": "name",
					"type": "string"
				},
				{
					"internalType": "uint256",
					"name": "weight",
					"type": "uint256"
				},
				{
					"internalType": "uint256",
					"name": "maxSupply",
					"type": "uint256"
				},
				{
					"internalType": "uint256",
					"name": "price",
					"type": "uint256"
				}
			],
			"name": "changeBondLevel",
			"outputs": [],
			"stateMutability": "nonpayable",
			"type": "function"
		},
		{
			"inputs": [
				{
					"internalType": "uint256",
					"name": "bondID",
					"type": "uint256"
				},
				{
					"internalType": "address",
					"name": "user",
					"type": "address"
				}
			],
			"name": "claim",
			"outputs": [],
			"stateMutability": "nonpayable",
			"type": "function"
		},
		{
			"inputs": [
				{
					"internalType": "bytes4",
					"name": "levelID",
					"type": "bytes4"
				},
				{
					"internalType": "uint256",
					"name": "amount",
					"type": "uint256"
				},
				{
					"internalType": "bytes32[]",
					"name": "merkleProof",
					"type": "bytes32[]"
				}
			],
			"name": "createMultipleBondsWithTokens",
			"outputs": [],
			"stateMutability": "nonpayable",
			"type": "function"
		},
		{
			"inputs": [
				{
					"internalType": "bytes4",
					"name": "levelID",
					"type": "bytes4"
				}
			],
			"name": "deactivateBondLevel",
			"outputs": [],
			"stateMutability": "nonpayable",
			"type": "function"
		},
		{
			"inputs": [],
			"name": "deactivateDiscount",
			"outputs": [],
			"stateMutability": "nonpayable",
			"type": "function"
		},
		{
			"inputs": [
				{
					"internalType": "uint256",
					"name": "issuedRewards",
					"type": "uint256"
				},
				{
					"internalType": "uint256",
					"name": "issuedShares",
					"type": "uint256"
				}
			],
			"name": "depositRewards",
			"outputs": [],
			"stateMutability": "nonpayable",
			"type": "function"
		},
		{
			"inputs": [],
			"name": "getActiveBondLevels",
			"outputs": [
				{
					"internalType": "bytes4[]",
					"name": "",
					"type": "bytes4[]"
				}
			],
			"stateMutability": "view",
			"type": "function"
		},
		{
			"inputs": [
				{
					"internalType": "bytes4",
					"name": "levelID",
					"type": "bytes4"
				}
			],
			"name": "getBondLevel",
			"outputs": [
				{
					"components": [
						{
							"internalType": "bytes4",
							"name": "levelID",
							"type": "bytes4"
						},
						{
							"internalType": "bool",
							"name": "active",
							"type": "bool"
						},
						{
							"internalType": "uint256",
							"name": "weight",
							"type": "uint256"
						},
						{
							"internalType": "uint256",
							"name": "maxSupply",
							"type": "uint256"
						},
						{
							"internalType": "string",
							"name": "name",
							"type": "string"
						},
						{
							"internalType": "uint256",
							"name": "price",
							"type": "uint256"
						}
					],
					"internalType": "struct BondManager.BondLevel",
					"name": "",
					"type": "tuple"
				}
			],
			"stateMutability": "view",
			"type": "function"
		},
		{
			"inputs": [
				{
					"internalType": "address",
					"name": "user",
					"type": "address"
				}
			],
			"name": "getClaimableAmounts",
			"outputs": [
				{
					"internalType": "uint256",
					"name": "claimableShares",
					"type": "uint256"
				},
				{
					"internalType": "uint256",
					"name": "claimableRewards",
					"type": "uint256"
				}
			],
			"stateMutability": "view",
			"type": "function"
		},
		{
			"inputs": [],
			"name": "getDiscountUpdateFactor",
			"outputs": [
				{
					"internalType": "uint256",
					"name": "updateFactor",
					"type": "uint256"
				}
			],
			"stateMutability": "view",
			"type": "function"
		},
		{
			"inputs": [
				{
					"internalType": "bytes4",
					"name": "levelID",
					"type": "bytes4"
				}
			],
			"name": "getPrice",
			"outputs": [
				{
					"internalType": "uint256",
					"name": "",
					"type": "uint256"
				},
				{
					"internalType": "bool",
					"name": "",
					"type": "bool"
				}
			],
			"stateMutability": "view",
			"type": "function"
		},
		{
			"inputs": [
				{
					"internalType": "address",
					"name": "user",
					"type": "address"
				}
			],
			"name": "getUserXP",
			"outputs": [
				{
					"internalType": "uint256",
					"name": "",
					"type": "uint256"
				}
			],
			"stateMutability": "view",
			"type": "function"
		},
		{
			"inputs": [],
			"name": "index",
			"outputs": [
				{
					"internalType": "uint256",
					"name": "",
					"type": "uint256"
				}
			],
			"stateMutability": "view",
			"type": "function"
		},
		{
			"inputs": [],
			"name": "isDiscountActive",
			"outputs": [
				{
					"internalType": "bool",
					"name": "",
					"type": "bool"
				}
			],
			"stateMutability": "view",
			"type": "function"
		},
		{
			"inputs": [],
			"name": "isDiscountPlanned",
			"outputs": [
				{
					"internalType": "bool",
					"name": "",
					"type": "bool"
				}
			],
			"stateMutability": "view",
			"type": "function"
		},
		{
			"inputs": [],
			"name": "isDiscountWhitelisted",
			"outputs": [
				{
					"internalType": "bool",
					"name": "whitelisted",
					"type": "bool"
				}
			],
			"stateMutability": "view",
			"type": "function"
		},
		{
			"inputs": [],
			"name": "isSaleActive",
			"outputs": [
				{
					"internalType": "bool",
					"name": "",
					"type": "bool"
				}
			],
			"stateMutability": "view",
			"type": "function"
		},
		{
			"inputs": [],
			"name": "linkBondManager",
			"outputs": [],
			"stateMutability": "nonpayable",
			"type": "function"
		},
		{
			"inputs": [
				{
					"internalType": "uint256",
					"name": "number",
					"type": "uint256"
				}
			],
			"name": "numDigits",
			"outputs": [
				{
					"internalType": "uint8",
					"name": "",
					"type": "uint8"
				}
			],
			"stateMutability": "view",
			"type": "function"
		},
		{
			"inputs": [],
			"name": "owner",
			"outputs": [
				{
					"internalType": "address",
					"name": "",
					"type": "address"
				}
			],
			"stateMutability": "view",
			"type": "function"
		},
		{
			"inputs": [
				{
					"internalType": "bytes4",
					"name": "levelID",
					"type": "bytes4"
				},
				{
					"internalType": "uint256",
					"name": "index",
					"type": "uint256"
				}
			],
			"name": "rearrangeBondLevel",
			"outputs": [],
			"stateMutability": "nonpayable",
			"type": "function"
		},
		{
			"inputs": [],
			"name": "renounceOwnership",
			"outputs": [],
			"stateMutability": "nonpayable",
			"type": "function"
		},
		{
			"inputs": [
				{
					"internalType": "string",
					"name": "baseURI",
					"type": "string"
				}
			],
			"name": "setBaseURI",
			"outputs": [],
			"stateMutability": "nonpayable",
			"type": "function"
		},
		{
			"inputs": [
				{
					"internalType": "uint256",
					"name": "amount",
					"type": "uint256"
				},
				{
					"internalType": "address",
					"name": "user",
					"type": "address"
				}
			],
			"name": "setUserXP",
			"outputs": [],
			"stateMutability": "nonpayable",
			"type": "function"
		},
		{
			"inputs": [
				{
					"internalType": "uint256",
					"name": "startAt",
					"type": "uint256"
				},
				{
					"internalType": "uint256",
					"name": "endAt",
					"type": "uint256"
				},
				{
					"internalType": "uint16",
					"name": "discountRate",
					"type": "uint16"
				},
				{
					"internalType": "uint240",
					"name": "updateFrequency",
					"type": "uint240"
				},
				{
					"internalType": "uint256[]",
					"name": "purchaseLimit",
					"type": "uint256[]"
				}
			],
			"name": "startDiscountAt",
			"outputs": [],
			"stateMutability": "nonpayable",
			"type": "function"
		},
		{
			"inputs": [
				{
					"internalType": "uint256",
					"name": "startIn",
					"type": "uint256"
				},
				{
					"internalType": "uint256",
					"name": "endIn",
					"type": "uint256"
				},
				{
					"internalType": "uint16",
					"name": "discountRate",
					"type": "uint16"
				},
				{
					"internalType": "uint240",
					"name": "updateFrequency",
					"type": "uint240"
				},
				{
					"internalType": "uint256[]",
					"name": "purchaseLimit",
					"type": "uint256[]"
				}
			],
			"name": "startDiscountIn",
			"outputs": [],
			"stateMutability": "nonpayable",
			"type": "function"
		},
		{
			"inputs": [
				{
					"internalType": "uint256",
					"name": "startAt",
					"type": "uint256"
				},
				{
					"internalType": "uint256",
					"name": "endWhitelistAt",
					"type": "uint256"
				},
				{
					"internalType": "uint256",
					"name": "endAt",
					"type": "uint256"
				},
				{
					"internalType": "bytes32",
					"name": "merkleRoot",
					"type": "bytes32"
				},
				{
					"internalType": "uint16",
					"name": "discountRate",
					"type": "uint16"
				},
				{
					"internalType": "uint240",
					"name": "updateFrequency",
					"type": "uint240"
				},
				{
					"internalType": "uint256[]",
					"name": "purchaseLimit",
					"type": "uint256[]"
				}
			],
			"name": "startWhitelistedDiscountAt",
			"outputs": [],
			"stateMutability": "nonpayable",
			"type": "function"
		},
		{
			"inputs": [
				{
					"internalType": "uint256",
					"name": "startIn",
					"type": "uint256"
				},
				{
					"internalType": "uint256",
					"name": "endWhitelistIn",
					"type": "uint256"
				},
				{
					"internalType": "uint256",
					"name": "endIn",
					"type": "uint256"
				},
				{
					"internalType": "bytes32",
					"name": "merkleRoot",
					"type": "bytes32"
				},
				{
					"internalType": "uint16",
					"name": "discountRate",
					"type": "uint16"
				},
				{
					"internalType": "uint240",
					"name": "updateFrequency",
					"type": "uint240"
				},
				{
					"internalType": "uint256[]",
					"name": "purchaseLimit",
					"type": "uint256[]"
				}
			],
			"name": "startWhitelistedDiscountIn",
			"outputs": [],
			"stateMutability": "nonpayable",
			"type": "function"
		},
		{
			"inputs": [
				{
					"internalType": "uint256",
					"name": "number",
					"type": "uint256"
				},
				{
					"internalType": "uint256",
					"name": "n",
					"type": "uint256"
				}
			],
			"name": "toFixed",
			"outputs": [
				{
					"internalType": "uint256",
					"name": "",
					"type": "uint256"
				}
			],
			"stateMutability": "view",
			"type": "function"
		},
		{
			"inputs": [],
			"name": "toggleSale",
			"outputs": [],
			"stateMutability": "nonpayable",
			"type": "function"
		},
		{
			"inputs": [],
			"name": "totalUnweightedShares",
			"outputs": [
				{
					"internalType": "uint256",
					"name": "",
					"type": "uint256"
				}
			],
			"stateMutability": "view",
			"type": "function"
		},
		{
			"inputs": [],
			"name": "totalWeightedShares",
			"outputs": [
				{
					"internalType": "uint256",
					"name": "",
					"type": "uint256"
				}
			],
			"stateMutability": "view",
			"type": "function"
		},
		{
			"inputs": [
				{
					"internalType": "address",
					"name": "newOwner",
					"type": "address"
				}
			],
			"name": "transferOwnership",
			"outputs": [],
			"stateMutability": "nonpayable",
			"type": "function"
		},
		{
			"inputs": [
				{
					"internalType": "address",
					"name": "",
					"type": "address"
				}
			],
			"name": "users",
			"outputs": [
				{
					"internalType": "uint256",
					"name": "unweightedShares",
					"type": "uint256"
				},
				{
					"internalType": "uint256",
					"name": "weightedShares",
					"type": "uint256"
				},
				{
					"internalType": "uint256",
					"name": "shareDebt",
					"type": "uint256"
				},
				{
					"internalType": "uint256",
					"name": "rewardDebt",
					"type": "uint256"
				},
				{
					"internalType": "uint256",
					"name": "XP",
					"type": "uint256"
				}
			],
			"stateMutability": "view",
			"type": "function"
		}
	]
}